:1000000000000320D1010000C5C400007DC4000031
:100010007DC400007DC400007DC400007DC40000DC
:100020007DC400007DC400007DC40000C5C4000084
:10003000C5C400007DC40000D9DB0000DDDC000089
:10004000C5C40000C5C40000C5C40000C5C400008C
:10005000C5C40000C5C40000C5C40000C5C400007C
:10006000C5C40000C5C40000C5C40000C5C400006C
:10007000C5C40000C5C40000C5C40000C5C400005C
:10008000C5C40000C5C40000C5C40000C5C400004C
:10009000C5C40000C5C40000C5C40000C5C400003C
:1000A000FDBC000009BD0000C5C40000C5C40000BF
:1000B000C5C40000C5C40000C5C40000C9E40000F8
:1000C000C5C40000F5E50000C5C4000021E700003C
:1000D000C5C4000019E80000C5C40000C5C4000084
:1000E000C5C40000C5C40000C5C40000C5C40000EC
:1000F000C5C40000C5C40000C5C40000C5C40000DC
:10010000C5C40000C5C40000C5C40000C5C40000CB
:10011000C5C40000E1CA0000C5C40000C5C4000099
:10012000C5C40000C5C40000C5C40000C5C40000AB
:10013000C5C40000C5C40000C5C40000C5C400009B
:10014000C5C40000C5C4000011E90000C5C400001A
:10015000C5C40000C5C40000C5C40000C5C400007B
:10016000C5C40000C5C4000015BD000045940000D2
:100170007594000051940000719400006D9400008B
:100180005D940000117B0000C5C40000C5C40000E0
:10019000C5C40000C5C4000009EA0000C5C40000D1
:1001A000C5C40000C5C40000C5C4000021BD0000D6
:1001B000C5C40000C5C4000079940000A9940000E3
:1001C00085940000A5940000A19400009194000083
:1001D0005C4B4CF2205210B51A804DF628121A8052
:1001E00000BF00BF0CF072F9574B4FF030621A603D
:1001F000564A9A60564ADA60564B4FF470021A60BB
:10020000554B564A1A60564B1A78110703D51A787F
:1002100042F008021A70534B5349AA221A70534AEB
:10022000534B8B4204D252F8040F43F8040BF8E707
:10023000504B514900228B4202D243F8042BFAE77B
:100240004E494F4A002352F8230041F8230001335E
:10025000742BF8D14B4B4C4A802103F8011B93427D
:10026000FBD14A4B454A1A60494B8A221A70A3F5C2
:10027000805324225A70A0221A709A799207FCD5D2
:100280009A79D406FCD4434A937903F00C03082BE3
:10029000FAD1414B60221A7002331A78802AFCD1BD
:1002A0003C4B01221A715D225A719A799006FCD555
:1002B0009979384A4906FBD5384B394919600021EC
:1002C000596020231370937903F00C030C2BFAD19F
:1002D000344B354A1A60354A354C136813F4807331
:1002E00003D123604FF4A8531360324B324A1A6093
:1002F00000225A60072243F8042C304AC3F80C2D20
:1003000062B60CF05DFA2368DA0705D52C480CF0CC
:10031000B5F92C4B2C4A1A602C4B1B785B0609D57F
:10032000284C294B22689A4204D125480CF0A6F9A2
:10033000002323600FF076FA0CF0CEF80EF00AF8E6
:10034000FEE700BF0E20054030800440823F0400DD
:100350000100002B88ED00E0002008E0030000858C
:1003600002D0074000E00740A01CFF1FF45201002C
:100370003007FF1FA01CFF1F749DFF1F0002FF1FFF
:100380000000000000E400E064E400E008ED00E0AC
:10039000005006400040064001E007404480044011
:1003A0000000060204800440C010070010D0034083
:1003B00014D0034014E000E01FBF02000000202022
:1003C0009CEEF45E1CE00340A5C3945A00F0074085
:1003D000FFFFFFFFFFFFFFFFFFFFFFFFFFFFFFFF2D
:1003E000FFFFFFFFFFFFFFFFFFFFFFFFFFFFFFFF1D
:1003F000FFFFFFFFFFFFFFFFFFFFFFFFFFFFFFFF0D
:10040000FFFFFFFFFFFFFFFFFFFFFFFFDEF9FFFF23
:1004100010B5054C237833B9044B13B10448AFF33E
:1004200000800123237010BDA01CFF1F00000000EE
:10043000F0520100084B10B51BB108490848AFF352
:1004400000800848036803B910BD074B002BFBD0A0
:10045000BDE81040184700BF00000000A41CFF1FAB
:10046000F0520100A01CFF1F000000000020704798
:100470004FF0FF30704700BF704700BF704700BFAC
:10048000704700BF0023034A19460E2013700CF07A
:1004900007B900BFF029FF1F0123034A19460E20A8
:1004A00013700CF0FDB800BFF029FF1F10B5034B0F
:1004B0000360044602F0E0FE204610BD9C3A0100B5
:1004C000836C13B1184605F0A9B9C06C08B103F0EC
:1004D00043B94FF0FF30704708B50CF0FBF8034B01
:1004E0001860BDE808400CF0C3B800BF9C2DFF1F8A
:1004F000F8B50D46064609F04DFA044609F03AFAF9
:10050000074609F027FAA4F2BC739BB27F2B02D8EE
:10051000FAB20C2A22D90023338009F0EBF90646FF
:1005200009F0F8F9044609F005FAF3B2172B12D8CE
:10053000E3B23B2B0FD8C3B23B2B0CD8F3026401C0
:1005400003F4FF2304F4FF542343C0F346000343A2
:100550009BB22B80F8BD00232B80F8BDC0B21F28B2
:10056000D9D87F0107F4FF57384340EA43239BB2B1
:10057000D2E700BF00B5836C83B063B11846012297
:100580000DF1070105F07CF801280CD19DF807005A
:1005900003B05DF804FBC06C28B101220DF1070126
:1005A00003F004F8F0E74FF0FF30F1E700B5014643
:1005B00083B0084808F02AFD074B084A19680191E2
:1005C00013680749019808600133136003B05DF8B0
:1005D00004FB00BFB032FF1F0499FF1FAC2DFF1FAB
:1005E0001820FF1F00B5014683B0084808F00EFD33
:1005F000074B084A19680191136807490198086078
:100600000133136003B05DF804FB00BF9865FF1F62
:100610000499FF1FB02DFF1F2022FF1F826C62B1C3
:10062000137803F0080303F0FF0003B3D3695069A4
:10063000181A48BF6FF000407047C16CC1B191F803
:10064000313003F0080303F0FF0083B1D1E9042344
:10065000D1E90001101A30B463EB010100256FF0FD
:1006600000448D4208BF844200D2204630BC70470F
:1006700008467047836C13B1184605F0E9B9C06CA1
:1006800008B103F09DBD704770B5264CADF5047DF3
:1006900025460DE004F0F4FF0346002B4FF40071F3
:1006A00004A819DD0DF0B0F80DF084F801281DDC68
:1006B000A36C4FF4007204A91846002BEAD1E86C31
:1006C00050B104A94FF4007202F070FF0346002BF2
:1006D0004FF4007104A8E5DC002105200BF0E0FFD9
:1006E000104802F0C9FD0DF5047D70BD78230A2283
:1006F00068460D490DF07CFC69460C480DF04EFD36
:1007000068460DF0D9FC0A4968460DF015FD6946AA
:1007100006480DF093FD064668460DF0CDFC002E10
:10072000C6D0D9E7482DFF1F4012FF1F2422FF1F0C
:100730008C3F010000B5836C83B08DF8071043B186
:10074000184601220DF1070105F0C4F903B05DF868
:1007500004FBC06C0028F9D001220DF1070103F061
:1007600047FE03B05DF804FBF0B51A4EB06CADF572
:10077000037D3746F8B14FF4007202A904F080FF00
:10078000002821DD0DF107040DF2072514F8012FD3
:10079000114901A80FF05EFE01A80FF0F1FE01461D
:1007A00001A80DF031F8AC42F0D10C480DF0B4FACC
:1007B000B06C0028DFD1F86C30B14FF4007202A9A0
:1007C00002F0F4FE0028DDDC024802F055FD0DF5D4
:1007D000037DF0BD482DFF1FB83A01004012FF1FF6
:1007E00070B5044608460D460FF0CAFE236802465F
:1007F000294620465B68BDE87040184738B5044676
:1008000008460D460FF0BCFE2368024629465B6889
:1008100020469847054620460DF07EFA284438BD0C
:1008200038B5074C074D0021204604F5447409F003
:10083000DBFC0FCC0FC594E80F0085E80F0038BD36
:10084000DC1CFF1F482CFF1F70B5204B2049214A9C
:10085000D3F8785400248EB006460C701470E5B1BD
:1008600002462946012368468DF800408DF8014074
:100870008DF8024004F0F6FEF8B1174B196821B16B
:1008800032460123154802F00BFD012105200BF033
:1008900007FFFFF7F9FE0EB070BDD3F87C1461B10D
:1008A0000246012368468DF831508DF832508DF89C
:1008B000335003F065FA0028DFD11B2108480CF003
:1008C000A3FF08480DF028FA0EB070BD5422FF1F98
:1008D000372DFF1F6B07FF1F6032FF1F482DFF1FC3
:1008E000C03A01004012FF1F2DE9F04F414B424931
:1008F000D3F87874414DA3B000264FF47A720E9568
:1009000081460E708DF83C608DF8446020962196EB
:100910001092002F53D03946684601234A466C4650
:100920008DF800608DF801608DF8026004F09AFE89
:10093000002855D0324B19680DF1380821B14A46CC
:100940004046012302F0ACFC20986FF0004A4FF0C3
:10095000000BD8B103781A0706D440460E9502F072
:100960008BFC23B0BDE8F08FC26943699A42F4D092
:100970000122214604F084FE01280CBF9DF80000EE
:10098000FF200CF0C5FF20980028E3D12198002813
:10099000E3D090F831301B07DFD5D0E90423D0E94C
:1009A0000067921B63EB07039B4508BF924501D389
:1009B000002AD2D00122214602F0F8FDDCE7D3F86C
:1009C0007C1469B1684601234A466C468DF8317043
:1009D0008DF832708DF8337003F0D2F90028A9D168
:1009E0001B2108480CF010FF07480DF095F90DF198
:1009F0003808B2E75422FF1F372DFF1F9C3A010031
:100A00006032FF1FC03A01004012FF1F10B50446BC
:100A100014F8013B184633B12E2BF9D00EF02AFF03
:100A20000028F5D110BD012010BD00BF84B030B545
:100A300093B016AC84E80F009DF870509DF86740A5
:100A40000BF048FE9DF866301699009003F0010304
:100A50002A46029301911D9B1549039405A80FF0A6
:100A6000F9FC05A80FF08CFD014605A80CF0CCFEA2
:100A7000ACB1651EEDB2103516AB1D440DF1670427
:100A800014F8012F0B4904A80FF0E4FC04A80FF0A0
:100A900077FD014604A80CF0B7FEAC42F0D1064841
:100AA0000DF03AF913B0BDE8304004B0704700BF14
:100AB000DC3A0100F83A01004012FF1F70B5134CF8
:100AC00004F59165264601210E200BF0E9FD322048
:100AD0000BF024FE00210E200BF0E2FD32200BF083
:100AE0001DFE4FF000010A4807F02AF80848C4F834
:100AF000845406F04BFC0028E5D1D6F88414034852
:100B000002F012FC0028DED070BD00BF5422FF1F8F
:100B1000DC26FF1F08B54FF40072154915480BF08D
:100B20005DF9154B986C70B14FF40072114904F0E7
:100B3000D1FFB0F5007F10D11049114B01200022E8
:100B400008701A6008BDD86C38B14FF400720949BA
:100B500003F04EFCB0F5007FEED00C2109480CF0FC
:100B600053FE09480DF0D8F8BDE80840FFF7A6BFCE
:100B7000342AFF1FE827FF1F482DFF1F362DFF1FB8
:100B8000882CFF1F003B01004012FF1F204B99786B
:100B90004A1CD2B23A2A9A701BD05B2A26D02F392F
:100BA0002A2984BF30229A705A783A2A16D05B2AB2
:100BB00023D0303A2A2A84BF30229A701A783A2AEF
:100BC00011D05B2A20D0303A2A2A84BF30229A7072
:100BD000704741229A705A783A2AE8D141225A70D5
:100BE0001A783A2AEDD141221A7070475A780132A8
:100BF000D2B230215A709970D7E71A780132D2B246
:100C000030211A705970DAE730221A70704700BF2D
:100C10007427FF1F2DE9F047864D874E82B0681C70
:100C200040F23A2200210FF0B9F905F10108002342
:100C3000C8F1110905F23A272C46338009EB04006C
:100C40000BF042FB04F8010FA742F7D17B4CC4F52F
:100C50001277023704F12A0938190BF035FB04F832
:100C6000010FA145764BF7D1764CDFF818A220682A
:100C7000C8F8120193E80700A488AAF804400AF112
:100C800006071C4603C754F80A0F3A806168A26839
:100C9000E3686D4FDFF8F0E10FC720696169A26971
:100CA000E3690FC7BEE80300A7F121049EF8002006
:100CB000C8F8220107F1FF398AF81820CAF8141081
:100CC00027460AF1190A17F8012F604901A80FF009
:100CD000C1FBBDF804302AF8023BB945F3D17020BE
:100CE0000DF040FB5A4F824608F0D2FE5948C7F833
:100CF00000A00FF045FC57490246504608F0B2FFED
:100D00003868514908F0D0FF3868534F70210DF012
:100D10002BFB524B03CB1B78C8F86B01093707F844
:100D2000013C47F8051C14F8012F484901A80FF0B1
:100D300091FBBDF8043027F8023BA145F3D1002315
:100D400047484149474F1A4600F29E2409F004FDE6
:100D5000454B93E80300C8F8B40188F8B81104F1D2
:100D6000400814F8012F394901A80FF073FBBDF8B2
:100D7000043027F8023BA045F3D13C480CF0CCFFEF
:100D80003B4B196821B343233A4A3B4802F088FAA7
:100D9000F0B1394F002402E004F09CFE01342D48EC
:100DA0000FF0EEFBA0424FF0010201A93DD9BB6C50
:100DB00015F8010F8DF804001846002BECD1FB6CE0
:100DC000012201A91846002BE8D003F011FBE5E74A
:100DD00035212A480CF018FD24480CF09DFF2548C9
:100DE0000FF0CEFB014623480CF00EFD1F480CF01F
:100DF00093FF172122480CF007FD1C480CF08CFFD4
:100E000014480FF0BDFB014612480CF0FDFC1748DA
:100E10000CF082FF40F23A2200210E480FF0BEF89B
:100E20000023338002B0BDE8F087134802F024FAB3
:100E3000DFE700BFB32DFF1F382DFF1F7727FF1FF0
:100E40007827FF1F103B0100BC1CFF1F243B010043
:100E50000C27FF1FB42DFF1F1F2FFF1F2C3B01006E
:100E6000DC1CFF1F6D2FFF1F883B01004012FF1F7E
:100E70006032FF1FF831FF1F1032FF1F503B01008F
:100E8000383B0100C62EFF1F183B010030B5754BE3
:100E90001B7895B0002B52D0734C744A2368019391
:100EA000019B11685B1A312B00F2C080704B1B78DC
:100EB000002B2ED023686F4A0793079B11686A485E
:100EC0005B1A312B00F2C0806B4B1B785BB123683F
:100ED0006A4A0D930D9B116863485B1A312B00F22F
:100EE000968015B030BD664B1B78002B6AD0236806
:100EF000644A0F930F9B11685B485B1AB3F5FA7F46
:100F0000EFD3614C01682378109183F001031099AD
:100F100084E05E4B1B78002B40D023685C4A099329
:100F2000099B116850485B1AB3F5FA7FCCD3594D31
:100F300001682B780A9183F001030A998BE0564BE4
:100F4000494C1B78B3B12368544A0393039B11683F
:100F50005B1AB3F5FA7FA9D351482168037804914D
:100F600083F00103049D03701946062015600BF001
:100F700097FB9BE723684B4A0593059B11685B1A17
:100F8000C82B93D923680693069B454D1360012314
:100F9000194606202B700BF083FB87E72268424935
:100FA0000B920B9A0868304D121AC82A8CD92A68FD
:100FB0000C920C98374A08601946052013700BF004
:100FC0006FFB81E7226839491192119A0968264816
:100FD000521AB2F5967F84D3026835491292129A5A
:100FE0000968521AB2F5967FFFF47BAF0268314967
:100FF0001392139A0968521AB2F5967FFFF471AFF3
:10100000214A19460E2013700BF04AFB69E71E4C6B
:10101000016823780E910E9983F0010311600E2070
:10102000194623700BF03CFB15B030BD1C482168FD
:101030000378029183F00103029D03701946062094
:1010400015600BF02DFB31E7124D01682B780891EC
:10105000089983F001031160052019462B700BF0ED
:101060001FFB31E70C32FF1F0499FF1F1C2DFF1FD0
:10107000AA2DFF1FEC29FF1F3422FF1F402CFF1F4A
:101080003522FF1FF02FFF1FF029FF1F182DFF1F14
:10109000202DFF1F982DFF1FA02DFF1F4022FF1F97
:1010A000FC29FF1FE829FF1F3C2CFF1F1820FF1FF2
:1010B0002022FF1F1C22FF1F2DE9F04340F60100F4
:1010C00095B00BF001F9CB4ECB4C33692070002565
:1010D000CA4A717B04924FF0120E0124132718465E
:1010E0002A460594039500952B46CDF808E0019714
:1010F00009F01EFE32466021C14808F0EBFF0028CF
:1011000000F041822E21BF48DFF88483BE4FBF4EDE
:10111000DFF880930CF078FBBD480CF0FDFD29460C
:10112000B74809F07BF922462946B54809F0B0F8DE
:101130001421B8480CF068FBB5480CF0EDFDB64B37
:10114000B6481D704FF480710CF0BEFF21462A2076
:101150000BF0BAFA214629200BF0B6FA21462820D6
:101160000BF0B2FA29462A200BF09AFA29462920D8
:101170000BF096FA294628200BF092FA2146062019
:101180000BF0A2FA214605200BF09EFA21460E2014
:101190000BF09AFA214627200BF096FAA04B88F81C
:1011A0000040214606201C703C700BF079FA98F83C
:1011B000001005200BF074FA39780E200BF070FA4D
:1011C00002211C200BF080FA9649974808F0B8F9E4
:1011D0009649954808F0B6F99549934808F0B4F94E
:1011E0009449914808F0B2F993498F4808F0B0F952
:1011F00032218D4808F09EF94FF4FA618A4808F0D0
:101200009DF94FF4FA71884808F096F9FFF708FB4A
:1012100017218A4806F110040CF0F6FA16F8012F8F
:10122000874909F8012F06A80FF014F906A80FF056
:10123000A7F9014606A80CF0E7FAA642EED17448D9
:101240000CF06AFD01217F4807F01EFB00240121FC
:101250007D4807F019FB234621467C4A79480094D3
:1012600007F010FD2346794A77480094214607F09D
:1012700009FD0121734807F09FFB0121724807F027
:101280009BFB01216F4807F013FB01216E4807F01B
:101290000FFB6F4B6F489A7B082142F001029A7353
:1012A000D97308F091FB08F087FB022800F07381E6
:1012B0001B2169480CF0A8FA55480CF02DFD0120BF
:1012C00008F090FB08F066FB044608F053FB054667
:1012D00008F040FB814608F00DFB064608F01AFBBB
:1012E000074608F027FB80460BF0F4F95B4BCDF87E
:1012F00000901968CDF80C80401A2B4622465849B8
:101300000490029701965748574C0FF0A3F85548A0
:101310000FF036F9014653480CF076FA3C480CF0D1
:10132000FBFC04F59165514B514A1A6028464FF079
:10133000000106F005FC2846C4F8845406F026F89F
:10134000002800F074814B493148FFF757FAFFF746
:10135000B5FB182148480CF057FAD4F87834424AC3
:10136000002B00F05C81D969013900230A2228484A
:101370000CF0F8FC26480CF0CFFC17213F480CF08D
:1013800043FAD4F87804384B002800F0408105F087
:101390001DFB014600230A221D480CF0E3FC1C48FB
:1013A0000CF0BAFCD4F878042F4B002800F01E8112
:1013B00005F00CFB41F28733984240F22181304B1B
:1013C00030481C6017210CF01FFA2F4E04252846C8
:1013D0000AF07AFF0135082D06F8010BF7D12A4EE5
:1013E0003046FFF713FB002800F02A81274E3746CE
:1013F00052E000BFD098FF1F6A07FF1FA0860100C0
:10140000DC1CFF1F903B0100F029FF1F572CFF1F22
:101410004012FF1FC03B0100362DFF1F2422FF1F7B
:10142000FC29FF1FA52500001027FF1FBD1C000081
:101430007D0400008504000099040000D83B0100F1
:10144000243B0100B032FF1F9865FF1F8098FF1FEB
:101450008C2CFF1FD9040000103C01009C2DFF1FA5
:10146000483C0100EC2CFF1F5422FF1FAC32FF1F31
:10147000F10400006C3C01009C3C0100B83C010000
:101480006032FF1F043D01003822FF1F7427FF1F39
:10149000982DFF1FD727FF1F28460AF015FF01359B
:1014A0000C2D07F8010BF7D1724D2846FFF7AEFA65
:1014B00008B9714B2B600C200AF006FF6F4D2870A5
:1014C0000D200AF001FF68700E200AF0FDFEA870E2
:1014D0002846FFF79BFA002800F0B88005216848ED
:1014E0000CF092F967480CF017FC674B634A6749A8
:1014F00067480EF0AFFF172166480CF085F9644885
:101500000FF03EF8014662480CF07EF95D480CF0A1
:1015100003FC5D4B594A6049009660480EF09AFF03
:10152000594B0096554A5E495E480EF093FFD4F839
:1015300078545D4B002D48D0294601230025574A99
:101540008DF8185006A88DF819508DF81A5004F02F
:1015500089F8054625B343200AF0ECFD07EE900A12
:10156000FAEEEF7A514C52494648FDEEE77A17EE13
:10157000902AC4ED007A0CF0E7FB4E4B01221A7062
:1015800015B0BDE8F0831F214B480CF03DF93D48F4
:101590000CF0C2FBFEE749493A48FFF72FF98EE607
:1015A000D4F87814404B002953D006A801233D4AB3
:1015B0008DF818508DF819508DF81A5004F052F823
:1015C0000028C8D0FFF726FBC5E7D3F87C14002914
:1015D000C1D00123314A8DF8495006A88DF84A50F0
:1015E0008DF84B5002F0CCFB0546B3E7D3F87C04F2
:1015F00030B103F0EBFD41F2873398423FF6DFAEA6
:101600002F492048FFF7FAF8FFF758FAD7E6D3F842
:101610007C0400283FF4BDAE03F0D8FDB9E6D2F853
:101620007C1400293FF4A1AED1F828149DE6D4F82B
:101630008414204601F078FE00283FF484AE88E64A
:10164000204B1B6833801B0CB370CFE61E4B2B6006
:1016500044E7D3F87C1400293FF47DAF06A80123AA
:10166000104A8DF849508DF84A508DF84B5002F0D1
:1016700087FBA5E77427FF1F30303000D427FF1FFA
:10168000203D01004012FF1F3822FF1F283D0100AE
:10169000A42DFF1F303D0100483D0100F831FF1F20
:1016A000543D0100102AFF1F5422FF1FA82CFF1FCA
:1016B000603D01006B07FF1FF03B01002C3C010067
:1016C000D03C01001C3D0100435355002DE9F04F73
:1016D000092185B08248834C834E844D0CF094F8E8
:1016E0007F4B228803CB1F78B050B31802F1090E4C
:1016F000A4F800E005F1200959601F72AA461AF803
:10170000012F7B49DFF8DC81774F03A80EF0A2FEA2
:1017100003A80EF035FF014603A80CF075F82388E6
:10172000BDF80C20F252CA4503F102032380E6D132
:1017300070200CF017FEDFF8F4A1834608F0A8F93A
:101740003846CAF800B00EF01BFF3946024658462C
:1017500008F088FADAF80000664908F0A5FADAF825
:10176000000070210CF000FE092163480CF04CF8D9
:10177000614AB8F8003003CA07EB030EF85012783C
:101780008EF808200933CEF80410A8F8003015F8B8
:10179000012F5749DFF84C81534F03A80EF05AFE32
:1017A00003A80EF0EDFE014603A80CF02DF82388E7
:1017B000BDF80C20F2524D4503F102032380E6D11F
:1017C0000023DFF86C914B494C484D4D1A4608F008
:1017D000C3FF484605210CF017F8B8F80030D9F8D7
:1017E0000000F8501F4499F804203A710533A8F816
:1017F000003005F1400715F8012F3D4903A80EF010
:1018000029FE03A80EF0BCFE014603A80BF0FCFF66
:101810002388BDF80C20F252AF4203F1020323806B
:10182000E9D138480CF078FA374B00933749384BF8
:10183000384A39480EF00EFE384B196829B3432355
:10184000354A374801F02CFDF8B1364E344F0025AB
:1018500002E004F03FF9013523480EF091FEA84262
:101860004FF0010203A936D9BB6C16F8010F8DF8B1
:101870000C001846002BECD1FB6C012203A9184682
:10188000002BE8D002F0B4FDE5E70E2126480BF06E
:10189000BBFF1C480CF040FA1F480EF071FE0146D9
:1018A0001D480BF0B1FF17480CF036FA0E480EF049
:1018B00067FE01460C480BF0A7FF12480CF02CFA0B
:1018C00040F23A22002108480EF068FB00232380F2
:1018D00005B0BDE8F08F124801F0CEFCE6E700BF8E
:1018E000183B0100382DFF1FB42DFF1FBB1CFF1F2D
:1018F000243B0100BC1CFF1F2C3B0100DC1CFF1F14
:101900007A1FFF1F4012FF1F7427FF1F483D010071
:101910003822FF1FD427FF1FF831FF1F6032FF1F3F
:101920001032FF1FB32DFF1F7C3D01000C27FF1F4E
:10193000883B01002DE9F043664F87B00AF0CAFEEC
:10194000654A3B781060002B00F0A980634B1B6850
:10195000072B40F2A780624D624C63484FF4FE7241
:10196000214608F081F8C4F8FC01FFF7D3F85F4A7C
:10197000936C002B00F0A780DE695C48DFF8AC8137
:10198000DFF8AC9101F078FC03AC04220821584840
:101990000AF0E2FC3246204656490EF05BFD94E820
:1019A0000700434603C328681A8053494FF4007266
:1019B00008F058F92868514908F076F928684F4D21
:1019C00070210CF0D1FC0FCDC8F80A00C8F80E1039
:1019D000C8F81220C8F816300FCD08F10A06C8F86A
:1019E0001A00C8F81E10C8F822204046F361DFF83C
:1019F0004481434D434E2A2240F24A210AF0ACFC76
:101A0000062148460BF000FFB8F80030B9F8041082
:101A1000D9F80000E850EA18204606339180A8F86B
:101A200000300EF0ADFD014620460BF0EDFE03CC7C
:101A3000B8F800302288E8501D440A332A816960D2
:101A4000A8F80030304DFFF741FEDFF8ECE02F48FA
:101A50002F4A002400942346CEF80040214604700B
:101A600034602C482C6007F00DF921462346284AA3
:101A70000094294807F006F943203C700AF05AFB0D
:101A800007EE900AFAEEEF7A244C25492548FDEE40
:101A9000E77A17EE902AC4ED007A0CF055F907B0FA
:101AA000BDE8F0839C0114490D4D1F48C4F5007436
:101AB000224601EB83110AF091F9224628681A495F
:101AC00008F0D0F848E7D66C002E3FF456AF3669E0
:101AD00053E700BF362DFF1FF42FFF1F882CFF1F79
:101AE0000C27FF1F342AFF1FA42CFF1F482DFF1FA8
:101AF0007427FF1F8C3D0100E827FF1FBC1CFF1F40
:101B0000B42DFF1F4822FF1F442DFF1F382CFF1F3D
:101B10008098FF1FB032FF1F9865FF1FA82CFF1F82
:101B2000603D01004012FF1F1C20FF1F7827FF1F90
:101B3000103B0100382DFF1F4422FF1F10B5214B21
:101B40009A6C8EB0002A36D01F4BD3F87844CCB1B3
:101B50002146012300241D4A8DF8004068468DF877
:101B600001408DF8024003F07DFDD8B1184B196893
:101B700021B10123154A134801F092FBFEF7F4FD51
:101B80000EB010BDD3F87C1461B101230F4A8DF85B
:101B9000314068468DF832408DF8334002F0F0F85D
:101BA0000028E3D11B210B480BF02EFE0A480CF055
:101BB000B3F80EB010BDDB6C002BC5D1FFF7BAFE39
:101BC000C2E700BF482DFF1F5422FF1F102AFF1F2E
:101BD0006032FF1FC03A01004012FF1FF0B5334BC7
:101BE0009A6C8FB00746002A59D0314DD5F8784409
:101BF000BCB121466846002401233A466E468DF862
:101C000000408DF801408DF8024003F02BFDD0B963
:101C10001B2128480BF0F8FD27480CF07DF80FB089
:101C2000F0BDD5F87C140029F2D0684601233A466D
:101C30006E468DF831408DF832408DF8334002F019
:101C40009FF80028E4D0D5F87844194B94B1214688
:101C50003A460024022330468DF800408DF80140BA
:101C60008DF8024003F0FEFC0028D8D0304604F086
:101C7000EDF9D4E7D3F87C140029D0D03A460223FA
:101C800030468DF831408DF832408DF8334002F007
:101C900077F80028C3D0304602F07EF9BFE7DB6C4E
:101CA000002BA2D1FFF746FE9FE700BF482DFF1F84
:101CB0005422FF1FC03A01004012FF1F08B5FFF772
:101CC00039FEBDE80840FFF7F7B900BF2DE9F04342
:101CD0008BB007F05FFE044607F04CFE054607F0A8
:101CE00039FE804607F006FE064607F013FE07465B
:101CF00007F020FE854A864BCDF8008043F2E421B0
:101D0000039050585958049122462B468149029716
:101D1000019605908048814C814E0EF09BFB7E48D9
:101D20000EF02EFC01467C480BF06EFDB4F800C0AE
:101D3000DFF8E4E106EB0C070EF1200875460FCD45
:101D4000454538607960BA60FB60AE4607F1100720
:101D5000F4D1286838600CF1240C7248A4F800C053
:101D60000EF00EFC6F4FDFF8DC816F4D01466D48C1
:101D70000BF04AFD07CF2388F718F0500C33796039
:101D80004046BA60042123800BF03EFD2388D8F83A
:101D90000000F0500433238005F1090915F8012FE4
:101DA00062495E4FDFF8788109A80EF053FB09A85D
:101DB0000EF0E6FB014609A80BF026FD2388BDF8CE
:101DC0002420F252A94503F102032380E6D1DFF873
:101DD0007891574D484604210BF016FD3B88D9F801
:101DE000000048F8030004333B8005F11008514F10
:101DF00014E02A780EF02EFB09A80EF0C1FB014674
:101E000009A80BF001FD2388BDF82420F25201350A
:101E1000023345452380414A414B0AD03B78434930
:101E20001A4609A8002BE4D1404909A80EF012FB7C
:101E3000E2E7DFF8188107934046052106920BF090
:101E4000E3FC069A079B1188D8F8000058503A4DD9
:101E500098F804E00B44053183F804E0118005F1A3
:101E6000100814E02A780EF0F5FA09A80EF088FBA5
:101E7000014609A80BF0C8FC2388BDF82420F252C3
:101E80000135023345452380244A254B0AD03B784F
:101E900026491A4609A8002BE4D1244909A80EF0C6
:101EA000D9FAE2E7254F07933846052106920BF051
:101EB000ABFC069A079B118838685850204D3F7933
:101EC0000B4405311F71118005F1400715F8012FF2
:101ED000164909A80EF0BEFA09A80EF051FB0146FA
:101EE00009A80BF091FC2388BDF82420F252BD42D2
:101EF00003F102032380E9D140F23A22102108487D
:101F00000AF02AFA0BB0BDE8F08300BF9865FF1F06
:101F1000B032FF1F943D0100EC2CFF1F382DFF1F36
:101F2000B42DFF1F102AFF1F2E1FFF1F243B01008F
:101F3000002AFF1F6A07FF1F242AFF1FD43D01004C
:101F40003A1FFF1FBC3D0100C43D0100CC3D010014
:101F500010B52F492F4B84B00022012470200C6053
:101F60001A700CF0FFF9044607F092FD2A4B1C6032
:101F7000FEF70CFE294B009329492A4B2A4A2B488D
:101F80000EF068FA2A4B196829B14323274A2948D9
:101F900001F086F930BB0E2127480BF035FC2748AD
:101FA0000BF0BAFE21480EF0EBFA01461F480BF089
:101FB0002BFC22480BF0B0FE1E4B214A9C6C0421E6
:101FC0001180B4B10021204603F05EFC68B91D4BBE
:101FD0001D4A1B68039303991C4B116001221A7060
:101FE00004B010BDFFF772FEE6E7204603F036FDB1
:101FF000EDE7DC6C002CEAD000220023204601F043
:10200000C3FB0028E3D0204602F080F9DFE700BFE1
:10201000F429FF1F362DFF1F0C27FF1F7427FF1FFA
:10202000543D01003822FF1FD427FF1F102AFF1F35
:102030006032FF1F482DFF1F7C3D01004012FF1F33
:10204000342DFF1F0499FF1F202AFF1F382CFF1F6C
:10205000F0B5424B1B7883B0002B69D00AF03AFBF5
:102060003F4ADFF83CE13F4B3F4C404F404E054676
:1020700092E803001860DEF80000C4F8DF01386859
:102080003C4AC4F8E30130681971C4F8E70104233D
:10209000394E3A481380266006F0DEFF84F8EB01E3
:1020A0003748384E06F0D8FF002784F8EC01334853
:1020B00084F8ED7106F0D6FF84F8EE01304806F0A2
:1020C000D1FF314B84F8EF0103CB4FF4FE72C4F81B
:1020D000F101C4F8F5112D4884F8F071214607F09C
:1020E000C3FCC4F8FC01FEF715FD33680133B3F5FA
:1020F000E11F33601FD24FF40072FF211A48244EB3
:102100000DF04CFF0AF0E6FA02AA401B019033786A
:1021100032F8040D1F499278A4F8F90183F0010305
:102120008A700520194633700AF0BAFA03B0F0BD80
:10213000FFF70EFF92E7112117480BF065FB3B46B6
:102140000A22316815480BF00DFE14480BF0E4FD2F
:102150003760FFF7EFFBFEF7AFFFCCE7382CFF1F30
:10216000F03D01003C2DFF1F342AFF1F4822FF1FB6
:10217000442DFF1F342DFF1F43414E32B032FF1F4D
:102180009865FF1FF429FF1F102AFF1FA42CFF1FB3
:10219000982DFF1F2D2CFF1FDC3D01004012FF1F5B
:1021A0004422FF1FF0B5474B474D1B7885B0002BED
:1021B0005BD1464A4649137809680391454903981B
:1021C000086083F001031946062013700AF068FACC
:1021D000414A424E2B881278F25401332B8007F08B
:1021E00039FB04AA2B8842F80C0D3D4C1068F050C6
:1021F000191D89B203F108026068705092B220681C
:10220000E77BB0500C332B800AF064FA354A2B88F8
:102210001268D4F800E0801A04A920F07F403F063D
:10222000074341F8087D1A1D0868F050103403CCAC
:1022300092B20C33B4189BB21EF0005F2B80B050EA
:10224000214D616006D1B3F5ED7F01D9FFF700FFA5
:1022500005B0F0BD244A137883F0010319460E201F
:1022600013700AF01DFA2B88EDE70AF033FA2B8879
:102270001E4A1F4C191F82FB0123CA17C2EB2312EF
:10228000322303FB12132060002B92D1194C2168DA
:1022900007298ED8184A194B02EB8112013A03F133
:1022A000400012F8011F03F8011F8342F9D1144BBB
:1022B00014491868402207F0D5FC236801332360D5
:1022C00077E700BF362DFF1F342DFF1FFC29FF1FAE
:1022D0000499FF1F202AFF1F842CFF1F342AFF1F91
:1022E000682CFF1F9C2DFF1FF029FF1F1F85EB513E
:1022F000F42FFF1F882CFF1FE827FF1FAB2CFF1FA9
:102300000C27FF1FAC2CFF1F30B5364B1B7887B056
:102310000546002B56D1344B344C1B78002B42D150
:102320002368324913F0005412D0314B1B78002B34
:1023300032D1304A1368013313602F4A137883F087
:10234000010319460E2013700AF0AAF907B030BD38
:102350002A4A10461A408242F8D10B7C03F0F0035F
:10236000102BF3D1224B26481B78264944740325B1
:1023700030228474C5730160027433B3012BE5D13C
:10238000214B224A1B680593059B12689B1A012B5F
:10239000DCD9FEF727F9D9E7012BCED11C4A136807
:1023A00001331360C9E7039504F1100393E80300B8
:1023B0000F4A137802938DE8030094E80F00FEF7AC
:1023C00035FBADE7FFF7EEFEA5E70F4B114A1B68A3
:1023D0000493049B12689B1A012BB7D9FEF7E6F809
:1023E000B4E700BF6B07FF1F372DFF1F682CFF1FCF
:1023F000842CFF1F102DFF1FF029FF1F00F9DA00AA
:102400008C2CFF1FF900DA180499FF1F2022FF1FF0
:10241000142DFF1F1820FF1F454BD3F878042DE91A
:10242000704300286FD0C469057904F0CFFA013CED
:10243000064618213F480BF0E7F900230A222146FF
:102440003D480BF08FFC3C480BF066FC17213B48E5
:102450000BF0DAF900230A22314637480BF082FCF0
:1024600035480BF059FC152135480BF0CDF9002308
:102470000A22294630480BF075FC2F480BF04CFC23
:10248000112130480BF0C0F928460CF0BFFC804603
:10249000894630460CF0BAFC42464B460CF02CFD07
:1024A00000224FF081430CF027FD1FA3D3E9002346
:1024B0000CF04CFE41EC100B02211F480BF09CFC71
:1024C0001D480BF029FC12211F480BF09DF92046F6
:1024D0000CF09CFC42464B460CF00EFD00224FF0E7
:1024E00081430CF009FD10A3D3E900230CF02EFE6C
:1024F00041EC100B022110480BF07EFC0E48BDE8A9
:1025000070430BF009BCD3F87C0448B190F83D341B
:10251000D0F8284401259D4002F058FE064688E781
:1025200005460446064684E70000000080842E41EC
:102530005422FF1F9C3C01004012FF1FB83C0100C9
:10254000F83D0100103E0100243E010000B50E4B95
:102550000E4A1B680E4883B0019301990D4B116020
:10256000012200211A7006F027FA00210A4806F01D
:1025700023FA102109480BF047F909480BF0CCFB6E
:1025800003B05DF804FB00BF0499FF1F4C22FF1F3E
:10259000B032FF1F1D2AFF1F9865FF1F383E010044
:1025A0004012FF1FFFF7D2BF10B50B4A0B4C0C486F
:1025B000002301212370137006F0FEF90121094860
:1025C00006F0FAF9112108480BF01EF90748BDE89A
:1025D00010400BF0A1BB00BF3C22FF1F1D2AFF1FB4
:1025E000B032FF1F9865FF1F4C3E01004012FF1FD5
:1025F00038B517210F48104C0BF006F943F2E425CB
:102600000E4B0A225959204600230BF0ABFB204603
:102610000BF082FB17210A480BF0F6F8094B204615
:1026200059590A2200230BF09DFB2046BDE8384093
:102630000BF072BB803E01004012FF1FB032FF1F43
:10264000983E01009865FF1F10B514210E480F4CED
:102650000BF0DAF80E4B0A221968204600230BF023
:1026600081FB20460BF058FB14210A480BF0CCF8F4
:10267000094B204619680A2200230BF073FB204601
:10268000BDE810400BF048BBB03E01004012FF1FF8
:10269000102DFF1FC83E0100142DFF1F70B586B01E
:1026A000FFF748F9184B194C194E00256420C3F860
:1026B0007854C3F87C540AF031F82946204605F0D6
:1026C0003FFA2046346004F061FE40B11121114808
:1026D0000BF09AF810480BF01FFB06B070BD0E4BC4
:1026E0000E4A316801A802F061F804210C480BF091
:1026F0008BF809480BF010FB64200AF00FF8FEF786
:10270000DDF906B070BD00BF5422FF1FA427FF1FD4
:10271000342CFF1FE03E01004012FF1FF82FFF1F67
:10272000F43E01002DE9F041432090B009F002FD94
:10273000AA4BAB4A1B6810609842C0F2A281A94C18
:1027400009F0C8FF2368C01AB0F57A7F00F29581BE
:10275000A549A64806F0FEFB002840F08381A24967
:10276000A34806F0F7FB002840F02D81A14CA24DB4
:1027700023680193019B2A689B1AB3F57A7F04D3DF
:102780009E4B1B78002B40F00C81FEF77FFB9C4A90
:102790001378002B00F09C809A4F3B78022B236823
:1027A00000F20681984A0393039B106891491B1A13
:1027B000FA2B54D90B68954D05930598DFF88CE2F8
:1027C00009682B88924E0491DEF800C036F8133069
:1027D000049910608F48DFF884E20374CCEB0102A7
:1027E0001B0A03214374012A4FF00003C173C0F890
:1027F00000E0837401D9FDF7D9FE874B1B6853B104
:102800002368864A0693069B12689B1A012B02D9FD
:102810008048FDF7E7FE824A137883F001031946EA
:102820000E20137009F03CFF2B88784A01339BB2CD
:102830001A2B40F233813B787A4D013300243B70F0
:10284000148020461B210BF02DFC013436F810209B
:1028500035F8023F2A801B2C26F81030F1D10AF0FF
:10286000A9FF01282EDD704C704978230A220CA89C
:102870000BF0BEFB0CA920460BF090FC0CA80BF053
:102880001BFC6B490CA80BF057FC0CA920460BF065
:10289000D5FC05460CA80BF00FFC002D7ED1654938
:1028A0000CA80BF049FC0CA920460BF0C7FC06460F
:1028B0000CA80BF001FC002E00F0F2805E4B1D70A6
:1028C0000AF086FF5D4806F0CDFE10B0BDE8F0814D
:1028D0005B4A11780029C2D05A4F3978022900F298
:1028E000DA802368584A0893089B116841485B1AAC
:1028F000FA2BB4D90368454D0A930A9E53490068E0
:102900002B88DFF85C810990D1F800E0414838F865
:102910001330099916604374CEEB01021B0A4C4E2A
:10292000837408210223012AC1730660037401D94C
:10293000FDF73CFE384B1B6853B12368374A0B93B5
:102940000B9B12689B1A012B02D93248FDF74AFEF5
:10295000334A137883F0010319460E20137009F0EF
:102960009FFE2B88294A01339BB2082B40F29680A8
:102970003B78384D264E013300243B7014802046AE
:1029800009210BF08FFB013435F8023F36F8102097
:102990002A80092C28F81030F1D160E7FFF7CEF833
:1029A0008EE7FEF7C7FF23680293029B2B60ECE6DD
:1029B0000793254B079822491860002301200870CF
:1029C0003B7013704BE7144A234913680133012409
:1029D000184613600C70FFF797FCC7E6A82CFF1F82
:1029E000802CFF1F0832FF1F682CFF1FB032FF1F13
:1029F0009865FF1F0499FF1F202AFF1F382CFF1F17
:102A00001D2AFF1F5022FF1F4C22FF1FEE2FFF1F0A
:102A10003407FF1F8C2CFF1F4822FF1F2022FF1F9F
:102A2000F029FF1F3207FF1F2422FF1F4012FF1F44
:102A3000203F0100243F01006B07FF1F1027FF1FED
:102A40003C22FF1F5122FF1FF829FF1F1820FF1FE4
:102A5000F9FFDA186A07FF1F842CFF1FF9FFEA1835
:102A60006C07FF1FA64AA7491368013300241846C4
:102A700013600C70FFF748FC71E609F02BFE206034
:102A800066E6FEF757FF21219F480AF0BDFE9F48EA
:102A90000BF042F953E63B701370E0E61380DEE67C
:102AA0009B490CA80BF048FB0CA920460BF0C6FB79
:102AB00005460CA80BF000FB7DB996490CA80BF05D
:102AC0003BFB0CA920460BF0B9FB05460CA80BF00C
:102AD000F3FA65B1FEF72EFFF2E6FEF7EDFA0C21F0
:102AE0008D480AF091FE89480BF016F9E8E68B490B
:102AF0000CA80BF021FB0CA920460BF09FFB054610
:102B00000CA80BF0D9FA15B1FFF786FCD8E684497A
:102B10000CA80BF011FB0CA920460BF08FFB06460E
:102B20000CA80BF0C9FABEB17E4CD4F8780430B1D1
:102B300000F23C402B462A46744903F063FDD4F86A
:102B40007C0400283FF4BCAE002300F588601A46E0
:102B50006E4901F05FF9B3E673490CA80BF0ECFA8B
:102B60000CA920460BF06AFB05460CA80BF0A4FA52
:102B7000BDB16C4CD4F8780430B1334600F23C401F
:102B80000E22624903F03EFDD4F87C0400283FF495
:102B900097AE00F5886000230E225C4901F03AF9F7
:102BA0008EE662490CA80BF0C7FA0CA920460BF080
:102BB00045FB05460CA80BF07FFA15B1FFF76EFD3B
:102BC0007EE65B490CA80BF0B7FA0CA920460BF087
:102BD00035FB05460CA80BF06FFA15B1FFF708FDA1
:102BE0006EE6544D54490CA80BF0A6FA28460CA9E1
:102BF0000BF024FB06460CA80BF05EFA16B1FFF7AB
:102C000023FD5DE64D490CA80BF096FA0CA9284669
:102C10000BF014FB06460CA80BF04EFA3EB1484BE5
:102C200048493A4801221A70FDF7E8FD48E646494E
:102C30000CA80BF081FA0CA928460BF0FFFA074606
:102C40000CA80BF039FA17B13D4B1E7038E63F491E
:102C50000CA80BF071FA0CA928460BF0EFFA064607
:102C60000CA80BF029FA16B1FFF770FC28E63849DA
:102C70000CA80BF061FA0CA928460BF0DFFA074606
:102C80000CA80BF019FA17B1FFF78EFC18E63149C2
:102C90000CA80BF051FA0CA928460BF00BFB0646CA
:102CA0000CA80BF009FA76B13946042228460BF03D
:102CB00025FB28463B460D220CA90BF005FB0CA872
:102CC000FDF7C2FDFCE524490CA80BF035FA0CA970
:102CD00028460BF0EFFA07460CA80BF0EDF9002F91
:102CE0003CD03146042228460BF008FB28463346E8
:102CF0000D220CA90BF0E8FA0CA8FEF76FFFDFE538
:102D00004422FF1F842CFF1FFC3E01004012FF1FC6
:102D10002C3F0100343F0100603E0100383F0100BC
:102D20003C3F01005422FF1F403F0100483F01008B
:102D3000503F01002422FF1F583F0100603F010067
:102D4000372DFF1F703E01006C3F0100783F0100EE
:102D5000843F0100903F0100983F01007C490CA88E
:102D60000BF0EAF90CA928460BF068FA06460CA805
:102D70000BF0A2F91EB17748FDF7B6FDA0E5764944
:102D80000CA80BF0D9F90CA928460BF093FA0746CA
:102D90000CA80BF091F967B13146032228460BF0DD
:102DA000ADFAAB68032B42D06C496D48FDF726FDA8
:102DB00086E56C490CA80BF0BFF928460CA90BF06E
:102DC00079FA05460CA80BF077F9002D5CD00622A5
:102DD000002165480BF092FA63480BF0ABFA0CA99E
:102DE0000023042260480BF06FFAA2685F4B604931
:102DF0000020032A1860198099703BD0022A32D033
:102E0000012A04BF9DF830209A705848FDF7FEFD56
:102E100020B304220821554809F09EFA554950482C
:102E2000FDF7DEFC51494E48FDF7E8FC48E54E4809
:102E30000BF080FA002304224F494B480BF044FA70
:102E4000042211464C4809F087FA4C494448FDF7E2
:102E5000C7FC49494248FDF7D1FC31E548494048A3
:102E6000FDF7CCFC2CE59DF830109DF83120597011
:102E70009A70CAE79DF830009DF831109DF8322015
:102E8000187059709A70C0E73E490CA80BF054F9BD
:102E90000CA935480BF0D2F904460CA80BF00CF93C
:102EA000002C50D038492E48FDF7A8FC37492C4853
:102EB000FDF7A4FC36492A48FDF7A0FC354928480F
:102EC000FDF79CFC34492648FDF798FC334924481B
:102ED000FDF794FC32492248FDF790FC3149204827
:102EE000FDF78CFC30491E48FDF788FC2F491C4833
:102EF000FDF784FC2E491A48FDF780FC2D4918483F
:102F0000FDF77CFC2C491648FDF778FC2B4914484A
:102F1000FDF774FC2A491248FDF770FC2949104856
:102F2000FDF76CFC28490E48FDF768FC27490C4862
:102F3000FDF764FC26490A48FDF760FC254908486E
:102F4000FDF75CFCBCE424490548FDF757FCB7E4F9
:102F5000A03F0100F831FF1FAC3F0100C43F01005A
:102F60004012FF1FD83F01002422FF1F7427FF1FBC
:102F700030303000E03F01003822FF1FB03F010039
:102F8000F83F0100104001001840010034400100EA
:102F900078400100C84001000441010028410100BF
:102FA000484101006C41010090410100B84101001D
:102FB000F0410100144201004C4201008042010036
:102FC000A0420100C042010008430100504301003B
:102FD00084430100C8430100384401002DE9F04F4B
:102FE00093B009F025F97F4B7F48804D804E814F8B
:102FF000DFF85CA2DFF85C92DFF85C82002483F8E3
:103000000F4383F8304383F8314306F0F9FC7A4BE1
:103010007A49C3F898644FF0260B794EC3F8784488
:103020002A46C3F87C4483F8944483F8AB44C3F83D
:10303000AC44C3F8887483F8A8B4C3F8B0641846E5
:103040000CF0DEFB6F49704E0C714FF47A738B609D
:1030500001936E4B0C732A468C64CC640B6008465B
:1030600051460CF0CDFBDFF8F4E1019BCEF80830BF
:103070008EF804408EF80C407046644BCEF8003059
:103080002A465146CEF84840CEF84C400CF0B8FBEA
:10309000214648460BF050F82A46414648460CF077
:1030A000AFFBDFF8BC915A4801231A461C2106F0F9
:1030B0000FFA214648460BF03FF82A46414648465B
:1030C0000CF09EFB09F006FB524B186009F002FB66
:1030D000514B186009F0FEFA504B514A19680391A0
:1030E000DDF80C9019680491DDF8108019680591DD
:1030F000DDF814C01968069110604A48DDF818E040
:1031000019680791C0F800904748DDF81CA01968BD
:103110000891C0F80080454808991A680992C0F8DB
:1031200000C0DFF840814248099AD3F80090CDF8FA
:103130002890C8F800E0C0F800A0DFF82C81DFF884
:103140002CC13C48DDF828E0C8F80010CCF800207D
:10315000C0F800E01A680B92DDF82CA01A680C92F7
:10316000DDF830901A680D920D991A680E920E983B
:103170001A680F92DDF83C801A681092DFF8F0E0D0
:10318000DDF840C01B681193194BCEF810302A4B64
:10319000CEF800702A46294DC3F80090284B8EF8CF
:1031A00020B0C5F800A0DDF84490DFF8C8B0254F86
:1031B000254DC3F80090124B8EF80C40CBF8001050
:1031C0003860C5F800C02149C6F8008070468EF806
:1031D0002340CEF82830CEF824400CF011FB13B079
:1031E000BDE8F08FDC1CFF1FA42CFF1F3007FF1F62
:1031F000C8460100204701005422FF1F810400003F
:1032000003200038482DFF1F3C2CFF1F9C3A010073
:103210001027FF1F9C2DFF1FF42FFF1F0499FF1F76
:103220000832FF1F4022FF1FF02FFF1F202DFF1F1E
:10323000402CFF1F2022FF1F4C22FF1F1C22FF1FBC
:10324000442CFF1F202AFF1FE829FF1F79040000DC
:10325000AD040000242DFF1FB9E000001032FF1F55
:103260002422FF1F1C2DFF1FEC29FF1F1820FF1F0A
:10327000A427FF1FF829FF1F10B50446806C28B152
:1032800002F062F910B10023A36410BDE06C28B114
:1032900000F0BCF810B10023E36410BD002010BDA5
:1032A00000293BD02DE9F0410C46054698461746CB
:1032B000FFF7E2FFD4F87864B6B105F110012420DD
:1032C00005F03EF90021017041708170D4F8781446
:1032D000A86443463A4602F0C5F910B10120BDE8A2
:1032E000F081A864BDE8F081D4F87C34C3B105F165
:1032F0001001382005F024F980F8316080F8326040
:1033000080F83360D4F87C14E86443463A4600F011
:1033100037FD0028E2D1E864BDE8F0810020704765
:103320000020BDE8F08100BF70B500260546C0F85A
:103330008014C0F8786401464FF48F6005F000F9FE
:103340000446466001F0F6FCC4F8106204F5037010
:1033500001F0F0FC84F83C6484F8716484F87264D1
:1033600084F87364D5F88064C5F87C4431462046FF
:10337000012201F0A7FD68B104F58866304600F02F
:1033800045F82146304600F0ADF850B11E4B012003
:103390001D6070BD02463146204601F093FD0028B5
:1033A000EAD10026C5F87C6429464FF48C6005F00C
:1033B000C7F8C67180F83C6480F83D6480F83E64CC
:1033C000D5F88064C5F8780401223146044603F03C
:1033D00055FB80B104F23C46304602F0B5F8214678
:1033E000304602F047F90028D0D1074B0020186082
:1033F000C5F8780470BD02463146204603F03EFB16
:103400000028E7D1F1E700BF6032FF1F10B5044686
:1034100000F0D6FE002384F8313084F8333010BD3C
:10342000F0B50878202803D111F8010F2028FBD02F
:1034300051600878002851D02F282BD05C2820D04C
:10344000A0F12204E4B21D2C1DD9DFF894E04E1C3B
:1034500000247C28A0F12005374612D05E2D10D81C
:1034600016F8010BA0F12205EDB2013478B32F2834
:1034700011D05C282EFA05F703D01D2DE9D8FD07E1
:10348000E7D50020F0BD164D25FA04F4E607DCD59B
:103490000020F0BD00240F193E4625462F2002E0F3
:1034A00016F8010F01352028FAD02F28F8D029442A
:1034B000196044B1394611F8013D2E2B01D0202B63
:1034C00008D1013CF7D1204610600120F0BD1F60FB
:1034D0000F19EFE7FF2CF6DD0020F0BD1960F3E7D0
:1034E0000101003590F831200AB10020704738B54D
:1034F00004460D46114638220CF050FD40230120B1
:1035000084F8313084F83300256238BD2DE9F04766
:1035100000F1240307468A4693E8070084B097F831
:1035200031300DF1040888E80700002B3AD097F8F5
:103530003030012B36D94FF001090024B9F1010FC9
:1035400014BF202240224146386A01F0B7FD01280D
:1035500028D100224146386A01F096FD10B3037865
:10356000C12B1FD1054604F10F0635F8021FA9B182
:10357000DAF800307E2994BFC9B23F211B680134BC
:1035800050469847A642F0D109F1010997F830302A
:103590005FFA89F94B45D1D8304600E0204604B0A7
:1035A000BDE8F087002004B0BDE8F0872DE9F047C2
:1035B00090F833300446D80782B040F1B2800D460F
:1035C0005906164640F1B880D4E90001D4E9042335
:1035D00010EB060841F100094B4508BF4245C0F019
:1035E000B180002E00F0B080A146F9E80623B04675
:1035F00055E0134371D194F831305B064CBFD0F8DD
:103600002C14E169A16190F83DE4D0F8243402392A
:103610007F0A01FA0EF2F9181144BAF1000F48D1ED
:10362000B8F5007F45D3D0F81432994241D0B8F5AF
:10363000806F59D394F8332052064FEA582A07D4A2
:10364000012202FA0EFEC7EB0E07BA4528BFBA46A2
:1036500099424FEA4A270CD30AEB01029A4208D951
:1036600000F50370019101F0CBFB002859D0206ACE
:103670000199D0F8380402685346D2F80CA02A46C3
:10368000D04700284DD038460021D4E90023121835
:103690004B41B8EB07083D44C4E9002354D0206AED
:1036A000D0F830741740C7F3080A002FA1D0A169E1
:1036B000A9E700F50370002201F042FB88B3CAF5C8
:1036C0000077474528BF474600EB0A013A4628469F
:1036D00008F084FB38460021D7E794F833305906C8
:1036E0000FD5A16901318DE7D0F8380403682A4667
:1036F0009B689847A8B14FF4007000214FF4007701
:10370000C3E74A46A16901F005FD40B2002808DB85
:1037100002D0206AA16976E794F8313013F0500F97
:1037200014D194F832304FF0FF3043F0020384F8A4
:10373000323002B0BDE8F08794F831301A073FF517
:1037400043AF4EE7161A4CE74FF00008C8EB0600EF
:1037500002B0BDE8F08700BFF0B583B001220DF1E3
:1037600007010446D0E900678569FFF71FFF0128BC
:1037700008BF9DF80700A56118BF4FF0FF30C4E9EE
:10378000006703B0F0BD00BF2DE9F04F90F831E0C5
:10379000856983B00446BEF1000F1BD0D0E900015B
:1037A000994208BF904216461F463BD056EA07038F
:1037B00007D10023A3610120C4E9006703B0BDE87D
:1037C000F08F1EF0080F0AD0D4E90423BB4208BFD3
:1037D000B24204D2A561002003B0BDE8F08F236A95
:1037E000019393F83DC494F833A00CF1090C5FFAEF
:1037F0008CFC16F1FF3247F1FF33CCF1200803FABD
:1038000008FB22FA0CF242EA0B02ACF1200B23FA7D
:103810000BF31AF0400F42EA030205D0E3691A44A1
:10382000A261C8E70120D7E710F1FF3941F1FF3A63
:1038300029FA0CFC0AFA08F84CEA080C2AFA0BFBE5
:103840004CEA0B0C6245534617D21EF0400F16BFD0
:10385000019BE369D3F82C34A361904604F1180965
:103860004A46B8F1000FA6D0A169206A01F052FCC7
:1038700008F1FF380028F3D1ACE750EA0103E4D0A7
:10388000CCEB0202E9E700BF2DE9F04F93B090F8CE
:10389000314000920D469DF87010029106462CB9F9
:1038A0009A4695F8313013F0500F07D1002086F872
:1038B000310086F8330013B0BDE8F08F009B002B79
:1038C00000F0118122465146009801F01DFD95F847
:1038D00031300490002B40F0FB80B84A0AF10E030F
:1038E00082FB03121A44DB17C3EBE203029ADBB23A
:1038F00002F00702059302334FF000095FFA83FBE1
:1039000042F0400301924C464F46039320220AA9FD
:103910002846FFF74BFE00283DD02028C6D19DF851
:1039200028301A0663D4002C5ED12A68A969079151
:10393000203A08920134E4B26BB3C02B00F09E80B1
:10394000C12B5FD0852BE1D13822002130460CF00D
:1039500025FB9DF82C309DF8292086F8302003F0B7
:103960003702DB0658BF42F0080286F831202B6888
:10397000296AAA697262203B3162B36295F83330DA
:10398000C3F3801386F82C3020220AA92846FFF7BB
:103990000DFE0028C1D1029B03F04203422B85D1CA
:1039A000009B002B82D05C450DD39EE020287FF445
:1039B0007DAF24B92A68A9690791203A0892DCB240
:1039C000A34540F2928020220AA92846FFF7EEFD87
:1039D000631C0028EAD12846AF6900F021FC0028CA
:1039E0003FF464AFAF61EBE75C45A5D2A2E7B9F164
:1039F000000FA2D15C4538BF0024852B86D14FF043
:103A00000109A1E7C7EB0A085FFA88F8B8F10F0FC0
:103A100028BF4FF00F0843463A4600990AA801F024
:103A200091FC00284BD04744FFB2BA457FF46EAFFB
:103A3000029B18063FF53AAF029B13F0320F05D0F8
:103A400096F8313013F0110F7FF430AF029AD1069F
:103A5000134640F1B5809A077FF528AF0022002376
:103A60003046FFF791FE00283FF420AF304600F0CB
:103A70004DFC00283FF41AAF01201CE79DF82930C7
:103A80009DF8042086F833209F0744BF9DF80C3032
:103A900086F83330DDE90C23DDE91001C6E90423A3
:103AA0000F9BF361009BC6E90201002BC0D09DF87B
:103AB0002B30534505D04FF000094F4626E781468D
:103AC00024E7BDF82C30049A9342F4D100271DE777
:103AD000D5E9002313433FF400AF00220023C5E9DA
:103AE0000023AC61F9E60493F7E695F83330382209
:103AF000C3F380130021304607AC8DF824300CF05E
:103B00004DFA2B6A029D336294E8070005F007071F
:103B1000082567F07D0986F831500AF11E0706F185
:103B2000240585E80700FFB2009DCDF800904FF016
:103B3000000818460122214601F0A6FA8146002815
:103B40003FF4B4AE90F90020002AFFF6AFAE202279
:103B500000210CF023FAB8F1000F53D0B8F1010F97
:103B60003FD0C8EB08120F2FA2F11E024FF0C10187
:103B7000384628BF0F20D2B289F8001058B109F199
:103B8000020300B203EB40002A4412F8011B23F8A1
:103B9000021B9842F9D108F101085FFA88F8C34581
:103BA0001BD920222146306A01F088FA01287FF4CF
:103BB0007DAE0F3FFFB2306ABCE700BF89888888BE
:103BC000029B9B067FF558AFD6E904233046FFF7EA
:103BD000DBFD00287FF450AF68E6304600F0F0FAD5
:103BE00069E69DF80030C021032289F8001089F8A9
:103BF000012086F83330BDF8103089F803A0A9F809
:103C00000430C8E7059B5A1CD2B285210B4B89F8BA
:103C1000001086F8302089F801201A68002ABAD0EE
:103C20000DF11A0106A89047BDF81A10BDF818202A
:103C3000A9F80810A9F80A20ADE700BFAC32FF1FB1
:103C400090F8313053B930B591F8314014F0500448
:103C500083B00D4604D1204603B030BD002070472C
:103C6000D5E90045002504F01F042C4302D0184676
:103C700003B030BD00921A46FFF706FE03B030BD18
:103C80002DE9F043064695B096F8314003920020A6
:103C90008DF849008DF84A008DF84B0034B99946EB
:103CA00091F8313013F0500F0D4603D1002015B0BC
:103CB000BDE8F08313782F2B144633D04FF0010862
:103CC000214603AB04AA3046FFF7AAFB0028EDD03B
:103CD000039B1B78002B3AD09DF81030059ACDF845
:103CE000008029463046FFF7CFFD0028DED034465D
:103CF00006AF06F1300E20686168A268E3683D46B1
:103D00000FC5103474452F46F5D120682860304621
:103D100000F056FA002386F8313086F83330039CE1
:103D200006ADCDE70134039421782F29FAD0D1B123
:103D3000382206A800212F6A0CF030F94022012316
:103D400006AD0E978DF849208DF84B30B6E79DF8FB
:103D50001030059ACDF8009029463046FFF794FDC3
:103D600015B0BDE8F083382230462C6A0CF016F905
:103D700040230120346286F8313086F8330096E71C
:103D800021B1DBB201F58861FFF77ABF08467047C1
:103D900070B586B006AD00220469436905F8042DAC
:103DA0000E4619460A22002320460BF09DFB3034B4
:103DB00000EB8003A4EB430450EA010205F8014D37
:103DC0000B460446EDD102AB9D4206D9294620227E
:103DD00001F8012D9942FBD102AD28460CF0D0FB31
:103DE0003368024629465B683046984706B070BD86
:103DF000034610B5006A0C46002203F1240101F0CD
:103E000043F928B1C1682046BDE8104004F094BBD6
:103E100010BD00BF2DE9F0438FB000241746804647
:103E200000221E4600230D468DF831408DF83240A9
:103E30008DF8334007F00209FFF7A6FC0122414646
:103E400068465FFA89F9FFF7FBFE002840D09DF82D
:103E50003130980701D5F90730D5002446B12B68D9
:103E6000013420211B682846E4B29847A642F6D1C7
:103E7000B9F1000F3FD17A0733D429466846FFF7DE
:103E800045FB9DF8313013F0500F24D12B680D21E4
:103E90001B68284698472B680A211B6828469847C4
:103EA0003B070BD59DF8313013F0500F06D0B31CF3
:103EB000DBB23A4629466846FFF7ACFF6846FFF793
:103EC000A5FA012241466846FFF7BAFE0028BED196
:103ED0000FB0BDE8F0832B682F211B682846984758
:103EE000D4E729466846FFF753FF2B6820211B685B
:103EF00028469847C1E729466846FFF779FF2B68AF
:103F000020211B6828469847B5E700BF8169F8B5AE
:103F10000446006A01B10131012200F079FF012855
:103F200006462FD9012301461A46206A01F03AF8C5
:103F3000074638B3A06994F8333030B35A0613D526
:103F4000421C964225D023F0400284F83320E369D6
:103F500005E0206A01F0E8F8A0B1A0692B465D1CDD
:103F6000834219462A46F4D34FF0FF323146206A85
:103F700001F0DAF830B1A16959B13246206A01F096
:103F8000D3F830B900273846F8BD43F0400384F831
:103F90003330A6613846F8BD2DE9F04300F1240323
:103FA000054693E8070085B095F8333001AE86E802
:103FB00007009A071BD5E969E9B9002401223146B7
:103FC000286A01F061F80134E4B280B1037803F0AB
:103FD0007F03037095F83030A34231D3002CEDD02D
:103FE00020223146286A01F069F80128E6D0002035
:103FF00005B0BDE8F0835B06286A1CD5D5E902232D
:1040000090F83D440934E4B212F1FF3843F1FF392E
:10401000C4F1200709FA07F728FA04F2A4F12003F3
:1040200029FA03F33A431A430132002300F0BAFF9E
:104030000028C2D1DBE701F089F80028BDD1D6E71E
:104040002C6A0023204685F8313085F8333000F0A3
:10405000D7FE0028CBD004F5037000F0D1FE002875
:10406000C5D0D4F8380403685B699847C0E700BF3F
:104070002DE9F04F00F1240A06469AE8070087B0C0
:104080000DF10C0888E807000027DFF830B1B946C9
:104090003C4600224146306A00F0F6FFFBB205467E
:1040A00030B10078C0284DD0C1282BD0852809D048
:1040B00096F8323043F0010386F83230002007B022
:1040C000BDE8F08F96F83110DBF8002095F80190EC
:1040D00001F03701A980AAB1306A019390F80C125F
:1040E00041F0010180F80C120DF10A0102A890477D
:1040F000BDF80A10BDF808202878019BA981298203
:10410000EA816A82002115F801E0E20342EA5404E0
:104110001EFA84F40129A4B201F101010DD01F2976
:10412000F1D999452CD020224146306A00F0C6FFD3
:10413000012807F10107ACD0BAE785280CBF04219C
:104140000221E0E796F8332012F0400F6A7814BF9E
:1041500042F0020222F002026A70D6E90401C5E9C7
:104160000201D6E90201F2696A61C5E90601316A14
:1041700091F80C2242F0010281F80C222878C1E764
:1041800051460122306A00F07FFF002890D0356A46
:104190004480284600F034FE002889D005F50370DD
:1041A00000F02EFE002883D0D5F8380403685B6940
:1041B000984700283FF47CAF81E700BFAC32FF1F77
:1041C00090F8312092B138B590F8332011060FD411
:1041D000056A0446284600F013FE88B994F8323088
:1041E00043F0010384F83230002038BD01207047CD
:1041F00002F07F0280F83320BDE83840FFF738BF77
:1042000005F5037000F0FCFD0028E7D0D5F8380470
:1042100003685B6998470028E0D0012038BD00BFE3
:104220002DE9F04190F831305906044663D4806896
:10423000236AD3F834341844B0F1806F02D30020DD
:10424000BDE8F0812046FFF761FE0028F7D0266A1E
:1042500096F80C32DA0706F5037550D4284606F5B1
:10426000067600F067FD4FF40072002130460BF037
:1042700095FE226AA36992F83D04D2F82414A3F1B2
:104280000208012708FA00F817FA00F3884418BF5B
:10429000002511D0D2F83804036808EB05019B69AA
:1042A0003246984701350028C9D0226A92F83D3439
:1042B00007FA03F3AB42EDD894F831305B0615D41E
:1042C00094F8333063F07F0384F83330D2F83464E9
:1042D000D4E90223D4E9040192194FF000077B418D
:1042E00080197941C4E90223C4E904012046BDE8EC
:1042F000F041FFF765BF006A00F0A2FF98E728468B
:1043000000F07EFD0028A9D199E700BF90F8333076
:104310009A0718D5F0B5C56983B08DB103F0400395
:10432000044603F0FF0083B9A169002941D101953A
:10433000E1612946206A00F009FF30BB002000E05F
:10434000012003B0F0BD00207047206AA16990F8F9
:104350003D34D4E902670933DBB216F1FF36C3F10D
:10436000200E47F1FF3726FA03F207FA0EFE203B34
:1043700042EA0E0227FA03F31A430132B1B1013DBA
:104380006D1A01312A4401910ABBD4E9000194F865
:10439000333063F07F03C4E90201C4E9040184F807
:1043A00033302046FFF70CFF03B0F0BD0195E1610B
:1043B000EAE702AA42F8040D206A00F0ABFE40B220
:1043C0000028BBDB0AD1019D002DDED0B1E7002320
:1043D000019900F0E7FD0028D7D1AFE74FF0FF3299
:1043E000A169206A00F0A0FE0028ECD1A6E700BF7A
:1043F0002DE9F04F90F8333085B09C0706460192C6
:104400000AD496F8323043F0010386F832304FF088
:10441000FF3005B0BDE8F08F5A078A4600F11281DF
:10442000019B002B00F022813146F1E80623DDF8E4
:10443000048003919346306AB569D0F830445B46F6
:104440001C40C4F308094CBB002D00F0BE8096F858
:1044500033305B0640F1DD80D6E9022390F83D74ED
:104460000937FFB212F1FF3243F1FF33C7F1200EDB
:1044700003FA0EFE22FA07F1203F23FA07F741EA7A
:104480000E01F36939430B449D42C0F0B5803046BC
:10449000FFF73CFD0028B4D0306AB569D0F8247429
:1044A00090F83DE4640A023DE11905FA0EF529444D
:1044B000B9F1000F40F08280B8F5007F57D2D6E9FD
:1044C0000423D6E90045B8F5007F474628BF4FF4DE
:1044D00000779D4208BF944234BF0122032200F5B9
:1044E000037000F02DFC00288BD048443A4651461A
:1044F000B94407F073FCB9F5007F00F092803846AC
:104500000021D6E90023D6E9044512EB000B43EB6A
:10451000010C65455A46634608BF5C45BA44C7EB83
:104520000808C6E9002309D296F8331064465B46B2
:10453000C6E9043461F07F0186F83310B8F1000F4A
:104540007FF479AF5A466346D6E90201994208BF23
:1045500090427FD3474B1B68002B00F0858096F874
:104560003330019863F07F0386F8333051E7B8F5B4
:10457000806F2ED3012303FA0EFEC4EB0E0ED0F88B
:1045800014324FEA5824744528BF744699424FEAC2
:10459000442709D362189A4206D900F503700291A4
:1045A00000F0C8FB306A0299D0F838040568234649
:1045B0005246EC69A0470028A1D122E7C9F500774F
:1045C000474528BF4746012289E7F569BDB1B56176
:1045D00064E7D0F8143299422CD0D0F8380403683C
:1045E00052469B69984700283FF40BAF4FF4007088
:1045F00000214FF4007784E70135B5614EE730467E
:10460000FFF784FC00283FF4FCAEB569F561306A21
:1046100044E72946039A00F07DFD00287FF43CAF73
:1046200035E7306A00F5037000F0EAFB00287FF4FC
:1046300066AFE6E600F50370029100F07BFB306A9E
:104640000299CAE7D0E90423FFF79EF800283FF457
:10465000D8AEE5E696F83310019861F07F01C6E91F
:10466000022386F83310D4E60198D2E6D6E9002377
:104670006AE700BFAC32FF1F8368C3F308038BB146
:1046800000210269D1540133B3F5007FF9D1C36829
:104690000269016810B41C68A469184623465DF8D5
:1046A000044B18470120704782680346C2F3080292
:1046B000006930B481545D68986840F2FF1401EBE2
:1046C00075010130A2425960986002D0012030BCCF
:1046D0007047D868196804681A69A4694D1C1D6080
:1046E000234630BC184700BF38B50C46C9B2054652
:1046F000FFF7DAFF00B938BD210A2846BDE8384087
:10470000FFF7D2BF2DE9F84300268046016086609E
:104710004660B0B200F0A0FDB042814605460DD023
:1047200001464046FFF7E0FFA0B30136B6F5803FF3
:10473000EFD34046BDE8F843FFF79EBF741CB4F5C5
:10474000803F14D1C6F58037B7F5007F4FF4803431
:104750001AD2A9B24046FFF7C7FF0135D0B1A54232
:10476000F7D32E46E2E70134B4F5803FEAD0A0B299
:1047700000F072FDA042F6D0A71BB7F5007F03D270
:10478000A642E6D34E46C4E74FF6FF714046FFF718
:10479000ABFF10B90020BDE8F883B9B24046FFF77F
:1047A000A3FF0028F6D02646C0E700BF2DE9F04F52
:1047B00016460A68C16006618DB0814612690846D6
:1047C0000F4698469047B0F5801F15D2B8F1000FFC
:1047D0000DD0D8F80030AB495B68152240469847A9
:1047E000D8F80030A8495B6840460F22984700245B
:1047F00020460DB0BDE8F08F0222012301E0904277
:104800004CD90133DBB2202B4FEA4202F7D1A3F19E
:104810000B0252100121D4B291400594039101334F
:1048200001245B1004FA03F3049303FA04FA9B00D7
:104830000193019BC01A20FA02F303FA02F400214B
:104840004FF40072304602934FF0010B0BF0A6FBC1
:104850000025FF230721FE2286F8C21186F8C32116
:1048600086F8BFB186F8C0B186F8C15186F8C43168
:1048700086F8C5313B68C6F8C6A14AF655225444AD
:104880009B69C6F8CA41A6F8FE2129463246384639
:104890009847B0B9B8F1000FA2D1A8E71C2BB6D841
:1048A00008221A2B059200F2B0814FF400430193C5
:1048B0004FF4807303934FF400534FF4804A0493F2
:1048C000B7E729464FF4007230460BF067FBEB2345
:1048D00033707620902145226C4B7070B170F2706D
:1048E0001B68B464049C0B9334657465029CDDF80A
:1048F0002CE0F46558209DF814407564462141224F
:104900005423F564A6F86A5086F86D4086F8705016
:104910002024C6F864E030714FF0040C4FF4807529
:104920004FF0090E80207171B271F371C6F840A08A
:10493000C6F858A086F86EB034727472B472C6F8B5
:1049400060C0A6F8685006F1770386F86CE006F2BE
:10495000FD1186F86F00F42203F8012F9942FBD174
:104960004AF655220023A6F8FE211C46012501E047
:1049700001330135A3F16A02012A04D9702BF7D063
:10498000F25C02EB7404B5F5007FF1D13B6832466E
:104990009B6951463846984700283FF47BAF3B68F7
:1049A00032469B690AF10C013846984700283FF4CB
:1049B00071AF2A46002130460BF0F0FA4AF6552333
:1049C000A6F8FE310AF109030593731ECDF8249071
:1049D0000AF1010B069306F2FF15CDF820A09946C7
:1049E000CA464B4613F8012F9D4202EB7404F9D1DD
:1049F0003B6832469B6959463846984700283FF441
:104A000049AF3B6832469B690BF10C013846984729
:104A100000283FF43FAF059B0BF1010B5B45DFD155
:104A2000DDF82490CDF81CA04FF40072DDF820A032
:104A3000002130460BF0B2FACDF82090DDF814904A
:104A40000AF10B0B069B13F8012F9D4202EB740435
:104A5000F9D13B6832469B69494638469847002859
:104A60003FF418AF3B6832469B6909F10C013846A8
:104A7000984700283FF40EAF09F101035B4507D0CA
:104A80009946DFE748440100A84401000499FF1F4C
:104A9000CDF81490DDF82090331F06F5FE7243F830
:104AA000044F9342FBD13B6859469B6932463846D6
:104AB000984700283FF4EEAE3B6805999B690D319D
:104AC00032463846984700283FF4E4AEB8F1000F6C
:104AD00006D0D8F8003089495B680C2240469847D8
:104AE000029B4FF40072002130469D000BF056FAF5
:104AF0003346F82203F8132B049A0799524405F21F
:104B0000072514466A0A1046FF2201F8012F8B423E
:104B1000FBD14FF0000B2346CDF810905C46AD0B57
:104B200081469B4604E0002C68D00134A1451CD08E
:104B3000B4FBF5F305FB13434BB901227049404622
:104B4000B8F1000F03D0D8F800305B6898473B6895
:104B500032469B6904EB0B01384698470028E2D1A6
:104B6000B8F1000F7FF43CAE41E6DDF81090B8F1EB
:104B7000000F30D0D8F8003062495B68022240460E
:104B80009847029C039B0734E40804F2FF156D0A62
:104B90009D423FF625AE4FF40072002130460BF0E7
:104BA000FDF9072333704FF0000B06E0BBF1000F57
:104BB0007ED00BF1010B5D452BD03B6801999B69C1
:104BC00032465944384698470028EFD1B8F1000FD3
:104BD0007FF406AE0BE6029C039B0734E40804F264
:104BE000FF156D0A9D423FF602AE4FF4007241463A
:104BF00030460BF0D3F907233370D4E74FF400723B
:104C0000214630460BF0CAF98FE74FF480710391CB
:104C100005E6B8F1000F5ED03B494046FBF7E0FDEA
:104C2000039B4FEA4A0A0AEB03014846FFF76AFD75
:104C300000283FF4D5ADD9F80830039AB3EB422FE2
:104C40003FF6CEAD31494046FBF7CAFD4FF4007246
:104C5000002130460BF0A2F9032382228120022199
:104C6000337086F82000716386F84020D9F804205C
:104C700072647365039AD9F80830B3650025B4638C
:104C80000AEB420AF56504E0F5B1039B01359D424C
:104C900011D03B6832469B690AEB050138469847BC
:104CA00004460028F0D1B8F1000F7FF499AD9EE5DD
:104CB00086F800B07DE7B8F1000F3FF499AD4046AB
:104CC0001349FBF78DFD93E54FF4007229463046FA
:104CD0000BF064F9D9E7039B4FEA4A0A0AEB030198
:104CE0004846FFF70FFD00283FF481ADD9F80830A2
:104CF000039AB3EB422F3FF67AADA7E76044010079
:104D0000F03E010084440100704401008844010029
:104D10009844010010B500F10C0204464068A168F7
:104D200003689B69984718B1237823F00103237027
:104D300010BD00BF00224FF0FF3302708360704748
:104D4000F8B54568FDB183688B42044617460E46A8
:104D50000ED00378DA0712D4BB0716D504F10C0580
:104D600007F001020023134323702846A660F8BD14
:104D700010F90C3B07F0010213432370F8BDFFF755
:104D8000C9FF0028E8D10020F8BD6068036804F17D
:104D90000C059B682A46314698470028E0D1F2E787
:104DA00038B50C46D0F81C14154601EBD41100F5AB
:104DB00003700022FFF7C4FF40B1A400C4F308044D
:104DC00003595A1C04D02B60012038BDFF2038BD88
:104DD000002038BD38B50C46D0F81C14154601EB40
:104DE000D41100F503700122FFF7AAFF034628B192
:104DF000A400C4F3080401201D5138BD38BD00BF14
:104E00000378DB0701D401207047FFF783BF00BFA1
:104E10002DE9F84F804691468B46002944D08F1EDD
:104E2000D8F828349F423BD207F00705012303FA44
:104E300005F5EDB2C7F3C80A3E463C46D8F824143F
:104E4000002201EB14314046FFF77AFFC0B110F8A1
:104E50000A100AE04A452AD0A74210D0D8F82824E0
:104E6000944217D213F0FF050CD001340D424FEAE3
:104E70004503A4EB0602EDD0A7422646EED1012061
:104E8000BDE8F88F0AF1010ABAF5007F4FF001057D
:104E9000DDD101E0002634464FF0000A0125CDE7C0
:104EA0000027BA460125C7E7D0F81874B8E7BBF168
:104EB000000F04D1B9F1010F08BFC8F81864B01C85
:104EC000BDE8F88FF8B5044600234FF0FF3600F533
:104ED0000377C0F838144160C0F810121546384600
:104EE00084F83C34237084F80C32A660C4F8146251
:104EF0001A461946FFF724FF042D0CD8064650B178
:104F00005DB905222649F01C0BF0A8FB18B996F8EC
:104F10006C30092B19D00020F8BD6B1E00EB031379
:104F200093F8BE2112F07F02F5D193F8C231002B25
:104F3000F1D000EB05153846D5F8B6512946FFF7F4
:104F4000FFFE06460028DCD1E5E7336D2B44C4F8AC
:104F50001C34736DC4F82034B36D1D44C4F824545C
:104F6000F36DC4F82834336EC4F82C3496F86D30E1
:104F700084F83D340125093305FA03F35A1EC4F8B9
:104F800018040146C4F83434C4F8302420462A46B4
:104F9000FFF73EFF402384F83C342846F8BD00BFAD
:104FA000B84401002DE9F04702398046D0F82804C2
:104FB00015468A18824238D89A46D8F81834BAF179
:104FC000000F35D1994238BFC8F8181401F0070412
:104FD0000122D8F8243402FA04F4E4B203EB1139C4
:104FE000C1F3C8060122494640469144FFF7A8FE96
:104FF000D8B1871900F5007017F8012B224214BFB1
:1050000001260026564582EA04024FEA44040CD0E9
:10501000013D07F8012C15D014F0FF04EED1B84281
:1050200026464FF00104E7D1DCE70020BDE8F08719
:105030009942CBD89A42C9D9824228BF0022C8F8E7
:105040001824C3E70120BDE8F08700BF70B582B027
:1050500002AE054646F8041D0024D5F8283401990F
:105060000133994202D9002002B070BD3246284671
:10507000FFF796FE40B20028F5DB04F10104ECD105
:10508000204602B070BD00BFF8B50E4696E8280075
:10509000D0F83014D0F8244490F83D742940023BF5
:1050A00004EB5121BB40194400F50370FFF748FEA3
:1050B00018B17368C3F308031844F8BD70B54C68A1
:1050C0000D46A318D0F830146B6090F83D340C40B6
:1050D00009332244DBB222FA03F406463CB12B7AB0
:1050E0003BB12B6801332B60013C002CF7D1012030
:1050F00070BDD6F8283429680133994202D94FF09F
:10510000FF3070BD2A463046FFF74AFE40B2012804
:10511000EAD070BDD0F8283401338B4201D2FF2091
:105120007047FFF73DBE00BF01290DD9D0F82834E4
:105130000133994210B403D900205DF8044B704745
:105140005DF8044BFFF746BE00207047F0B50C46F3
:1051500083B005460E46D5F8283401339C4202D967
:10516000002003B0F0BD01AA21462846FFF718FE33
:1051700047B2002FF4DB012CF2D9D5F828340133E3
:105180009C42EDD8002221462846FFF723FE002846
:10519000E6D0019B01349C420BD1002FDBD13B4672
:1051A000A21B31462846FFF7FDFE0028D8D003B0E9
:1051B000F0BDA21B314600232846FFF7F3FE00286E
:1051C000CED0019C002FCCD02646C4E72DE9F84371
:1051D0000024D0F82464804600F503772546314644
:1051E000002238460136FFF7ABFD30B300F1FF3E39
:1051F000D8F828C41EF8010FFF2805F5805913D0F0
:1052000048B10822012318424FEA430118BF013474
:10521000013ACBB2F7D10835AC450AD94D45DED0BD
:105220001EF8010FFF28EBD10835AC4504F1080446
:10523000F4D8C4EB0C00BDE8F883BDE8F88300BFE8
:1052400010B50446D0F82C14FFF700FF94F83D3455
:105250000933DBB2984010BD7E2808D8A0F1610365
:10526000192B8CBF00232023C01A80B2704730B4A2
:105270000023234D352405E035F8221081428CBFF0
:1052800014461346E11A012903EB5102F4D89BB2EC
:105290001B4935F82320904219D24B240023194D85
:1052A00005E035F8221081428CBF14461346E11AFE
:1052B000012903EB5102F4D89BB2124A35F82310AE
:1052C000814204BF02EB8303588830BC704701EB76
:1052D0008303821AD9788A42DFDA93F90230012BEC
:1052E00008D023B19BB2184480B230BC70474EF254
:1052F000A033F8E702F00102801A80B2E5E700BFB0
:10530000EC450100C0440100C9B110B40144D3030D
:1053100043EA520310F8012BA2F16104192C9CBF3F
:10532000203AD2B212FA83F292B2D30343EA520283
:10533000814292B2EBD110465DF8044B70471046A3
:10534000704700BF43B370B444887E2C1ED813440A
:10535000CD180A44023012F8013BE4B2A3F1610116
:105360001929A4F1610194BF20260026192994BFB0
:10537000202100219B1B641ADBB2E4B29C4205D1C0
:10538000AA4206D030F8024F7E2CE4D9002070BC2F
:105390007047012070BC70470120704738B5044643
:1053A0000D46242200210AF0F9FDA560EB79102BAF
:1053B00008D0202B04D1402301202370A07038BDD9
:1053C000002038BD202301202370A07038BD00BF0D
:1053D000024638B552F8105F04462946806801F04D
:1053E0009DFA50B155B123690135AB42A37818BF7E
:1053F00003F0BF0363F07F03A37038BDA37843F0CD
:105400004003F7E72DE9F041037803F020032BB9BF
:1054100003F0FF0441691F4B994203D9002630462F
:10542000BDE8F0810546FFF7D3FF06460028F5D01A
:105430002969A86801F010FA0746A868394624309F
:10544000052201F0D1F980460028E7D04FF4007220
:1054500021460AF0A3FDAB681A79012A10D901246C
:1054600003E0AB681A79A2420AD918680368E11907
:105470009B69424698470134E4B20028F1D1CDE758
:105480009B7969694FF4007202FA03F311FA83F30E
:105490006B61C4E7FFFD1F0010B5044680680A4633
:1054A0002430A16901F0A0F920B1A38803F00F0313
:1054B00000EB431010BD00BF30B590F90230002B57
:1054C00083B0044619DBA56805F1240001F0BCF99E
:1054D00030B9637843F001036370002003B030BD3E
:1054E00005F50C7001F0B0F90028F2D028680368C7
:1054F0005B6998470028ECD0F0E70121FFF7CCFF6B
:1055000005460028E5D00378E52BE2D023780D4A44
:105510001B0744BFE369C361236A126843831B0C02
:10552000838252B10DF1060101A89047BDF8043005
:10553000BDF806202B836B82EA82A37803F07F03F9
:10554000A370C0E7AC32FF1F10B50378044623B93F
:1055500000232370A370012010BDFFF7ADFF0023CF
:105560002370A37010BD00BF38B5037805460C4604
:10557000B3B928460021FFF78FFFA8B10168426840
:105580008368C568E56021606260A3600169426963
:105590008369C569E56121616261A361012038BD4C
:1055A000FFF78AFF0028E4D1002038BDF0B5064699
:1055B00093B03578019200208DF824008DF82500F5
:1055C0008DF826002DB91F460B7813F0700F0C468E
:1055D00002D1002013B0F0BD13782F2B104617D145
:1055E0000130019003782F2BFAD0002B35D0A16821
:1055F00009A8FFF7D3FE0028EBD0019809AC07E01B
:105600003046FFF759FF002301983370B37009AC9F
:1056100001AA03A900F092FB03AA21460123002856
:10562000D7D0019D2D7830467DB100F0FFFD354685
:1056300009AC0028CDD00FCD0FC40FCD0FC43378E7
:105640002A682260002BDED0DAE73B4603AA214617
:10565000304600F0EBFD13B0F0BDA1683046FFF717
:105660009DFEB7E719B101F23C41FFF79FBF084625
:10567000704700BF03780BB100207047FFF78EBE64
:105680002DE9F04F8378DF0783B0054640F1908025
:105690000F4601780E07914600F193808C0608D5DD
:1056A000826843691289C3EB42139BB2994528BFB4
:1056B0009946B9F1000F00F0AA806B69AA688806C4
:1056C0004E464FF0000805F1100AC3F3080B3FD512
:1056D000116A01EB5321BBF1000F53D1B6F5007FE6
:1056E00050D3D36A99424DD0B6F5806F72D32878E3
:1056F0008006C6F3472B06D41079C8EB0000C0B271
:10570000834528BF834699424FEA4B240BD35B4421
:10571000994208D202F12400019101F095F8002885
:1057200046D0AA680199106802685B46D2F80CB0AE
:105730003A46D84700283BD06B69361B23442744A0
:105740006B6164D02978AA688806C3F3080BBFD4BC
:1057500092F8058008EA5328BBF1000F38D1B8F160
:10576000000F35D1002B3FD149064CBF116A296A81
:105770002961104601F070F8AA6808EB0001BBF13E
:10578000000FABD002F12400002201F02DF878B117
:10579000CBF50074B44228BF344600EB0B0122461F
:1057A000384606F01BFBC7E72B7813F0700F2FD19C
:1057B0006B784FF0FF3043F002036B7003B0BDE82D
:1057C000F08FC36942699B1A994528BF994670E7D3
:1057D0002969CEE7106803683A469B689847002815
:1057E000E6D04FF40074A7E70B0705D5AB785C064D
:1057F00002D529690131BBE710462969524601F0FB
:1058000031F80028D4DBCFD0AA682969B1E7002697
:10581000C6EB090003B0BDE8F08F00BF70B582B0E1
:1058200001220DF10701044646690569FFF728FFCB
:10583000012808BF9DF80700666118BF4FF0FF30D0
:10584000256102B070BD00BF30B54369C3F3431595
:1058500083B0044605B189B901220DF10701204644
:10586000FFF70EFF40B201280BD163691F3363615C
:10587000A068303000EB451003B030BD20334361E9
:10588000F6E7002003B030BD2DE9F0410378076949
:105890000446B3B142698A420E463AD041B9216109
:1058A000A378666123F02003A3700120BDE8F08196
:1058B00018070AD499060BD5A3681B89B6EB431FBA
:1058C000EED927610020BDE8F081E1698E42F8D869
:1058D000D4F808E09EF806500935E9B2501E751E4E
:1058E000C840CD40A84200D8B2B95B064CBFDEF834
:1058F0002030236A236104F110084246002DCFD0E6
:105900002169A06800F0AEFF002805F1FF35F4DC46
:10591000D7E70120BDE8F0812D1AECE72DE9F04131
:105920000D4690460021242204461F469DF818602B
:105930000AF034FBA8682B6AE36000F1300208F03B
:105940000F0302EB4312A060A4F80480D17A0B0786
:1059500011D401F017012170D37AE67013F0180FFB
:1059600004BF41F00801217017F0320F08D02378EE
:1059700013F0110F04D000202070A070BDE8F0815A
:1059800007F00705A570918A538BC66AA661FE06CB
:1059900043EA014106D5BA07EDD591B965F07F0517
:1059A000A57002E02162D369E361BB0602D4012045
:1059B000BDE8F081E1692046FFF766FF0028F6D1D7
:1059C000D9E700F0E7FF0028D5D0A578E6E700BFCB
:1059D00003781BB90B7813F0700F01D100207047CA
:1059E0002DE9F0474E6916F01F0782B021D191468C
:1059F0000D468046BA4601E000276E690021284620
:105A0000FFF722FFA8B103789BB12E2BF4D0E52B32
:105A1000F2D0C27A110710D50F2AEDD15A06ECD573
:105A200003F01F0790F80DA0E7E700F05DF982454D
:105A300005D0002002B0BDE8F087002FF5D1009717
:105A40004B46C6F34F1229464046FFF767FFF1E782
:105A500003780BB1FFF730BD0120704783789B07B7
:105A60001AD5036AB3B110B5016982B00446F1B921
:105A7000019301621946A06800F08CFFA8B1A378D9
:105A800022786169E16163F07F03A370EAB90120C4
:105A900002B010BD01207047002070476FF07042C7
:105AA0002169A06800F00EFF58B90020F0E702AAB3
:105AB000002342F8043D806800F0D4FE0028F4DBA7
:105AC000ECD1019B002BDAD0D4E72046FFF7F4FCA1
:105AD000DEE700BF2DE9F04783789D07044607D431
