:1000000000000320D1010000A9D1000061D100004F
:1000100061D1000061D1000061D1000061D1000018
:1000200061D1000061D1000061D10000A9D10000C0
:10003000A9D1000061D10000BDE80000C1E90000C5
:10004000A9D10000A9D10000A9D10000A9D10000C8
:10005000A9D10000A9D10000A9D10000A9D10000B8
:10006000A9D10000A9D10000A9D10000A9D10000A8
:10007000A9D10000A9D10000A9D10000A9D1000098
:10008000A9D10000A9D10000A9D10000A9D1000088
:10009000A9D10000A9D10000A9D10000A9D1000078
:1000A000E1C90000EDC90000A9D10000A9D10000FC
:1000B000A9D10000A9D10000A9D10000A9F1000038
:1000C000A9D10000D5F20000A9D1000001F4000080
:1000D000A9D10000F9F40000A9D10000A9D10000C5
:1000E000A9D10000A9D10000A9D10000A9D1000028
:1000F000A9D10000A9D10000A9D10000A9D1000018
:10010000A9D10000A9D10000A9D10000A9D1000007
:10011000A9D10000C5D70000A9D10000A9D10000D5
:10012000A9D10000A9D10000A9D10000A9D10000E7
:10013000A9D10000A9D10000A9D10000A9D10000D7
:10014000A9D10000A9D10000F1F50000A9D100005B
:10015000A9D10000A9D10000A9D10000A9D10000B7
:10016000A9D10000A9D10000F9C90000A1960000A2
:10017000D1960000AD960000CD960000C996000013
:10018000B99600006D7D0000A9D10000A9D1000042
:10019000A9D10000A9D10000E9F60000A9D1000012
:1001A000A9D10000A9D10000A9D1000005CA000012
:1001B000A9D10000A9D10000D59600000597000044
:1001C000E196000001970000FD960000ED9600000A
:1001D0005C4B4CF2205210B51A804DF628121A8052
:1001E00000BF00BF0CF0E4FF574B4FF030621A60C5
:1001F000564A9A60564ADA60564B4FF470021A60BB
:10020000554B564A1A60564B1A78110703D51A787F
:1002100042F008021A70534B5349AA221A70534AEB
:10022000534B8B4204D252F8040F43F8040BF8E707
:10023000504B514900228B4202D243F8042BFAE77B
:100240004E494F4A002352F8230041F8230001335E
:10025000742BF8D14B4B4C4A802103F8011B93427D
:10026000FBD14A4B454A1A60494B8A221A70A3F5C2
:10027000805324225A70A0221A709A799207FCD5D2
:100280009A79D406FCD4434A937903F00C03082BE3
:10029000FAD1414B60221A7002331A78802AFCD1BD
:1002A0003C4B01221A715D225A719A799006FCD555
:1002B0009979384A4906FBD5384B394919600021EC
:1002C000596020231370937903F00C030C2BFAD19F
:1002D000344B354A1A60354A354C136813F4807331
:1002E00003D123604FF4A8531360324B324A1A6093
:1002F00000225A60072243F8042C304AC3F80C2D20
:1003000062B60DF0CFF82368DA0705D52C480DF05A
:1003100027F82C4B2C4A1A602C4B1B785B0609D50E
:10032000284C294B22689A4204D125480DF018F830
:100330000023236010F0E6F80CF040FF0EF07AFE88
:10034000FEE700BF0E20054030800440823F0400DD
:100350000100002B88ED00E0002008E0030000858C
:1003600002D0074000E00740201DFF1F3C60010055
:100370003007FF1F201DFF1FC89EFF1F0002FF1F29
:100380000000000000E400E064E400E008ED00E0AC
:10039000005006400040064001E007404480044011
:1003A0000000060204800440C010070010D0034083
:1003B00014D0034014E000E01FBF02000000202022
:1003C000D34EE25E1CE00340A5C3945A00F0074000
:1003D000FFFFFFFFFFFFFFFFFFFFFFFFFFFFFFFF2D
:1003E000FFFFFFFFFFFFFFFFFFFFFFFFFFFFFFFF1D
:1003F000FFFFFFFFFFFFFFFFFFFFFFFFFFFFFFFF0D
:10040000FFFFFFFFFFFFFFFFFFFFFFFFDEF9FFFF23
:1004100010B5054C237833B9044B13B10448AFF33E
:1004200000800123237010BD201DFF1F000000006D
:1004300038600100084B10B51BB108490848AFF3FC
:1004400000800848036803B910BD074B002BFBD0A0
:10045000BDE81040184700BF00000000241DFF1F2A
:1004600038600100201DFF1F0000000000207047C1
:100470004FF0FF30704700BF704700BF704700BFAC
:10048000704700BF0023034A19460E2013700CF07A
:1004900079BF00BF242DFF1F0123034A19460E20F8
:1004A00013700CF06FBF00BF242DFF1F10B5034B5E
:1004B0000360044603F00EF8204610BD5C470100BF
:1004C000836C13B1184605F0D7BAC06C08B103F0BD
:1004D00071BA4FF0FF30704708B50CF06DFF034B59
:1004E0001860BDE808400CF035BF00BFC830FF1FE2
:1004F000F8B50D46064609F07BFB044609F068FB9B
:10050000074609F055FBA4F2BC739BB27F2B02D8BF
:10051000FAB20C2A22D90023338009F019FB0646CF
:1005200009F026FB044609F033FBF3B2172B12D86F
:10053000E3B23B2B0FD8C3B23B2B0CD8F3026401C0
:1005400003F4FF2304F4FF542343C0F346000343A2
:100550009BB22B80F8BD00232B80F8BDC0B21F28B2
:10056000D9D87F0107F4FF57384340EA43239BB2B1
:10057000D2E700BF00B5836C83B063B11846012297
:100580000DF1070105F0AAF901280CD19DF807002B
:1005900003B05DF804FBC06C28B101220DF1070126
:1005A00003F032F9F0E74FF0FF30F1E700B5014614
:1005B00083B0084808F058FE074B084A19680191B3
:1005C00013680749019808600133136003B05DF8B0
:1005D00004FB00BF0434FF1F589AFF1FD830FF1FD1
:1005E0009820FF1F00B5014683B0084808F03CFE84
:1005F000074B084A19680191136807490198086078
:100600000133136003B05DF804FB00BFEC66FF1F0D
:10061000589AFF1FDC30FF1FA024FF1F826C62B1BD
:10062000137803F0080303F0FF0003B3D3695069A4
:10063000181A48BF6FF000407047C16CC1B191F803
:10064000313003F0080303F0FF0083B1D1E9042344
:10065000D1E90001101A30B463EB010100256FF0FD
:1006600000448D4208BF844200D2204630BC70470F
:1006700008467047836C13B1184605F017BBC06C71
:1006800008B103F0CBBE704770B5264CADF5047DC4
:1006900025460DE005F022F90346002B4FF40071CA
:1006A00004A819DD0DF022FF0DF0F6FE01281DDC77
:1006B000A36C4FF4007204A91846002BEAD1E86C31
:1006C00050B104A94FF4007203F09EF80346002BCA
:1006D0004FF4007104A8E5DC002105200CF052FE67
:1006E000104802F0F7FE0DF5047D70BD78230A2254
:1006F00068460D490EF0ECFA69460C480EF0BEFB58
:1007000068460EF049FB0A4968460EF085FB6946CB
:1007100006480EF003FC064668460EF03DFB002E30
:10072000C6D0D9E77430FF1FC412FF1FA424FF1FD7
:10073000D44C010000B5836C83B08DF8071043B131
:10074000184601220DF1070105F0F2FA03B05DF839
:1007500004FBC06C0028F9D001220DF1070103F061
:1007600075FF03B05DF804FBF0B51A4EB06CADF543
:10077000037D3746F8B14FF4007202A905F0AEF8D8
:10078000002821DD0DF107040DF2072514F8012FD3
:10079000114901A810F0CEFC01A810F051FD01464E
:1007A00001A80DF0A3FEAC42F0D10C480EF026F9E2
:1007B000B06C0028DFD1F86C30B14FF4007202A9A0
:1007C00003F022F80028DDDC024802F083FE0DF57C
:1007D000037DF0BD7430FF1F78470100C412FF1F76
:1007E00070B5044608460D4610F02AFD23680246FF
:1007F000294620465B68BDE87040184738B5044676
:1008000008460D4610F01CFD2368024629465B6829
:1008100020469847054620460EF0F0F8284438BD9B
:1008200038B5074C074D0021204604F544740AF002
:1008300005FA0FCC0FC594E80F0085E80F0038BD0E
:100840005C1DFF1F8C2FFF1FF8B506460D460024C8
:10085000104A1148611E02F1100E314411F8017F57
:1008600012F8013F7B40724500F8013FF6D10B4F73
:100870000A4B0B490B480A2209F072FE0FCF2F19C1
:1008800028511034B4F5007F7960BA60FB60DFD185
:10089000F8BD00BF5333FF1F7B2FFF1F5433FF1FD3
:1008A000B824FF1F7C2FFF1F70B5204B2049214A21
:1008B000D3F8785400248EB006460C701470E5B15D
:1008C00002462946012368468DF800408DF8014014
:1008D0008DF8024004F0F4FFF8B1174B196821B10C
:1008E00032460123154802F009FE012105200CF0D3
:1008F00049FDFFF7C9FE0EB070BDD3F87C1461B19D
:100900000246012368468DF831508DF832508DF83B
:10091000335003F063FB0028DFD11B2108480DF0A2
:10092000E5FD08480EF06AF80EB070BD8825FF1F7F
:100930006330FF1F6B07FF1FB433FF1F7430FF1FAF
:1009400080470100C412FF1F2DE9F04F414B42497F
:10095000D3F87874414DA3B000264FF47A720E9507
:1009600081460E708DF83C608DF84460209621968B
:100970001092002F53D03946684601234A466C46F0
:100980008DF800608DF801608DF8026004F098FF2A
:10099000002855D0324B19680DF1380821B14A466C
:1009A0004046012302F0AAFD20986FF0004A4FF064
:1009B000000BD8B103781A0706D440460E9502F012
:1009C00089FD23B0BDE8F08FC26943699A42F4D033
:1009D0000122214604F082FF01280CBF9DF800008F
:1009E000FF200DF007FE20980028E3D12198002871
:1009F000E3D090F831301B07DFD5D0E90423D0E9EC
:100A00000067921B63EB07039B4508BF924501D328
:100A1000002AD2D00122214602F0F6FEDCE7D3F80C
:100A20007C1469B1684601234A466C468DF83170E2
:100A30008DF832708DF8337003F0D0FA0028A9D108
:100A40001B2108480DF052FD07480DF0D7FF0DF1AE
:100A50003808B2E78825FF1F6330FF1F5C4701009D
:100A6000B433FF1F80470100C412FF1F10B50446B6
:100A700014F8013B184633B12E2BF9D00FF06AFD64
:100A80000028F5D110BD012010BD00BF84B030B5E5
:100A900093B016AC84E80F009DF870509DF8674045
:100AA0000CF08AFC9DF866301699009003F0010363
:100AB0002A46029301911D9B1549039405A810F045
:100AC00039FB05A810F0BCFB014605A80DF00EFD92
:100AD000ACB1651EEDB2103516AB1D440DF16704C7
:100AE00014F8012F0B4904A810F024FB04A810F0FF
:100AF000A7FB014604A80DF0F9FCAC42F0D1064872
:100B00000DF07CFF13B0BDE8304004B0704700BF6B
:100B10009C470100B8470100C412FF1F70B5134C79
:100B200004F59165264601210E200CF02BFC3220A5
:100B30000CF066FC00210E200CF024FC32200CF09E
:100B40005FFC4FF000010A4807F028F90848C4F894
:100B5000845406F049FD0028E5D1D6F884140348F2
:100B600002F010FD0028DED070BD00BF8825FF1FF9
:100B7000102AFF1F08B51E4B1B78CBB11D491E481C
:100B8000FFF762FE272001210CF0FCFB1B4B986C49
:100B9000C0B14FF40072174905F0CAF8B0F5007FF4
:100BA0001AD11749174B0120002208701A6008BD9E
:100BB0004FF4007210490F480BF082FF0F4B986CF6
:100BC0000028E6D1D86C38B14FF40072094903F01F
:100BD0003DFDB0F5007FE4D00C210B480DF086FC04
:100BE0000A480DF00BFFBDE80840FFF797BF00BFB4
:100BF0006A07FF1F1C2BFF1F682DFF1F7430FF1F8C
:100C00006230FF1FB42FFF1FC0470100C412FF1F37
:100C1000204B99784A1CD2B23A2A9A701BD05B2A90
:100C200026D02F392A2984BF30229A705A783A2A3E
:100C300016D05B2A23D0303A2A2A84BF30229A70F9
:100C40001A783A2A11D05B2A20D0303A2A2A84BF57
:100C500030229A70704741229A705A783A2AE8D125
:100C600041225A701A783A2AEDD141221A707047FF
:100C70005A780132D2B230215A709970D7E71A7877
:100C80000132D2B230211A705970DAE730221A706C
:100C9000704700BFA82AFF1F2DE9F047864D874EF9
:100CA00082B0681C40F23A2200210FF0E7FF05F104
:100CB00001080023C8F1110905F23A272C463380B8
:100CC00009EB04000CF072F904F8010FA742F7D108
:100CD0007B4CC4F51277023704F12A0938190CF05D
:100CE00065F904F8010FA145764BF7D1764CDFF892
:100CF00018A22068C8F8120193E80700A488AAF88F
:100D000004400AF106071C4603C754F80A0F3A804C
:100D10006168A268E3686D4FDFF8F0E10FC72069F2
:100D20006169A269E3690FC7BEE80300A7F1210466
:100D30009EF80020C8F8220107F1FF398AF8182030
:100D4000CAF8141027460AF1190A17F8012F60494A
:100D500001A810F0EFF9BDF804302AF8023BB945BC
:100D6000F3D170200EF06EF95A4F824608F0BEFFA4
:100D70005948C7F800A010F063FA57490246504698
:100D800009F09EF83868514909F0BCF83868534FAB
:100D900070210EF059F9524B03CB1B78C8F86B0148
:100DA000093707F8013C47F8051C14F8012F48499A
:100DB00001A810F0BFF9BDF8043027F8023BA145A7
:100DC000F3D1002347484149474F1A4600F29E2479
:100DD0000AF0ECF9454B93E80300C8F8B40188F831
:100DE000B81104F1400814F8012F394901A810F096
:100DF000A1F9BDF8043027F8023BA045F3D13C48E7
:100E00000DF0FCFD3B4B196821B343233A4A3B48A4
:100E100002F074FBF0B1394F002402E004F088FFC7
:100E200001342D4810F00CFAA0424FF0010201A944
:100E30003DD9BB6C15F8010F8DF804001846002B46
:100E4000ECD1FB6C012201A91846002BE8D003F07D
:100E5000FDFBE5E735212A480DF048FB24480DF05D
:100E6000CDFD254810F0ECF9014623480DF03EFB7E
:100E70001F480DF0C3FD172122480DF037FB1C4819
:100E80000DF0BCFD144810F0DBF9014612480DF0DE
:100E90002DFB17480DF0B2FD40F23A2200210E481A
:100EA0000FF0ECFE0023338002B0BDE8F08713485A
:100EB00002F010FBDFE700BFDF30FF1F6430FF1FD1
:100EC000AB2AFF1FAC2AFF1FD04701003C1DFF1FAC
:100ED000E4470100402AFF1FE030FF1F4B32FF1F95
:100EE000EC4701005C1DFF1F9932FF1F48480100BD
:100EF000C412FF1FB433FF1F3C33FF1F6433FF1FB7
:100F000010480100F8470100F231FF1FD8470100E7
:100F100030B5754B1B7895B0002B52D0734C744A8A
:100F200023680193019B11685B1A312B00F2C0808A
:100F3000704B1B78002B2ED023686F4A0793079BBA
:100F400011686A485B1A312B00F2C0806B4B1B782A
:100F50005BB123686A4A0D930D9B116863485B1A65
:100F6000312B00F2968015B030BD664B1B78002BFC
:100F70006AD02368644A0F930F9B11685B485B1A21
:100F8000B3F5FA7FEFD3614C01682378109183F0B9
:100F90000103109984E05E4B1B78002B40D023683E
:100FA0005C4A0993099B116850485B1AB3F5FA7FB4
:100FB000CCD3594D01682B780A9183F001030A992B
:100FC0008BE0564B494C1B78B3B12368544A0393CA
:100FD000039B11685B1AB3F5FA7FA9D351482168C6
:100FE0000378049183F00103049D037019460620E1
:100FF00015600CF0C7F99BE723684B4A0593059BE6
:1010000011685B1AC82B93D923680693069B454D3C
:1010100013600123194606202B700CF0B3F987E703
:10102000226842490B920B9A0868304D121AC82A5E
:101030008CD92A680C920C98374A0860194605200A
:1010400013700CF09FF981E7226839491192119AC7
:1010500009682648521AB2F5967F84D3026835494A
:101060001292129A0968521AB2F5967FFFF47BAF7A
:10107000026831491392139A0968521AB2F5967FA1
:10108000FFF471AF214A19460E2013700CF07AF963
:1010900069E71E4C016823780E910E9983F00103D5
:1010A00011600E20194623700CF06CF915B030BD9C
:1010B0001C4821680378029183F00103029D0370AC
:1010C0001946062015600CF05DF931E7124D0168F4
:1010D0002B780891089983F00103116005201946C7
:1010E0002B700CF04FF931E75033FF1F589AFF1F58
:1010F0004830FF1FD630FF1F202DFF1FB424FF1FD5
:10110000742FFF1F6825FF1F1C33FF1F242DFF1F97
:101110004430FF1F4C30FF1FC430FF1FCC30FF1F77
:101120007425FF1F302DFF1F1C2DFF1F702FFF1F69
:101130009820FF1FA024FF1F9C22FF1F2DE9F043D2
:1011400040F6010095B00BF031FFCA4ECA4C33692E
:1011500020700025C94A717B04924FF0120E0124C1
:10116000132718462A460594039500952B46CDF87B
:1011700008E001970AF04EFC32466021C04809F0B1
:10118000D3FC002800F0AA822E21BE48DFF88C8311
:10119000BD4FBE4EDFF888930DF0A8F9BC480DF0A6
:1011A0002DFC2946B64809F063FE22462946B4487C
:1011B00009F098FD1421B7480DF098F9B4480DF0E6
:1011C0001DFCB54BB5481D704FF480710DF0ECFD62
:1011D00021462A200CF0EAF8214629200CF0E6F8F6
:1011E000214628200CF0E2F829462A200CF0CAF803
:1011F000294629200CF0C6F8294628200CF0C2F810
:10120000214606200CF0D2F8214605200CF0CEF83D
:1012100021460E200CF0CAF8214627200CF0C6F813
:101220009F4B88F80040214606201C703C700CF053
:10123000A9F898F8001005200CF0A4F839780E20D1
:101240000CF0A0F802211C200CF0B0F8954996484B
:1012500008F0A4FA9549944808F0A2FA94499248F3
:1012600008F0A0FA9349904808F09EFA92498E48F7
:1012700008F09CFA32218C4808F08AFA4FF4FA619F
:10128000894808F089FA4FF4FA71874808F082FA21
:10129000FFF7C6FA1721894806F1100534460DF00C
:1012A00025F914F8012F864909F8012F06A80FF037
:1012B00041FF06A80FF0C4FF014606A80DF016F97D
:1012C000A542EED172480DF099FB7E4B7E4A13F891
:1012D000011F02F8011FB342F9D17C4A7C487D4CC2
:1012E0007D4D802108F07CFE7C4B0FCB85E80F0004
:1012F0000021A4F1FF000AF04DF8132178480DF009
:10130000F5F8634804F140050DF078FB14F8012F5F
:101310006B4906A80FF00EFF06A80FF091FF0146DB
:1013200006A80DF0E3F8A542F0D159480DF066FB90
:101330006C49002423460822A1F58070009409F02E
:1013400071FF1B2168480DF0D1F823464FF6FF725C
:101350005F494B48654C09F09BFF654B186859681D
:101360009A68DB680FC4A4F11105013C15F8012F40
:10137000534906A80FF0DEFE06A80FF061FF0146F4
:1013800006A80DF0B3F8A542F0D141480DF036FBA8
:101390000121584807F0A6FB00240121564807F018
:1013A000A1FB23462146554A5248009407F098FD78
:1013B0002346524A50480094214607F091FD0121EE
:1013C0004C4807F027FC01214B4807F023FC012182
:1013D000484807F09BFB0121474807F097FB484B23
:1013E00048489A7B082142F001029A73D97308F0A9
:1013F00019FC08F00FFC022800F078811B214248FC
:101400000DF074F822480DF0F9FA012008F018FCEC
:1014100008F0EEFB044608F0DBFB054608F0C8FBCD
:10142000814608F095FB064608F0A2FB074608F047
:10143000AFFB80460BF0C0FF344BCDF8009019682D
:10144000CDF80C80401A2B46224631490490029771
:1014500001963048304C0FF06DFE2E480FF0F0FE34
:1014600001462C480DF042F809480DF0C7FA04F582
:10147000916557E0249AFF1F6A07FF1FA0860100AD
:101480005C1DFF1F50480100242DFF1F9B2FFF1FD5
:10149000C412FF1F804801006230FF1FA424FF1FF9
:1014A000302DFF1FD5270000442AFF1F8D1E00008E
:1014B0007D040000850400009904000098480100A4
:1014C000E44701008B2FFF1F332DFF1FB824FF1FA0
:1014D0000C2BFF1F5B1EFF1F5433FF1F342DFF1FFC
:1014E000584A01005C1EFF1FD0480100582DFF1F05
:1014F0005B20FF1F0434FF1FEC66FF1FD499FF1F02
:10150000B82FFF1FD9040000EC480100C830FF1FAE
:10151000244901001830FF1F8825FF1FC430FF1F1A
:101520000B2BFF1FA94BAA4A1A6028464FF0000157
:1015300006F034FC2846C4F8845406F055F8002818
:1015400000F02081A349A448FFF758F9FFF7E6FA15
:101550001821A2480CF0CAFFD4F87834A04A002B16
:1015600000F00881D969013900230A229A480DF058
:101570006BFA99480DF042FA17219A480CF0B6FF21
:10158000D4F87804964B002800F0EC8005F04CFB72
:10159000014600230A2290480DF056FA8E480DF0BD
:1015A0002DFAD4F878048E4B002800F0CA8005F09C
:1015B0003BFB41F28733984240F2CD808A4B8B4807
:1015C0001C6017210CF092FF894E042528460BF071
:1015D000EDFC0135082D06F8010BF7D1844E30469D
:1015E000FFF744FA002800F0D680824E374628469E
:1015F0000BF0DCFC01350C2D07F8010BF7D17D4D0C
:101600002846FFF733FA08B97B4B2B600C200BF010
:10161000CDFC7A4D28700D200BF0C8FC68700E20B0
:101620000BF0C4FCA8702846FFF720FA002800F051
:10163000B880052172480CF059FF67480DF0DEF9BB
:101640006B4B6E4A6F4970480FF074FD17216F485D
:101650000CF04CFF6C480FF0F3FD01466A480CF0AB
:1016600045FF5D480DF0CAF9614B644A6849009630
:1016700068480FF05FFD5E4B0096604A6649674818
:101680000FF058FDD4F87854554B002D48D029461A
:10169000012300255F4A8DF8185006A88DF81950CF
:1016A0008DF81A5004F00CF9054625B343200BF0D1
:1016B000B3FB07EE900AFAEEEF7A594C59494648C7
:1016C000FDEEE77A17EE902AC4ED007A0DF0AEF940
:1016D000554B01221A7015B0BDE8F0831F21534805
:1016E0000CF004FF3C480DF089F9FEE750493A48F8
:1016F000FFF784F889E6D4F87814394B002953D0E1
:1017000006A80123454A8DF818508DF819508DF818
:101710001A5004F0D5F80028C8D0FFF7BDFAC5E785
:10172000D3F87C140029C1D001233A4A8DF84950DE
:1017300006A88DF84A508DF84B5002F04FFC054634
:10174000B3E7D3F87C0430B103F06EFE41F2873387
:1017500098423FF633AF37491F48FFF74FF8FFF77E
:10176000DDF92BE7D3F87C0400283FF411AF03F038
:101770005BFE0DE7D2F87C1400293FF4F5AED1F8FA
:101780002814F1E6D4F88414204601F0FBFE00286A
:101790003FF4D8AEDCE6284B1B6833801B0CB370DB
:1017A00023E7264B2B6044E7D3F87C1400293FF451
:1017B0007DAF06A80123194A8DF849508DF84A508B
:1017C0008DF84B5002F00AFCA5E700BF0034FF1F64
:1017D000F104000048490100C412FF1F78490100CC
:1017E0008825FF1F94490100B433FF1FE049010021
:1017F0006C25FF1FA82AFF1F30303000082BFF1F69
:10180000FC490100044A0100D030FF1F0C4A0100CE
:10181000244A01003C33FF1F304A0100442DFF1FC2
:10182000D42FFF1F3C4A01006B07FF1FB048010087
:1018300008490100AC490100F84901004353550033
:101840002DE9F04F092185B08248834C834E844DA9
:101850000CF04CFE7F4B228803CB1F78B050B3189E
:1018600002F1090EA4F800E005F1200959601F7289
:10187000AA461AF8012F7B49DFF8DC81774F03A8CD
:101880000FF058FC03A80FF0DBFC014603A80CF096
:101890002DFE2388BDF80C20F252CA4503F1020345
:1018A0002380E6D170200DF0CDFBDFF8F4A1834654
:1018B00008F01CFA3846CAF800B00FF0C1FC3946EF
:1018C0000246584608F0FCFADAF80000664908F0CB
:1018D00019FBDAF8000070210DF0B6FB092163480E
:1018E0000CF004FE614AB8F8003003CA07EB030E9F
:1018F000F85012788EF808200933CEF80410A8F8B2
:10190000003015F8012F5749DFF84C81534F03A8D9
:101910000FF010FC03A80FF093FC014603A80CF095
:10192000E5FD2388BDF80C20F2524D4503F102037A
:101930002380E6D10023DFF86C914B494C484D4D94
:101940001A4609F033FC484605210CF0CFFDB8F8E3
:101950000030D9F80000F8501F4499F804203A717B
:101960000533A8F8003005F1400715F8012F3D496F
:1019700003A80FF0DFFB03A80FF062FC014603A8E9
:101980000CF0B4FD2388BDF80C20F252AF4203F1F5
:1019900002032380E9D138480DF030F8374B00932B
:1019A0003749384B384A39480FF0C4FB384B19686F
:1019B00029B34323354A374801F0A0FDF8B1364E2C
:1019C000344F002502E004F0B3F9013523480FF04D
:1019D00037FCA8424FF0010203A936D9BB6C16F8B8
:1019E000010F8DF80C001846002BECD1FB6C012286
:1019F00003A91846002BE8D002F028FEE5E70E21E7
:101A000026480CF073FD1C480CF0F8FF1F480FF03F
:101A100017FC01461D480CF069FD17480CF0EEFF5D
:101A20000E480FF00DFC01460C480CF05FFD12480B
:101A30000CF0E4FF40F23A22002108480FF01EF9B2
:101A40000023238005B0BDE8F08F124801F042FD6D
:101A5000E6E700BFD84701006430FF1FE030FF1FFA
:101A60003B1DFF1FE44701003C1DFF1FEC47010029
:101A70005C1DFF1FFA1FFF1FC412FF1FA82AFF1FB4
:101A8000244A01006C25FF1F082BFF1F3C33FF1F5A
:101A9000B433FF1F6433FF1FDF30FF1F6C4A0100A8
:101AA000402AFF1F484801002DE9F0477B4FDFF82F
:101AB000488286B00BF080FC3B78C8F80000002B11
:101AC00000F0D280764B1B68072B40F2D080754D1A
:101AD000754C76484FF4FE72214608F0F3F8C4F8CE
:101AE000FC01FFF747F8724A936C002B00F0D0809E
:101AF000DE696F48DFF804A2DFF8049201F0EAFC27
:101B00006C480CF07BFF1C216B480CF0EFFC0BF0D9
:101B100053FCD8F800100023411A0A2265480CF043
:101B200093FF64480CF06AFF0BF046FC03ACC8F866
:101B300000000422082161480BF080FA324620465A
:101B40005F49604E0FF0F6FA94E80700534603C36E
:101B500028681A805C494FF4007208F0B1F92868CF
:101B60005A4908F0CFF92868584D70210DF06CFAE9
:101B70000FCDCAF80A00CAF80E10CAF81220CAF827
:101B800016300FCDCAF81A00CAF81E10CAF8222063
:101B900050462A2240F24A21CAF826300BF04EFA6B
:101BA00042214B484B4D0CF0A1FC0BF005FCD8F842
:101BB00000100023411A0A223E480CF045FF3D4820
:101BC0000CF01CFF0BF0F8FB0621C8F8000048469B
:101BD0000CF08CFC3388B9F80410D9F80000E850F8
:101BE000EA1820460633918033800FF029FB014626
:101BF00020460CF07BFC03CC33882288E8501D443F
:101C00000A332A8169603380334D344EFFF718FE62
:101C1000DFF8F0E0DFF8F0C0314A324800240094E9
:101C20002346CEF80040214634602C608CF80040FA
:101C300007F056F921462346294A00942A4807F01E
:101C40004FF943203C700BF0E7F807EE900AFAEEEC
:101C5000EF7A264C26491748FDEEE77A17EE902AD0
:101C6000C4ED007A0CF0E2FE06B0BDE8F0879C01FE
:101C700015490C4D1F48C4F50074224601EB831131
:101C80000AF01EFF224628681A4908F019F91FE7D2
:101C9000D66C002E3FF42DAF36692AE76230FF1F65
:101CA000B42FFF1F402AFF1F682DFF1FD02FFF1FDB
:101CB0007430FF1FC412FF1F7C4A0100A82AFF1FB7
:101CC0009C4A01006430FF1F1C2BFF1F3C1DFF1F9F
:101CD000A44A0100E030FF1F7030FF1F7C25FF1F6A
:101CE000D499FF1F0434FF1FEC66FF1FD42FFF1F82
:101CF0003C4A01009C20FF1F2033FF1FAC2AFF1F1E
:101D0000D04701007825FF1F6C2FFF1F10B5214B16
:101D10009A6C8EB0002A36D01F4BD3F87844CCB1E1
:101D20002146012300241D4A8DF8004068468DF8A5
:101D300001408DF8024003F0C3FDD8B1184B19687B
:101D400021B10123154A134801F0D8FBFEF70CFD21
:101D50000EB010BDD3F87C1461B101230F4A8DF889
:101D6000314068468DF832408DF8334002F036F944
:101D70000028E3D11B210B480CF0B8FB0A480CF0FB
:101D80003DFE0EB010BDDB6C002BC5D1FFF78CFE05
:101D9000C2E700BF7430FF1F8825FF1F442DFF1FBF
:101DA000B433FF1F80470100C412FF1FF0B5334B4F
:101DB0009A6C8FB00746002A59D0314DD5F8784437
:101DC000BCB121466846002401233A466E468DF890
:101DD00000408DF801408DF8024003F071FDD0B94C
:101DE0001B2128480CF082FB27480CF007FE0FB09F
:101DF000F0BDD5F87C140029F2D0684601233A469C
:101E00006E468DF831408DF832408DF8334002F047
:101E1000E5F80028E4D0D5F87844194B94B1214670
:101E20003A460024022330468DF800408DF80140E8
:101E30008DF8024003F044FD0028D8D0304604F06D
:101E400033FAD4E7D3F87C140029D0D03A460223E1
:101E500030468DF831408DF832408DF8334002F035
:101E6000BDF80028C3D0304602F0C4F9BFE7DB6CF0
:101E7000002BA2D1FFF718FE9FE700BF7430FF1FB1
:101E80008825FF1F80470100C412FF1F08B5FFF718
:101E90000BFEBDE80840FFF751B900BF2DE9F04344
:101EA0008BB007F0A5FE044607F092FE054607F04A
:101EB0007FFE804607F04CFE064607F059FE0746B7
:101EC00007F066FE854A864BCDF8008043F2E42198
:101ED000039050585958049122462B468149029745
:101EE000019605908048814C814E0FF023F97E4881
:101EF0000FF0A6F901467C480CF0F8FAB4F800C0DF
:101F0000DFF8E4E106EB0C070EF1200875460FCD73
:101F1000454538607960BA60FB60AE4607F110074E
:101F2000F4D1286838600CF1240C7248A4F800C081
:101F30000FF086F96F4FDFF8DC816F4D01466D4879
:101F40000CF0D4FA07CF2388F718F0500C337960DF
:101F50004046BA60042123800CF0C8FA2388D8F8E0
:101F60000000F0500433238005F1090915F8012F12
:101F700062495E4FDFF8788109A80FF0DBF809A805
:101F80000FF05EF9014609A80CF0B0FA2388BDF8FD
:101F90002420F252A94503F102032380E6D1DFF8A1
:101FA0007891574D484604210CF0A0FA3B88D9F8A7
:101FB000000048F8030004333B8005F11008514F3E
:101FC00014E02A780FF0B6F809A80FF039F90146A5
:101FD00009A80CF08BFA2388BDF82420F2520135B1
:101FE000023345452380414A414B0AD03B7843495F
:101FF0001A4609A8002BE4D1404909A80FF09AF825
:10200000E2E7DFF8188107934046052106920CF0BD
:102010006DFA069A079B1188D8F8000058503A4D7F
:1020200098F804E00B44053183F804E0118005F1D1
:10203000100814E02A780FF07DF809A80FF000F9D5
:10204000014609A80CF052FA2388BDF82420F25268
:102050000135023345452380244A254B0AD03B787D
:1020600026491A4609A8002BE4D1244909A80FF0F3
:1020700061F8E2E7254F07933846052106920CF0F8
:1020800035FA069A079B118838685850204D3F79D9
:102090000B4405311F71118005F1400715F8012F20
:1020A000164909A80FF046F809A80FF0C9F801462B
:1020B00009A80CF01BFA2388BDF82420F252BD4277
:1020C00003F102032380E9D140F23A2210210848AB
:1020D0000AF0B4FF0BB0BDE8F08300BFEC66FF1F51
:1020E0000434FF1FE84A01001830FF1F6430FF1F4F
:1020F000E030FF1F442DFF1FAE1FFF1FE44701000C
:10210000342DFF1F6A07FF1F582DFF1F284B0100AA
:10211000BA1FFF1F104B0100184B0100204B01009C
:1021200010B52F492F4B84B00022012470200C6081
:102130001A700CF087FF044607F0D8FD2A4B1C608C
:10214000FEF766FD294B009329492A4B2A4A2B4862
:102150000EF0F0FF2A4B196829B14323274A29487A
:1021600001F0CCF930BB0E2127480CF0BFF927480D
:102170000CF044FC21480FF063F801461F480CF0B6
:10218000B5F922480CF03AFC1E4B214A9C6C042104
:102190001180B4B10021204603F0A4FC68B91D4BA6
:1021A0001D4A1B68039303991C4B116001221A708E
:1021B00004B010BDFFF772FEE6E7204603F07CFD99
:1021C000EDE7DC6C002CEAD000220023204601F071
:1021D00009FC0028E3D0204602F0C6F9DFE700BF83
:1021E000282DFF1F6230FF1F402AFF1FA82AFF1F54
:1021F000304A01006C25FF1F082BFF1F442DFF1FD5
:10220000B433FF1F7430FF1F6C4A0100C412FF1F5C
:102210006030FF1F589AFF1F542DFF1F6C2FFF1FA8
:10222000F0B5424B1B7883B0002B69D00BF0C4F89B
:102230003F4ADFF83CE13F4B3F4C404F404E0546A4
:1022400092E803001860DEF80000C4F8DF01386887
:102250003C4AC4F8E30130681971C4F8E70104236B
:10226000394E3A481380266007F024F884F8EB01D1
:102270003748384E07F01EF8002784F8EC01334841
:1022800084F8ED7107F01CF884F8EE01304807F08F
:1022900017F8314B84F8EF0103CB4FF4FE72C4F80A
:1022A000F101C4F8F5112D4884F8F071214607F0CA
:1022B00009FDC4F8FC01FEF75DFC33680133B3F59A
:1022C000E11F33601FD24FF40072FF211A48244EE1
:1022D0000EF0D4FC0BF070F802AA401B019033788A
:1022E00032F8040D1F499278A4F8F90183F0010334
:1022F0008A700520194633700BF044F803B0F0BD26
:10230000FFF70EFF92E7112117480CF0EFF83B465C
:102310000A22316815480CF097FB14480CF06EFB4C
:102320003760FFF7C1FBFEF709FFCCE76C2FFF1FFB
:10233000444B01006830FF1F682DFF1F7C25FF1FE5
:102340007030FF1F6030FF1F43414E320434FF1FC7
:10235000EC66FF1F282DFF1F442DFF1FD02FFF1FEE
:10236000C430FF1F612FFF1F304B0100C412FF1F3D
:102370007825FF1FF0B5474B474D1B7885B0002BE4
:102380005BD1464A46491378096803914549039849
:10239000086083F001031946062013700AF0F2FF6B
:1023A000414A424E2B881278F25401332B8007F0B9
:1023B0007FFB04AA2B8842F80C0D3D4C1068F050AE
:1023C000191D89B203F108026068705092B220684A
:1023D000E77BB0500C332B800AF0EEFF354A2B8898
:1023E0001268D4F800E0801A04A920F07F403F066C
:1023F000074341F8087D1A1D0868F050103403CCDB
:1024000092B20C33B4189BB21EF0005F2B80B05018
:10241000214D616006D1B3F5ED7F01D9FFF700FFD3
:1024200005B0F0BD244A137883F0010319460E204D
:1024300013700AF0A7FF2B88EDE70AF0BDFF2B8889
:102440001E4A1F4C191F82FB0123CA17C2EB23121D
:10245000322303FB12132060002B92D1194C216808
:1024600007298ED8184A194B02EB8112013A03F161
:10247000400012F8011F03F8011F8342F9D1144BE9
:1024800014491868402207F01BFD236801332360BC
:1024900077E700BF6230FF1F6030FF1F302DFF1F46
:1024A000589AFF1F542DFF1FB02FFF1F682DFF1FCD
:1024B0002433FF1FC830FF1F242DFF1F1F85EB5142
:1024C0002033FF1FB42FFF1F1C2BFF1FD72FFF1F11
:1024D000402AFF1FD82FFF1F30B5364B1B7887B01F
:1024E0000546002B56D1344B344C1B78002B42D17F
:1024F0002368324913F0005412D0314B1B78002B63
:1025000032D1304A1368013313602F4A137883F0B5
:10251000010319460E2013700AF034FF07B030BDD6
:102520002A4A10461A408242F8D10B7C03F0F0038D
:10253000102BF3D1224B26481B78264944740325DF
:1025400030228474C5730160027433B3012BE5D16A
:10255000214B224A1B680593059B12689B1A012B8D
:10256000DCD9FEF73FF8D9E7012BCED11C4A13681E
:1025700001331360C9E7039504F1100393E80300E6
:102580000F4A137802938DE8030094E80F00FEF7DA
:102590007DFAADE7FFF7EEFEA5E70F4B114A1B688A
:1025A0000493049B12689B1A012BB7D9FDF7FEFF19
:1025B000B4E700BF6B07FF1F6330FF1F2433FF1F0B
:1025C000B02FFF1F3C30FF1F242DFF1F00F9DA0042
:1025D000B82FFF1FF900DA18589AFF1FA024FF1F19
:1025E0004030FF1F9820FF1F10B582B002A80024C2
:1025F000012200F8014D40F601010AF01FFD054BD4
:10260000214627201C700AF0BDFEFFF74DFA02B0EC
:1026100010BD00BF6A07FF1F10B582B002A80124D9
:10262000224600F8014D40F601010AF007FD054B76
:10263000214627201C700AF0A5FEFFF735FA02B0EC
:1026400010BD00BF6A07FF1F454BD3F878042DE982
:10265000704300286FD0C469057904F0E5FA013CA5
:10266000064618213F480BF041FF00230A2221466D
:102670003D480CF0E9F93C480CF0C0F917213B4803
:102680000BF034FF00230A22314637480CF0DCF906
:1026900035480CF0B3F9152135480BF027FF00231E
:1026A0000A22294630480CF0CFF92F480CF0A6F941
:1026B000112130480BF01AFF28460DF017FA80461A
:1026C000894630460DF012FA42464B460DF084FA28
:1026D00000224FF081430DF07FFA1FA3D3E90023BE
:1026E0000DF0A4FB41EC100B02211F480CF0F4F993
:1026F0001D480CF083F912211F480BF0F7FE20460D
:102700000DF0F4F942464B460DF066FA00224FF008
:1027100081430DF061FA10A3D3E900230DF086FB8D
:1027200041EC100B022110480CF0D6F90E48BDE820
:1027300070430CF063B9D3F87C0448B190F83D3491
:10274000D0F8284401259D4002F06EFE064688E739
:1027500005460446064684E70000000080842E41BA
:102760008825FF1F78490100C412FF1F944901000A
:102770004C4B0100644B0100784B010000B50E4B3F
:102780000E4A1B680E4883B0019301990D4B1160EE
:10279000012200211A7006F03DFA00210A4806F0D5
:1027A00039FA102109480BF0A1FE09480CF026F96E
:1027B00003B05DF804FB00BF589AFF1F8025FF1F80
:1027C0000434FF1F512DFF1FEC66FF1F8C4B0100CF
:1027D000C412FF1FFFF7D2BF10B50B4A0B4C0C48B9
:1027E000002301212370137006F014FA0121094817
:1027F00006F010FA112108480BF078FE0748BDE8F2
:1028000010400CF0FBB800BF7025FF1F512DFF1FBB
:102810000434FF1FEC66FF1FA04B0100C412FF1F12
:1028200038B517210F48104C0BF060FE43F2E42539
:102830000E4B0A225959204600230CF005F9204678
:102840000CF0DCF817210A480BF050FE094B20462B
:1028500059590A2200230CF0F7F82046BDE8384009
:102860000CF0CCB8D44B0100C412FF1F0434FF1F7E
:10287000EC4B0100EC66FF1F10B514210E480F4C05
:102880000BF034FE0E4B0A221968204600230CF090
:10289000DBF820460CF0B2F814210A480BF026FEB3
:1028A000094B204619680A2200230CF0CDF8204677
:1028B000BDE810400CF0A2B8044C0100C412FF1F88
:1028C0003C30FF1F1C4C01004030FF1F70B586B02C
:1028D000FFF7EAF8184B194C194E00256420C3F88D
:1028E0007854C3F87C540AF08BFD2946204605F045
:1028F00055FA2046346004F077FE40B111211148AA
:102900000BF0F4FD10480CF079F806B070BD0E4BDA
:102910000E4A316801A802F077F804210C480BF048
:10292000E5FD09480CF06AF864200AF069FDFEF73D
:10293000F5F806B070BD00BF8825FF1FD82AFF1F1D
:10294000682FFF1F344C0100C412FF1FA022FF1F7D
:10295000484C01002DE9F041AC4C90B00AF02CFD40
:102960002368C01AB0F57A7F00F29281A849A9487D
:1029700006F01EFC002840F03E81A549A64806F05E
:1029800017FC002840F02C81A44CA54D236801932E
:10299000019B2A689B1AB3F57A7F04D3A14B1B785D
:1029A000002B40F00B81FEF7B3FA9F4A1378002BFF
:1029B00000F09B809D4F3B78022B236800F205813D
:1029C0009B4A0393039B106894491B1AFA2B54D912
:1029D0000B68984D05930598DFF898E209682B88F5
:1029E000954E0491DEF800C036F81330049910605B
:1029F0009248DFF894E20374CCEB01021B0A032136
:102A00004374012A4FF00003C173C0F800E08374DF
:102A100001D9FDF7CBFD8A4B1B6853B12368894A66
:102A20000693069B12689B1A012B02D98348FDF777
:102A3000D9FD854A137883F0010319460E201370DF
:102A40000AF0A0FC2B887B4A01339BB21A2B40F280
:102A50002F813B787D4D013300243B70148020464C
:102A60001B210CF08FF9013436F8102035F8023FA5
:102A70002A801B2C26F81030F1D10BF00DFD012817
:102A80002DDD78230A220CA871490CF021F90CA93C
:102A900070480CF0F3F90CA80CF07EF96E490CA804
:102AA0000CF0BAF90CA96B480CF038FA04460CA8E3
:102AB0000CF072F9002C7ED168490CA80CF0ACF92E
:102AC0000CA964480CF02AFA05460CA80CF064F92D
:102AD000002D00F0EF80624B1C700BF0EBFC6148A6
:102AE00006F0EEFE10B0BDE8F0815F4A11780029D3
:102AF000C3D05E4F3978022900F2D78023685C4A40
:102B00000893089B116845485B1AFA2BB5D90368EE
:102B1000484D0A930A9E574900682B88DFF86C815C
:102B20000990D1F800E0454838F81330099916604B
:102B30004374CEEB01021B0A4F4E8374082102231B
:102B4000012AC1730660037401D9FDF72FFD3C4BC8
:102B50001B6853B123683B4A0B930B9B12689B1A6B
:102B6000012B02D93548FDF73DFD374A137883F034
:102B7000010319460E2013700AF004FC2B882D4A1D
:102B800001339BB2082B40F293803B783B4D2A4E99
:102B9000013300243B701480204609210CF0F2F828
:102BA000013435F8023F36F810202A80092C28F825
:102BB0001030F1D161E7FFF7A9F88EE7FEF774FF57
:102BC00023680293029B2B60EDE60793284B07983E
:102BD000254918600023012008703B7013704CE7F2
:102BE000174A2749136801330124184613600C70F3
:102BF000FFF772FCC8E6234A214913680133002419
:102C0000184613600C70FFF767FCB6E64C33FF1FE5
:102C10002433FF1F0434FF1FEC66FF1F589AFF1F69
:102C2000542DFF1F6C2FFF1F512DFF1F8425FF1FE9
:102C30008025FF1F1A33FF1F3407FF1FB82FFF1F08
:102C40007C25FF1FA024FF1F242DFF1F3207FF1F1D
:102C5000C412FF1FA424FF1F504C0100544C01005C
:102C60006B07FF1F442AFF1F7025FF1F8525FF1FCD
:102C70002C2DFF1F9820FF1FF9FFDA186A07FF1F8E
:102C8000B02FFF1F7825FF1FF9FFEA186C07FF1F01
:102C900043200AF0C1F8A24BA24A1B681060984278
:102CA00025DB0AF089FB206060E63B701370E4E6E8
:102CB0001380E2E69C490CA80CF0AEF80CA99B48E6
:102CC0000CF02CF904460CA80CF066F894B998495D
:102CD0000CA80CF0A1F80CA994480CF01FF90446BC
:102CE0000CA80CF059F87CB1FEF7DEFEF5E6FEF715
:102CF000DBFED6E7FEF722FA0C218E480BF0F6FB3E
:102D00008D480BF07BFEE8E68C490CA80CF084F8AB
:102D10000CA986480CF002F904460CA80CF03CF80B
:102D200014B1FFF791FCD8E685490CA80CF074F8B3
:102D30000CA97E480CF0F2F805460CA80CF02CF813
:102D4000BDB1804ED6F8780430B100F23C40234645
:102D50002246794903F084FDD6F87C0400283FF42C
:102D6000BCAE002300F588601A46734901F080F973
:102D7000B3E675490CA80CF04FF80CA96B480CF0A1
:102D8000CDF804460CA80CF007F8BCB16D4ED6F88F
:102D9000780430B12B4600F23C400E22664903F025
:102DA0005FFDD6F87C0400283FF497AE00F58860FC
:102DB00000230E22604901F05BF98EE663490CA8FE
:102DC0000CF02AF80CA959480CF0A8F804460CA8F5
:102DD0000BF0E2FF14B1FFF779FD7EE65C490CA829
:102DE0000CF01AF80CA951480CF098F804460CA8FD
:102DF0000BF0D2FF14B1FFF713FD6EE655490CA896
:102E00000CF00AF80CA949480CF088F804460CA804
:102E10000BF0C2FF14B1FFF72FFD5EE64E490CA880
:102E20000BF0FAFF0CA941480CF078F804460CA806
:102E30000BF0B2FF3CB1494B49493F4801221A709F
:102E4000FDF7DCFC49E647490CA80BF0E5FF0CA9AF
:102E500036480CF063F805460CA80BF09DFF15B141
:102E60003E4B1C7039E640490CA80BF0D5FF0CA96D
:102E70002E480CF053F804460CA80BF08DFF14B14B
:102E8000FFF77CFC29E639490CA80BF0C5FF0CA91B
:102E900026480CF043F804460CA80BF07DFF14B153
:102EA000FFF79AFC19E632490CA80BF0B5FF0CA904
:102EB0001E480CF033F804460CA80BF06DFF14B15B
:102EC000FFF7AAFB09E62B490CA80BF0A5FF0CA9FC
:102ED00016480CF023F805460CA80BF05DFF15B161
:102EE000FFF782FBF9E524490CA80BF095FF0CA92C
:102EF0000E480CF04FF804460CA80BF04DFF002CC8
:102F00003CD02946042209480CF068F82B460D22D3
:102F10000CA906480CF048F80CA8FDF7C5FCDCE548
:102F2000D42FFF1FAC2FFF1F5C4C0100A424FF1FF8
:102F3000644C0100B44B0100C412FF1F684C010037
:102F40006C4C01008825FF1F704C0100784C01007B
:102F5000804C0100884C0100904C01006330FF1F41
:102F6000C44B01009C4C0100A84C0100B44C010072
:102F7000C04C0100CC4C0100D84C01008A490CA87F
:102F80000BF04AFF0CA989480CF004F805460CA880
:102F90000BF002FF75B12146042284480CF01EF8A4
:102FA00023460D220CA981480BF0FEFF0CA8FEF76A
:102FB000FDFE92E57E490CA80BF02EFF0CA97B4884
:102FC0000BF0ACFF04460CA80BF0E6FE1CB17948F0
:102FD000FDF7BAFC81E5754C77490CA80BF01CFF96
:102FE00020460CA90BF0D6FF05460CA80BF0D4FE2A
:102FF00065B10322002120460BF0F0FFA368032BEC
:1030000041D06E496E48FDF7F9FB66E56D490CA8A5
:103010000BF002FF0CA920460BF0BCFF06460CA8E3
:103020000BF0BAFE002E5BD00622294620460BF09C
:10303000D5FF20460BF0EEFF2B460CA904222046BC
:103040000BF0B2FFA268604B60491D60032A198033
:1030500099703BD0022A32D0012A04BF9DF830205B
:103060009A705948FDF702FD20B304220821564802
:1030700009F0E4FF56495248FDF7B2FB5249504867
:10308000FDF7BCFB29E520460BF0C4FF00232046DA
:10309000042250490BF088FF042211464D4809F0E4
:1030A000CDFF4D494648FDF79BFB4A494448FDF793
:1030B000A5FB12E549494248FDF7A0FB0DE59DF847
:1030C00030109DF8312059709A70CAE79DF8300091
:1030D0009DF831109DF83220187059709A70C0E731
:1030E0003F490CA80BF098FE20460CA90BF016FFE8
:1030F00004460CA80BF050FE002C50D03949304843
:10310000FDF77CFB38492E48FDF778FB37492C4802
:10311000FDF774FB36492A48FDF770FB354928480E
:10312000FDF76CFB34492648FDF768FB334924481A
:10313000FDF764FB32492248FDF760FB3149204826
:10314000FDF75CFB30491E48FDF758FB2F491C4832
:10315000FDF754FB2E491A48FDF750FB2D4918483E
:10316000FDF74CFB2C491648FDF748FB2B4914484A
:10317000FDF744FB2A491248FDF740FB2949104856
:10318000FDF73CFB28490E48FDF738FB27490C4862
:10319000FDF734FB26490A48FDF730FB9DE425493D
:1031A0000748FDF72BFB98E4E04C0100A424FF1F27
:1031B000E84C01003C33FF1FF44C01000C4D0100B2
:1031C000C412FF1F204D0100A82AFF1F303030001D
:1031D000284D01006C25FF1FF84C0100404D0100F7
:1031E000584D0100604D01007C4D0100C04D0100B3
:1031F000104E01004C4E0100704E0100904E010037
:10320000B44E0100D84E0100004F0100384F0100BC
:103210005C4F0100944F0100C84F0100E84F0100CE
:10322000085001005050010098500100CC5001009E
:1032300010510100805101002DE9F04F93B009F0C9
:1032400069FE7F4B7F48804D804E814FDFF85CA246
:10325000DFF85C92DFF85C82002483F80F4383F888
:10326000304383F8314306F0F9FC7A4B7A49C3F8CE
:1032700098644FF0260B794EC3F878442A46C3F879
:103280007C4483F8944483F8AB44C3F8AC44C3F85B
:10329000887483F8A8B4C3F8B06418460DF020F918
:1032A0006F49704E0C714FF47A738B6001936E4BC3
:1032B0000C732A468C64CC640B60084651460DF0B2
:1032C0000FF9DFF8F4E1019BCEF808308EF80440E6
:1032D0008EF80C407046644BCEF800302A465146BA
:1032E000CEF84840CEF84C400DF0FAF8214648465A
:1032F0000BF092FD2A46414648460DF0F1F8DFF802
:10330000BC915A4801231A461C2106F00FFA2146A7
:1033100048460BF081FD2A46414648460DF0E0F84C
:103320000AF04AF8524B18600AF046F8514B186000
:103330000AF042F8504B514A19680391DDF80C909D
:1033400019680491DDF8108019680591DDF814C042
:103350001968069110604A48DDF818E0196807916D
:10336000C0F800904748DDF81CA019680891C0F823
:103370000080454808991A680992C0F800C0DFF833
:1033800040814248099AD3F80090CDF82890C8F8B7
:1033900000E0C0F800A0DFF82C81DFF82CC13C4829
:1033A000DDF828E0C8F80010CCF80020C0F800E0F4
:1033B0001A680B92DDF82CA01A680C92DDF8309098
:1033C0001A680D920D991A680E920E981A680F924B
:1033D000DDF83C801A681092DFF8F0E0DDF840C0BC
:1033E0001B681193194BCEF810302A4BCEF80070A1
:1033F0002A46294DC3F80090284B8EF820B0C5F816
:1034000000A0DDF84490DFF8C8B0254F254DC3F883
:103410000090124B8EF80C40CBF800103860C5F8C5
:1034200000C02149C6F8008070468EF82340CEF8CF
:103430002830CEF824400DF053F813B0BDE8F08FDB
:103440005C1DFF1FD02FFF1F3007FF1F105401000E
:10345000685401008825FF1F810400000320003804
:103460007430FF1F702FFF1F5C470100442AFF1FAD
:10347000C830FF1F2033FF1F589AFF1F4C33FF1F18
:103480007425FF1F1C33FF1F4C30FF1F742FFF1FBD
:10349000A024FF1F8025FF1F9C22FF1F782FFF1FE6
:1034A000542DFF1F1C2DFF1F79040000AD040000E8
:1034B0005030FF1F99ED00006433FF1FA424FF1F4D
:1034C0004830FF1F202DFF1F9820FF1FD82AFF1F05
:1034D0002C2DFF1F10B50446806C28B102F062F954
:1034E00010B10023A36410BDE06C28B100F0BCF85B
:1034F00010B10023E36410BD002010BD00293BD0B3
:103500002DE9F0410C46054698461746FFF7E2FFC5
:10351000D4F87864B6B105F11001242005F03EF925
:103520000021017041708170D4F87814A86443467A
:103530003A4602F0C5F910B10120BDE8F081A86457
:10354000BDE8F081D4F87C34C3B105F11001382016
:1035500005F024F980F8316080F8326080F833603B
:10356000D4F87C14E86443463A4600F037FD00285E
:10357000E2D1E864BDE8F081002070470020BDE89A
:10358000F08100BF70B500260546C0F88014C0F871
:10359000786401464FF48F6005F000F904464660F8
:1035A00001F0F6FCC4F8106204F5037001F0F0FCC1
:1035B00084F83C6484F8716484F8726484F87364F9
:1035C000D5F88064C5F87C4431462046012201F0DC
:1035D000A7FD68B104F58866304600F045F821463D
:1035E000304600F0ADF850B11E4B01201D6070BD9B
:1035F00002463146204601F093FD0028EAD100261C
:10360000C5F87C6429464FF48C6005F0C7F8C67194
:1036100080F83C6480F83D6480F83E64D5F88064AE
:10362000C5F8780401223146044603F055FB80B109
:1036300004F23C46304602F0B5F82146304602F02E
:1036400047F90028D0D1074B00201860C5F878044E
:1036500070BD02463146204603F03EFB0028E7D10C
:10366000F1E700BFB433FF1F10B5044600F0D6FEEB
:10367000002384F8313084F8333010BDF0B5087879
:10368000202803D111F8010F2028FBD051600878C1
:10369000002851D02F282BD05C2820D0A0F1220464
:1036A000E4B21D2C1DD9DFF894E04E1C00247C28C8
:1036B000A0F12005374612D05E2D10D816F8010B68
:1036C000A0F12205EDB2013478B32F2811D05C2887
:1036D0002EFA05F703D01D2DE9D8FD07E7D5002008
:1036E000F0BD164D25FA04F4E607DCD50020F0BD48
:1036F00000240F193E4625462F2002E016F8010F40
:1037000001352028FAD02F28F8D02944196044B177
:10371000394611F8013D2E2B01D0202B08D1013C58
:10372000F7D1204610600120F0BD1F600F19EFE7B0
:10373000FF2CF6DD0020F0BD1960F3E70101003534
:1037400090F831200AB10020704738B504460D4684
:10375000114638220DF092FA4023012084F83130CE
:1037600084F83300256238BD2DE9F04700F12403C9
:1037700007468A4693E8070084B097F831300DF188
:10378000040888E80700002B3AD097F83030012B66
:1037900036D94FF001090024B9F1010F14BF2022DE
:1037A00040224146386A01F0B7FD012828D10022A5
:1037B0004146386A01F096FD10B30378C12B1FD142
:1037C000054604F10F0635F8021FA9B1DAF80030FA
:1037D0007E2994BFC9B23F211B68013450469847E7
:1037E000A642F0D109F1010997F830305FFA89F962
:1037F0004B45D1D8304600E0204604B0BDE8F08704
:10380000002004B0BDE8F0872DE9F04790F8333090
:103810000446D80782B040F1B2800D4659061646DC
:1038200040F1B880D4E90001D4E9042310EB060884
:1038300041F100094B4508BF4245C0F0B180002E60
:1038400000F0B080A146F9E80623B04655E01343E6
:1038500071D194F831305B064CBFD0F82C14E1697B
:10386000A16190F83DE4D0F8243402397F0A01FACE
:103870000EF2F9181144BAF1000F48D1B8F5007FE3
:1038800045D3D0F81432994241D0B8F5806F59D35E
:1038900094F8332052064FEA582A07D4012202FA3C
:1038A0000EFEC7EB0E07BA4528BFBA4699424FEA4B
:1038B0004A270CD30AEB01029A4208D900F503709B
:1038C000019101F0CBFB002859D0206A0199D0F872
:1038D000380402685346D2F80CA02A46D047002884
:1038E0004DD038460021D4E9002312184B41B8EBE3
:1038F00007083D44C4E9002354D0206AD0F830744E
:103900001740C7F3080A002FA1D0A169A9E700F565
:103910000370002201F042FB88B3CAF500774745E7
:1039200028BF474600EB0A013A46284609F0C8F886
:1039300038460021D7E794F8333059060FD5A169EE
:1039400001318DE7D0F8380403682A469B68984710
:10395000A8B14FF4007000214FF40077C3E74A4646
:10396000A16901F005FD40B2002808DB02D0206A01
:10397000A16976E794F8313013F0500F14D194F820
:1039800032304FF0FF3043F0020384F8323002B09F
:10399000BDE8F08794F831301A073FF543AF4EE7A2
:1039A000161A4CE74FF00008C8EB060002B0BDE85D
:1039B000F08700BFF0B583B001220DF10701044686
:1039C000D0E900678569FFF71FFF012808BF9DF850
:1039D0000700A56118BF4FF0FF30C4E9006703B0CE
:1039E000F0BD00BF2DE9F04F90F831E0856983B05C
:1039F0000446BEF1000F1BD0D0E90001994208BF78
:103A0000904216461F463BD056EA070307D10023D3
:103A1000A3610120C4E9006703B0BDE8F08F1EF088
:103A2000080F0AD0D4E90423BB4208BFB24204D233
:103A3000A561002003B0BDE8F08F236A019393F8DD
:103A40003DC494F833A00CF1090C5FFA8CFC16F11C
:103A5000FF3247F1FF33CCF1200803FA08FB22FACA
:103A60000CF242EA0B02ACF1200B23FA0BF31AF032
:103A7000400F42EA030205D0E3691A44A261C8E795
:103A80000120D7E710F1FF3941F1FF3A29FA0CFC88
:103A90000AFA08F84CEA080C2AFA0BFB4CEA0B0C61
:103AA0006245534617D21EF0400F16BF019BE369D3
:103AB000D3F82C34A361904604F118094A46B8F1B2
:103AC000000FA6D0A169206A01F052FC08F1FF386E
:103AD0000028F3D1ACE750EA0103E4D0CCEB0202BA
:103AE000E9E700BF2DE9F04F93B090F83140009224
:103AF0000D469DF87010029106462CB99A4695F82D
:103B0000313013F0500F07D1002086F8310086F8CD
:103B1000330013B0BDE8F08F009B002B00F0118143
:103B200022465146009801F01DFD95F83130049071
:103B3000002B40F0FB80B84A0AF10E0382FB03120F
:103B40001A44DB17C3EBE203029ADBB202F007026E
:103B5000059302334FF000095FFA83FB42F0400304
:103B600001924C464F46039320220AA92846FFF7AC
:103B70004BFE00283DD02028C6D19DF828301A06DB
:103B800063D4002C5ED12A68A9690791203A089273
:103B90000134E4B26BB3C02B00F09E80C12B5FD028
:103BA000852BE1D13822002130460DF067F89DF8D1
:103BB0002C309DF8292086F8302003F03702DB06F0
:103BC00058BF42F0080286F831202B68296AAA699A
:103BD0007262203B3162B36295F83330C3F38013D5
:103BE00086F82C3020220AA92846FFF70DFE00286F
:103BF000C1D1029B03F04203422B85D1009B002BD5
:103C000082D05C450DD39EE020287FF47DAF24B99F
:103C10002A68A9690791203A0892DCB2A34540F2CC
:103C2000928020220AA92846FFF7EEFD631C002897
:103C3000EAD12846AF6900F021FC00283FF464AFC8
:103C4000AF61EBE75C45A5D2A2E7B9F1000FA2D1C5
:103C50005C4538BF0024852B86D14FF00109A1E7D0
:103C6000C7EB0A085FFA88F8B8F10F0F28BF4FF0CA
:103C70000F0843463A4600990AA801F091FC002833
:103C80004BD04744FFB2BA457FF46EAF029B180693
:103C90003FF53AAF029B13F0320F05D096F8313062
:103CA00013F0110F7FF430AF029AD106134640F1A2
:103CB000B5809A077FF528AF002200233046FFF732
:103CC00091FE00283FF420AF304600F04DFC002864
:103CD0003FF41AAF01201CE79DF829309DF804201D
:103CE00086F833209F0744BF9DF80C3086F83330A8
:103CF000DDE90C23DDE91001C6E904230F9BF36124
:103D0000009BC6E90201002BC0D09DF82B30534523
:103D100005D04FF000094F4626E7814624E7BDF85D
:103D20002C30049A9342F4D100271DE7D5E90023F3
:103D300013433FF400AF00220023C5E90023AC6128
:103D4000F9E60493F7E695F833303822C3F380138D
:103D50000021304607AC8DF824300CF08FFF2B6A21
:103D6000029D336294E8070005F00707082567F015
:103D70007D0986F831500AF11E0706F1240585E811
:103D80000700FFB2009DCDF800904FF000081846E4
:103D90000122214601F0A6FA814600283FF4B4AE84
:103DA00090F90020002AFFF6AFAE202200210CF08F
:103DB00065FFB8F1000F53D0B8F1010F3FD0C8EB49
:103DC00008120F2FA2F11E024FF0C101384628BF82
:103DD0000F20D2B289F8001058B109F1020300B2E5
:103DE00003EB40002A4412F8011B23F8021B9842FF
:103DF000F9D108F101085FFA88F8C3451BD92022E0
:103E00002146306A01F088FA01287FF47DAE0F3F29
:103E1000FFB2306ABCE700BF89888888029B9B0696
:103E20007FF558AFD6E904233046FFF7DBFD0028C5
:103E30007FF450AF68E6304600F0F0FA69E69DF88E
:103E40000030C021032289F8001089F8012086F88B
:103E50003330BDF8103089F803A0A9F80430C8E762
:103E6000059B5A1CD2B285210B4B89F8001086F8AD
:103E7000302089F801201A68002ABAD00DF11A0101
:103E800006A89047BDF81A10BDF81820A9F8081028
:103E9000A9F80A20ADE700BF0034FF1F90F83130C9
:103EA00053B930B591F8314014F0500483B00D4649
:103EB00004D1204603B030BD00207047D5E900454D
:103EC000002504F01F042C4302D0184603B030BD77
:103ED00000921A46FFF706FE03B030BD2DE9F0430D
:103EE000064695B096F83140039200208DF84900BF
:103EF0008DF84A008DF84B0034B9994691F831306D
:103F000013F0500F0D4603D1002015B0BDE8F0832B
:103F100013782F2B144633D04FF00108214603AB02
:103F200004AA3046FFF7AAFB0028EDD0039B1B78BC
:103F3000002B3AD09DF81030059ACDF80080294624
:103F40003046FFF7CFFD0028DED0344606AF06F13D
:103F5000300E20686168A268E3683D460FC51034E2
:103F600074452F46F5D120682860304600F056FA97
:103F7000002386F8313086F83330039C06ADCDE758
:103F80000134039421782F29FAD0D1B1382206A820
:103F900000212F6A0CF072FE4022012306AD0E971D
:103FA0008DF849208DF84B30B6E79DF81030059A12
:103FB000CDF8009029463046FFF794FD15B0BDE8D6
:103FC000F083382230462C6A0CF058FE4023012042
:103FD000346286F8313086F8330096E721B1DBB2DF
:103FE00001F58861FFF77ABF0846704770B586B063
:103FF00006AD00220469436905F8042D0E461946F2
:104000000A22002320460CF0DFF8303400EB800356
:10401000A4EB430450EA010205F8014D0B460446A7
:10402000EDD102AB9D4206D92946202201F8012D8F
:104030009942FBD102AD28460DF002F933680246E1
:1040400029465B683046984706B070BD034610B5F8
:10405000006A0C46002203F1240101F043F928B163
:10406000C1682046BDE8104004F094BB10BD00BFFD
:104070002DE9F0438FB000241746804600221E46EB
:1040800000230D468DF831408DF832408DF83340D5
:1040900007F00209FFF7A6FC0122414668465FFAD5
:1040A00089F9FFF7FBFE002840D09DF831309807D2
:1040B00001D5F90730D5002446B12B680134202101
:1040C0001B682846E4B29847A642F6D1B9F1000F22
:1040D0003FD17A0733D429466846FFF745FB9DF860
:1040E000313013F0500F24D12B680D211B68284666
:1040F00098472B680A211B68284698473B070BD531
:104100009DF8313013F0500F06D0B31CDBB23A46A5
:1041100029466846FFF7ACFF6846FFF7A5FA01227B
:1041200041466846FFF7BAFE0028BED10FB0BDE891
:10413000F0832B682F211B6828469847D4E729462F
:104140006846FFF753FF2B6820211B6828469847D5
:10415000C1E729466846FFF779FF2B6820211B68D5
:1041600028469847B5E700BF8169F8B50446006A5C
:1041700001B10131012200F079FF012806462FD953
:10418000012301461A46206A01F03AF8074638B37F
:10419000A06994F8333030B35A0613D5421C9642C6
:1041A00025D023F0400284F83320E36905E0206A3B
:1041B00001F0E8F8A0B1A0692B465D1C83421946C6
:1041C0002A46F4D34FF0FF323146206A01F0DAF884
:1041D00030B1A16959B13246206A01F0D3F830B943
:1041E00000273846F8BD43F0400384F83330A66119
:1041F0003846F8BD2DE9F04300F12403054693E865
:10420000070085B095F8333001AE86E807009A07BD
:104210001BD5E969E9B9002401223146286A01F079
:1042200061F80134E4B280B1037803F07F030370D6
:1042300095F83030A34231D3002CEDD02022314606
:10424000286A01F069F80128E6D0002005B0BDE831
:10425000F0835B06286A1CD5D5E9022390F83D441B
:104260000934E4B212F1FF3843F1FF39C4F12007F9
:1042700009FA07F728FA04F2A4F1200329FA03F354
:104280003A431A430132002300F0BAFF0028C2D19A
:10429000DBE701F089F80028BDD1D6E72C6A0023BE
:1042A000204685F8313085F8333000F0D7FE0028FD
:1042B000CBD004F5037000F0D1FE0028C5D0D4F8AF
:1042C000380403685B699847C0E700BF2DE9F04FE9
:1042D00000F1240A06469AE8070087B00DF10C08A1
:1042E00088E807000027DFF830B1B9463C460022D5
:1042F0004146306A00F0F6FFFBB2054630B1007867
:10430000C0284DD0C1282BD0852809D096F832304E
:1043100043F0010386F83230002007B0BDE8F08F8B
:1043200096F83110DBF8002095F8019001F0370184
:10433000A980AAB1306A019390F80C1241F00101F2
:1043400080F80C120DF10A0102A89047BDF80A107E
:10435000BDF808202878019BA9812982EA816A8218
:10436000002115F801E0E20342EA54041EFA84F445
:104370000129A4B201F101010DD01F29F1D99945FC
:104380002CD020224146306A00F0C6FF012807F1F8
:104390000107ACD0BAE785280CBF04210221E0E771
:1043A00096F8332012F0400F6A7814BF42F00202F0
:1043B00022F002026A70D6E90401C5E90201D6E9D9
:1043C0000201F2696A61C5E90601316A91F80C22BD
:1043D00042F0010281F80C222878C1E751460122FF
:1043E000306A00F07FFF002890D0356A448028466C
:1043F00000F034FE002889D005F5037000F02EFE91
:10440000002883D0D5F8380403685B6998470028F2
:104410003FF47CAF81E700BF0034FF1F90F83120EC
:1044200092B138B590F8332011060FD4056A0446CE
:10443000284600F013FE88B994F8323043F00103A7
:1044400084F83230002038BD0120704702F07F022E
:1044500080F83320BDE83840FFF738BF05F503701A
:1044600000F0FCFD0028E7D0D5F8380403685B694C
:1044700098470028E0D0012038BD00BF2DE9F04169
:1044800090F831305906044663D48068236AD3F823
:1044900034341844B0F1806F02D30020BDE8F081BD
:1044A0002046FFF761FE0028F7D0266A96F80C3206
:1044B000DA0706F5037550D4284606F5067600F0AF
:1044C00067FD4FF40072002130460CF0D7FB226AE2
:1044D000A36992F83D04D2F82414A3F1020801273D
:1044E00008FA00F817FA00F3884418BF002511D025
:1044F000D2F83804036808EB05019B6932469847F7
:1045000001350028C9D0226A92F83D3407FA03F336
:10451000AB42EDD894F831305B0615D494F83330C3
:1045200063F07F0384F83330D2F83464D4E9022393
:10453000D4E9040192194FF000077B4180197941B9
:10454000C4E90223C4E904012046BDE8F041FFF7B5
:1045500065BF006A00F0A2FF98E7284600F07EFDE4
:104560000028A9D199E700BF90F833309A0718D5F1
:10457000F0B5C56983B08DB103F04003044603F084
:10458000FF0083B9A169002941D10195E161294664
:10459000206A00F009FF30BB002000E0012003B0DA
:1045A000F0BD00207047206AA16990F83D34D4E93D
:1045B00002670933DBB216F1FF36C3F1200E47F173
:1045C000FF3726FA03F207FA0EFE203B42EA0E02FC
:1045D00027FA03F31A430132B1B1013D6D1A0131DB
:1045E0002A4401910ABBD4E9000194F8333063F006
:1045F0007F03C4E90201C4E9040184F83330204692
:10460000FFF70CFF03B0F0BD0195E161EAE702AAF4
:1046100042F8040D206A00F0ABFE40B20028BBDB7C
:104620000AD1019D002DDED0B1E70023019900F0F1
:10463000E7FD0028D7D1AFE74FF0FF32A169206A2C
:1046400000F0A0FE0028ECD1A6E700BF2DE9F04F56
:1046500090F8333085B09C07064601920AD496F84C
:10466000323043F0010386F832304FF0FF3005B0AE
:10467000BDE8F08F5A078A4600F11281019B002B9A
:1046800000F022813146F1E80623DDF80480039131
:104690009346306AB569D0F830445B461C40C4F399
:1046A00008094CBB002D00F0BE8096F833305B0645
:1046B00040F1DD80D6E9022390F83D740937FFB25E
:1046C00012F1FF3243F1FF33C7F1200E03FA0EFE61
:1046D00022FA07F1203F23FA07F741EA0E01F369B6
:1046E00039430B449D42C0F0B5803046FFF73CFD96
:1046F0000028B4D0306AB569D0F8247490F83DE44D
:10470000640A023DE11905FA0EF52944B9F1000FDA
:1047100040F08280B8F5007F57D2D6E90423D6E96D
:104720000045B8F5007F474628BF4FF400779D420B
:1047300008BF944234BF0122032200F5037000F049
:104740002DFC00288BD048443A465146B94408F025
:10475000B7F9B9F5007F00F0928038460021D6E91C
:104760000023D6E9044512EB000B43EB010C654531
:104770005A46634608BF5C45BA44C7EB0808C6E919
:10478000002309D296F8331064465B46C6E9043428
:1047900061F07F0186F83310B8F1000F7FF479AF34
:1047A0005A466346D6E90201994208BF90427FD338
:1047B000474B1B68002B00F0858096F8333001983A
:1047C00063F07F0386F8333051E7B8F5806F2ED35E
:1047D000012303FA0EFEC4EB0E0ED0F814324FEA9A
:1047E0005824744528BF744699424FEA442709D398
:1047F00062189A4206D900F50370029100F0C8FBD6
:10480000306A0299D0F83804056823465246EC69AC
:10481000A0470028A1D122E7C9F50077474528BF66
:104820004746012289E7F569BDB1B56164E7D0F873
:10483000143299422CD0D0F83804036852469B6950
:10484000984700283FF40BAF4FF4007000214FF45D
:10485000007784E70135B5614EE73046FFF784FC09
:1048600000283FF4FCAEB569F561306A44E729469B
:10487000039A00F07DFD00287FF43CAF35E7306AF5
:1048800000F5037000F0EAFB00287FF466AFE6E66F
:1048900000F50370029100F07BFB306A0299CAE7D1
:1048A000D0E90423FFF79EF800283FF4D8AEE5E6F0
:1048B00096F83310019861F07F01C6E9022386F86B
:1048C0003310D4E60198D2E6D6E900236AE700BFA8
:1048D0000034FF1F8368C3F308038BB10021026912
:1048E000D1540133B3F5007FF9D1C368026901687F
:1048F00010B41C68A469184623465DF8044B184799
:104900000120704782680346C2F30802006930B490
:1049100081545D68986840F2FF1401EB7501013025
:10492000A2425960986002D0012030BC7047D8681C
:10493000196804681A69A4694D1C1D60234630BCBF
:10494000184700BF38B50C46C9B20546FFF7DAFF75
:1049500000B938BD210A2846BDE83840FFF7D2BF6C
:104960002DE9F84300268046016086604660B0B2BB
:1049700000F0A0FDB042814605460DD001464046FC
:10498000FFF7E0FFA0B30136B6F5803FEFD3404616
:10499000BDE8F843FFF79EBF741CB4F5803F14D107
:1049A000C6F58037B7F5007F4FF480341AD2A9B22C
:1049B0004046FFF7C7FF0135D0B1A542F7D32E46D9
:1049C000E2E70134B4F5803FEAD0A0B200F072FD16
:1049D000A042F6D0A71BB7F5007F03D2A642E6D3CC
:1049E0004E46C4E74FF6FF714046FFF7ABFF10B9E4
:1049F0000020BDE8F883B9B24046FFF7A3FF0028C6
:104A0000F6D02646C0E700BF2DE9F04F16460A68EB
:104A1000C16006618DB08146126908460F4698460E
:104A20009047B0F5801F15D2B8F1000F0DD0D8F81F
:104A30000030AB495B68152240469847D8F80030F3
:104A4000A8495B6840460F229847002420460DB0D5
:104A5000BDE8F08F0222012301E090424CD90133DE
:104A6000DBB2202B4FEA4202F7D1A3F10B02521026
:104A70000121D4B2914005940391013301245B10CC
:104A800004FA03F3049303FA04FA9B000193019BD5
:104A9000C01A20FA02F303FA02F400214FF4007264
:104AA000304602934FF0010B0CF0E8F80025FF238D
:104AB0000721FE2286F8C21186F8C32186F8BFB10D
:104AC00086F8C0B186F8C15186F8C43186F8C53180
:104AD0003B68C6F8C6A14AF6552254449B69C6F8FD
:104AE000CA41A6F8FE212946324638469847B0B951
:104AF000B8F1000FA2D1A8E71C2BB6D808221A2BB8
:104B0000059200F2B0814FF4004301934FF480739B
:104B100003934FF400534FF4804A0493B7E72946B8
:104B20004FF4007230460CF0A9F8EB233370762076
:104B3000902145226C4B7070B170F2701B68B464A8
:104B4000049C0B9334657465029CDDF82CE0F465DD
:104B500058209DF814407564462141225423F56481
:104B6000A6F86A5086F86D4086F870502024C6F882
:104B700064E030714FF0040C4FF480754FF0090E73
:104B800080207171B271F371C6F840A0C6F858A0C8
:104B900086F86EB034727472B472C6F860C0A6F84B
:104BA000685006F1770386F86CE006F2FD1186F88E
:104BB0006F00F42203F8012F9942FBD14AF65522E7
:104BC0000023A6F8FE211C46012501E00133013532
:104BD000A3F16A02012A04D9702BF7D0F25C02EB30
:104BE0007404B5F5007FF1D13B6832469B695146AC
:104BF0003846984700283FF47BAF3B6832469B69B4
:104C00000AF10C013846984700283FF471AF2A4654
:104C1000002130460CF032F84AF65523A6F8FE3152
:104C20000AF109030593731ECDF824900AF1010BD4
:104C3000069306F2FF15CDF820A09946CA464B46CA
:104C400013F8012F9D4202EB7404F9D13B68324600
:104C50009B6959463846984700283FF449AF3B685E
:104C600032469B690BF10C013846984700283FF407
:104C70003FAF059B0BF1010B5B45DFD1DDF82490C5
:104C8000CDF81CA04FF40072DDF820A000213046C2
:104C90000BF0F4FFCDF82090DDF814900AF10B0B27
:104CA000069B13F8012F9D4202EB7404F9D13B6877
:104CB00032469B6949463846984700283FF418AF6A
:104CC0003B6832469B6909F10C0138469847002839
:104CD0003FF40EAF09F101035B4507D09946DFE7CA
:104CE00090510100F0510100589AFF1FCDF8149027
:104CF000DDF82090331F06F5FE7243F8044F93420F
:104D0000FBD13B6859469B69324638469847002894
:104D10003FF4EEAE3B6805999B690D31324638464B
:104D2000984700283FF4E4AEB8F1000F06D0D8F859
:104D3000003089495B680C2240469847029B4FF43B
:104D40000072002130469D000BF098FF3346F82298
:104D500003F8132B049A0799524405F207251446C9
:104D60006A0A1046FF2201F8012F8B42FBD14FF057
:104D7000000B2346CDF810905C46AD0B81469B4658
:104D800004E0002C68D00134A1451CD0B4FBF5F33D
:104D900005FB13434BB9012270494046B8F1000F9F
:104DA00003D0D8F800305B6898473B6832469B696F
:104DB00004EB0B01384698470028E2D1B8F1000F08
:104DC0007FF43CAE41E6DDF81090B8F1000F30D032
:104DD000D8F8003062495B68022240469847029C3E
:104DE000039B0734E40804F2FF156D0A9D423FF669
:104DF00025AE4FF40072002130460BF03FFF072331
:104E000033704FF0000B06E0BBF1000F7ED00BF1CA
:104E1000010B5D452BD03B6801999B693246594493
:104E2000384698470028EFD1B8F1000F7FF406AE5E
:104E30000BE6029C039B0734E40804F2FF156D0A9D
:104E40009D423FF602AE4FF40072414630460BF0F1
:104E500015FF07233370D4E74FF400722146304624
:104E60000BF00CFF8FE74FF48071039105E6B8F16A
:104E7000000F5ED03B494046FBF7B2FC039B4FEA74
:104E80004A0A0AEB03014846FFF76AFD00283FF48F
:104E9000D5ADD9F80830039AB3EB422F3FF6CEAD2B
:104EA00031494046FBF79CFC4FF40072002130462C
:104EB0000BF0E4FE0323822281200221337086F866
:104EC0002000716386F84020D9F80420726473656D
:104ED000039AD9F80830B3650025B4630AEB420A97
:104EE000F56504E0F5B1039B01359D4211D03B68A7
:104EF00032469B690AEB050138469847044600286C
:104F0000F0D1B8F1000F7FF499AD9EE586F800B0BE
:104F10007DE7B8F1000F3FF499AD40461349FBF728
:104F20005FFC93E54FF40072294630460BF0A6FE75
:104F3000D9E7039B4FEA4A0A0AEB03014846FFF709
:104F40000FFD00283FF481ADD9F80830039AB3EB88
:104F5000422F3FF67AADA7E7A8510100444C01006B
:104F6000CC510100B8510100D0510100E0510100C5
:104F700010B500F10C0204464068A16803689B6903
:104F8000984718B1237823F00103237010BD00BFA8
:104F900000224FF0FF33027083607047F8B5456818
:104FA000FDB183688B42044617460E460ED0037847
:104FB000DA0712D4BB0716D504F10C0507F001027D
:104FC0000023134323702846A660F8BD10F90C3B5C
:104FD00007F0010213432370F8BDFFF7C9FF002853
:104FE000E8D10020F8BD6068036804F10C059B68F7
:104FF0002A46314698470028E0D1F2E738B50C46FA
:10500000D0F81C14154601EBD41100F503700022F2
:10501000FFF7C4FF40B1A400C4F3080403595A1CAD
:1050200004D02B60012038BDFF2038BD002038BDE2
:1050300038B50C46D0F81C14154601EBD41100F518
:1050400003700122FFF7AAFF034628B1A400C4F3AE
:10505000080401201D5138BD38BD00BF0378DB07AF
:1050600001D401207047FFF783BF00BF2DE9F84F3F
:10507000804691468B46002944D08F1ED8F82834AC
:105080009F423BD207F00705012303FA05F5EDB275
:10509000C7F3C80A3E463C46D8F82414002201EB68
:1050A00014314046FFF77AFFC0B110F80A100AE049
:1050B0004A452AD0A74210D0D8F82824944217D2C3
:1050C00013F0FF050CD001340D424FEA4503A4EB69
:1050D0000602EDD0A7422646EED10120BDE8F88FAA
:1050E0000AF1010ABAF5007F4FF00105DDD101E0B8
:1050F000002634464FF0000A0125CDE70027BA46C6
:105100000125C7E7D0F81874B8E7BBF1000F04D148
:10511000B9F1010F08BFC8F81864B01CBDE8F88FDA
:10512000F8B5044600234FF0FF3600F50377C0F8CA
:1051300038144160C0F810121546384684F83C34E3
:10514000237084F80C32A660C4F814621A4619461B
:10515000FFF724FF042D0CD8064650B15DB9052297
:105160002649F01C0CF0DAF818B996F86C30092BC7
:1051700019D00020F8BD6B1E00EB031393F8BE217D
:1051800012F07F02F5D193F8C231002BF1D000EB81
:1051900005153846D5F8B6512946FFF7FFFE0646F5
:1051A0000028DCD1E5E7336D2B44C4F81C34736D63
:1051B000C4F82034B36D1D44C4F82454F36DC4F80E
:1051C0002834336EC4F82C3496F86D3084F83D34AE
:1051D0000125093305FA03F35A1EC4F818040146E1
:1051E000C4F83434C4F8302420462A46FFF73EFF82
:1051F000402384F83C342846F8BD00BF005201002B
:105200002DE9F04702398046D0F8280415468A185F
:10521000824238D89A46D8F81834BAF1000F35D1FE
:10522000994238BFC8F8181401F007040122D8F8D1
:10523000243402FA04F4E4B203EB1139C1F3C806D2
:105240000122494640469144FFF7A8FED8B187198C
:1052500000F5007017F8012B224214BF012600262A
:10526000564582EA04024FEA44040CD0013D07F897
:10527000012C15D014F0FF04EED1B84226464FF0B1
:105280000104E7D1DCE70020BDE8F0879942CBD8E4
:105290009A42C9D9824228BF0022C8F81824C3E71D
:1052A0000120BDE8F08700BF70B582B002AE0546B0
:1052B00046F8041D0024D5F8283401990133994299
:1052C00002D9002002B070BD32462846FFF796FE94
:1052D00040B20028F5DB04F10104ECD1204602B015
:1052E00070BD00BFF8B50E4696E82800D0F830141F
:1052F000D0F8244490F83D742940023B04EB51213E
:10530000BB40194400F50370FFF748FE18B17368FD
:10531000C3F308031844F8BD70B54C680D46A318D4
:10532000D0F830146B6090F83D340C4009332244BF
:10533000DBB222FA03F406463CB12B7A3BB12B6870
:1053400001332B60013C002CF7D1012070BDD6F851
:10535000283429680133994202D94FF0FF3070BDDB
:105360002A463046FFF74AFE40B20128EAD070BD17
:10537000D0F8283401338B4201D2FF207047FFF769
:105380003DBE00BF01290DD9D0F828340133994220
:1053900010B403D900205DF8044B70475DF8044B4E
:1053A000FFF746BE00207047F0B50C4683B00546B7
:1053B0000E46D5F8283401339C4202D9002003B0B0
:1053C000F0BD01AA21462846FFF718FE47B2002F7C
:1053D000F4DB012CF2D9D5F8283401339C42EDD806
:1053E000002221462846FFF723FE0028E6D0019B35
:1053F00001349C420BD1002FDBD13B46A21B31462E
:105400002846FFF7FDFE0028D8D003B0F0BDA21B50
:10541000314600232846FFF7F3FE0028CED0019C3A
:10542000002FCCD02646C4E72DE9F8430024D0F85D
:105430002464804600F5037725463146002238462D
:105440000136FFF7ABFD30B300F1FF3ED8F828C4BA
:105450001EF8010FFF2805F5805913D048B1082226
:10546000012318424FEA430118BF0134013ACBB27D
:10547000F7D10835AC450AD94D45DED01EF8010FED
:10548000FF28EBD10835AC4504F10804F4D8C4EB8F
:105490000C00BDE8F883BDE8F88300BF10B50446F2
:1054A000D0F82C14FFF700FF94F83D340933DBB239
:1054B000984010BD7E2808D8A0F16103192B8CBF3D
:1054C00000232023C01A80B2704730B40023234D3C
:1054D000352405E035F8221081428CBF144613466E
:1054E000E11A012903EB5102F4D89BB21B4935F8AC
:1054F0002320904219D24B240023194D05E035F8A2
:10550000221081428CBF14461346E11A012903EB95
:105510005102F4D89BB2124A35F82310814204BFDD
:1055200002EB8303588830BC704701EB8303821A77
:10553000D9788A42DFDA93F90230012B08D023B1FF
:105540009BB2184480B230BC70474EF2A033F8E7EB
:1055500002F00102801A80B2E5E700BF3453010077
:1055600008520100C9B110B40144D30343EA520305
:1055700010F8012BA2F16104192C9CBF203AD2B281
:1055800012FA83F292B2D30343EA5202814292B2F8
:10559000EBD110465DF8044B70471046704700BFD2
:1055A00043B370B444887E2C1ED81344CD180A44EB
:1055B000023012F8013BE4B2A3F161011929A4F110
:1055C000610194BF20260026192994BF20210021C3
:1055D0009B1B641ADBB2E4B29C4205D1AA4206D0FE
:1055E00030F8024F7E2CE4D9002070BC70470120B7
:1055F00070BC70470120704738B504460D46242220
:1056000000210BF03BFBA560EB79102B08D0202B81
:1056100004D1402301202370A07038BD002038BD84
:10562000202301202370A07038BD00BF024638B58A
:1056300052F8105F04462946806801F09DFA50B187
:1056400055B123690135AB42A37818BF03F0BF03FE
:1056500063F07F03A37038BDA37843F04003F7E7FE
:105660002DE9F041037803F020032BB903F0FF0488
:1056700041691F4B994203D900263046BDE8F081AD
:105680000546FFF7D3FF06460028F5D02969A8682C
:1056900001F010FA0746A86839462430052201F0C7
:1056A000D1F980460028E7D04FF4007221460BF074
:1056B000E5FAAB681A79012A10D9012403E0AB6836
:1056C0001A79A2420AD918680368E1199B6942460F
:1056D00098470134E4B20028F1D1CDE79B7969699C
:1056E0004FF4007202FA03F311FA83F36B61C4E71B
:1056F000FFFD1F0010B5044680680A462430A169EA
:1057000001F0A0F920B1A38803F00F0300EB4310D0
:1057100010BD00BF30B590F90230002B83B00446B5
:1057200019DBA56805F1240001F0BCF930B96378F4
:1057300043F001036370002003B030BD05F50C7029
:1057400001F0B0F90028F2D0286803685B69984737
:105750000028ECD0F0E70121FFF7CCFF0546002838
:10576000E5D00378E52BE2D023780D4A1B0744BF30
:10577000E369C361236A126843831B0C838252B1BD
:105780000DF1060101A89047BDF80430BDF80620D0
:105790002B836B82EA82A37803F07F03A370C0E7B8
:1057A0000034FF1F10B50378044623B9002323708B
:1057B000A370012010BDFFF7ADFF00232370A3707D
:1057C00010BD00BF38B5037805460C46B3B928466E
:1057D0000021FFF78FFFA8B1016842688368C568A0
:1057E000E56021606260A360016942698369C569FF
:1057F000E56121616261A361012038BDFFF78AFF85
:105800000028E4D1002038BDF0B5064693B03578C5
:10581000019200208DF824008DF825008DF82600D7
:105820002DB91F460B7813F0700F0C4602D10020E3
:1058300013B0F0BD13782F2B104617D10130019013
:1058400003782F2BFAD0002B35D0A16809A8FFF7D9
:10585000D3FE0028EBD0019809AC07E03046FFF7F3
:1058600059FF002301983370B37009AC01AA03A952
:1058700000F092FB03AA214601230028D7D0019D06
:105880002D7830467DB100F0FFFD354609AC00288B
:10589000CDD00FCD0FC40FCD0FC433782A6822604E
:1058A000002BDED0DAE73B4603AA2146304600F063
:1058B000EBFD13B0F0BDA1683046FFF79DFEB7E7E2
:1058C00019B101F23C41FFF79FBF0846704700BF86
:1058D00003780BB100207047FFF78EBE2DE9F04F23
:1058E0008378DF0783B0054640F190800F4601784A
:1058F0000E07914600F193808C0608D582684369B3
:105900001289C3EB42139BB2994528BF9946B9F15E
:10591000000F00F0AA806B69AA6888064E464FF017
:10592000000805F1100AC3F3080B3FD5116A01EB1B
:105930005321BBF1000F53D1B6F5007F50D3D36A8A
:1059400099424DD0B6F5806F72D328788006C6F3A1
:10595000472B06D41079C8EB0000C0B2834528BF9E
:10596000834699424FEA4B240BD35B44994208D2B9
:1059700002F12400019101F095F8002846D0AA68B0
:105980000199106802685B46D2F80CB03A46D847D5
:1059900000283BD06B69361B234427446B6164D0DD
:1059A0002978AA688806C3F3080BBFD492F805804B
:1059B00008EA5328BBF1000F38D1B8F1000F35D1F8
:1059C000002B3FD149064CBF116A296A2961104654
:1059D00001F070F8AA6808EB0001BBF1000FABD032
:1059E00002F12400002201F02DF878B1CBF500740B
:1059F000B44228BF344600EB0B012246384607F07C
:105A00005FF8C7E72B7813F0700F2FD16B784FF04A
:105A1000FF3043F002036B7003B0BDE8F08FC36941
:105A200042699B1A994528BF994670E72969CEE7D4
:105A3000106803683A469B6898470028E6D04FF400
:105A40000074A7E70B0705D5AB785C0602D529697A
:105A50000131BBE710462969524601F031F80028B0
:105A6000D4DBCFD0AA682969B1E70026C6EB0900CC
:105A700003B0BDE8F08F00BF70B582B001220DF118
:105A80000701044646690569FFF728FF012808BF9A
:105A90009DF80700666118BF4FF0FF30256102B026
:105AA00070BD00BF30B54369C3F3431583B00446EE
:105AB00005B189B901220DF107012046FFF70EFF5C
:105AC00040B201280BD163691F336361A068303095
:105AD00000EB451003B030BD20334361F6E70020F2
