:1000000000000320D10100001DC40000D5C3000082
:10001000D5C30000D5C30000D5C30000D5C3000080
:10002000D5C30000D5C30000D5C300001DC4000027
:100030001DC40000D5C3000031DB000035DC00002A
:100040001DC400001DC400001DC400001DC400002C
:100050001DC400001DC400001DC400001DC400001C
:100060001DC400001DC400001DC400001DC400000C
:100070001DC400001DC400001DC400001DC40000FC
:100080001DC400001DC400001DC400001DC40000EC
:100090001DC400001DC400001DC400001DC40000DC
:1000A00055BC000061BC00001DC400001DC4000060
:1000B0001DC400001DC400001DC4000021E4000098
:1000C0001DC400004DE500001DC4000079E60000DD
:1000D0001DC4000071E700001DC400001DC4000025
:1000E0001DC400001DC400001DC400001DC400008C
:1000F0001DC400001DC400001DC400001DC400007C
:100100001DC400001DC400001DC400001DC400006B
:100110001DC4000039CA00001DC400001DC4000039
:100120001DC400001DC400001DC400001DC400004B
:100130001DC400001DC400001DC400001DC400003B
:100140001DC400001DC4000069E800001DC40000BB
:100150001DC400001DC400001DC400001DC400001B
:100160001DC400001DC400006DBC00009D93000074
:10017000CD930000A9930000C9930000C59300002F
:10018000B5930000697A00001DC400001DC4000082
:100190001DC400001DC4000061E900001DC4000072
:1001A0001DC400001DC400001DC4000079BC000077
:1001B0001DC400001DC40000D19300000194000084
:1001C000DD930000FD930000F9930000E993000027
:1001D0005C4B4CF2205210B51A804DF628121A8052
:1001E00000BF00BF0CF01EF9574B4FF030621A6091
:1001F000564A9A60564ADA60564B4FF470021A60BB
:10020000554B564A1A60564B1A78110703D51A787F
:1002100042F008021A70534B5349AA221A70534AEB
:10022000534B8B4204D252F8040F43F8040BF8E707
:10023000504B514900228B4202D243F8042BFAE77B
:100240004E494F4A002352F8230041F8230001335E
:10025000742BF8D14B4B4C4A802103F8011B93427D
:10026000FBD14A4B454A1A60494B8A221A70A3F5C2
:10027000805324225A70A0221A709A799207FCD5D2
:100280009A79D406FCD4434A937903F00C03082BE3
:10029000FAD1414B60221A7002331A78802AFCD1BD
:1002A0003C4B01221A715D225A719A799006FCD555
:1002B0009979384A4906FBD5384B394919600021EC
:1002C000596020231370937903F00C030C2BFAD19F
:1002D000344B354A1A60354A354C136813F4807331
:1002E00003D123604FF4A8531360324B324A1A6093
:1002F00000225A60072243F8042C304AC3F80C2D20
:1003000062B60CF009FA2368DA0705D52C480CF020
:1003100061F92C4B2C4A1A602C4B1B785B0609D5D3
:10032000284C294B22689A4204D125480CF052F9F6
:10033000002323600FF022FA0CF07AF80DF0B6FFDC
:10034000FEE700BF0E20054030800440823F0400DD
:100350000100002B88ED00E0002008E0030000858C
:1003600002D0074000E00740A01CFF1F4C520100D4
:100370003007FF1FA01CFF1F649DFF1F0002FF1F0F
:100380000000000000E400E064E400E008ED00E0AC
:10039000005006400040064001E007404480044011
:1003A0000000060204800440C010070010D0034083
:1003B00014D0034014E000E01FBF02000000202022
:1003C00006E8FA5E1CE00340A5C3945A00F007401B
:1003D000FFFFFFFFFFFFFFFFFFFFFFFFFFFFFFFF2D
:1003E000FFFFFFFFFFFFFFFFFFFFFFFFFFFFFFFF1D
:1003F000FFFFFFFFFFFFFFFFFFFFFFFFFFFFFFFF0D
:10040000FFFFFFFFFFFFFFFFFFFFFFFFDEF9FFFF23
:1004100010B5054C237833B9044B13B10448AFF33E
:1004200000800123237010BDA01CFF1F00000000EE
:1004300048520100084B10B51BB108490848AFF3FA
:1004400000800848036803B910BD074B002BFBD0A0
:10045000BDE81040184700BF00000000A41CFF1FAB
:1004600048520100A01CFF1F000000000020704740
:100470004FF0FF30704700BF704700BF704700BFAC
:10048000704700BF0023034A19460E2013700CF07A
:10049000B3B800BFE029FF1F0123034A19460E200D
:1004A00013700CF0A9B800BFE029FF1F10B5034B73
:1004B0000360044602F08CFE204610BDDC390100CA
:1004C000836C13B1184605F055B9C06C08B103F040
:1004D000EFB84FF0FF30704708B50CF0A7F8034BAA
:1004E0001860BDE808400CF06FB800BF8C2DFF1FEE
:1004F000F8B50D46064609F0F9F9044609F0E6F9A3
:10050000074609F0D3F9A4F2BC739BB27F2B02D843
:10051000FAB20C2A22D90023338009F097F9064653
:1005200009F0A4F9044609F0B1F9F3B2172B12D877
:10053000E3B23B2B0FD8C3B23B2B0CD8F3026401C0
:1005400003F4FF2304F4FF542343C0F346000343A2
:100550009BB22B80F8BD00232B80F8BDC0B21F28B2
:10056000D9D87F0107F4FF57384340EA43239BB2B1
:10057000D2E700BF00B5836C83B063B11846012297
:100580000DF1070105F028F801280CD19DF80700AE
:1005900003B05DF804FBC06C28B101220DF1070126
:1005A00002F0B0FFF0E74FF0FF30F1E700B5014691
:1005B00083B0084808F0D6FC074B084A1968019137
:1005C00013680749019808600133136003B05DF8B0
:1005D00004FB00BFA032FF1FF498FF1F9C2DFF1FDC
:1005E0001820FF1F00B5014683B0084808F0BAFC88
:1005F000074B084A19680191136807490198086078
:100600000133136003B05DF804FB00BF8865FF1F72
:10061000F498FF1FA02DFF1F2022FF1F826C62B1E4
:10062000137803F0080303F0FF0003B3D3695069A4
:10063000181A48BF6FF000407047C16CC1B191F803
:10064000313003F0080303F0FF0083B1D1E9042344
:10065000D1E90001101A30B463EB010100256FF0FD
:1006600000448D4208BF844200D2204630BC70470F
:1006700008467047836C13B1184605F095B9C06CF5
:1006800008B103F049BD704770B5264CADF5047D47
:1006900025460DE004F0A0FF0346002B4FF4007147
:1006A00004A819DD0DF05CF80DF030F801281DDC10
:1006B000A36C4FF4007204A91846002BEAD1E86C31
:1006C00050B104A94FF4007202F01CFF0346002B46
:1006D0004FF4007104A8E5DC002105200BF08CFF2D
:1006E000104802F075FD0DF5047D70BD78230A22D7
:1006F00068460D490DF028FC69460C480DF0FAFCDF
:1007000068460DF085FC0A4968460DF0C1FC694653
:1007100006480DF03FFD064668460DF079FC002EB8
:10072000C6D0D9E7382DFF1F4012FF1F2422FF1F1C
:10073000C43E010000B5836C83B08DF8071043B14F
:10074000184601220DF1070105F070F903B05DF8BC
:1007500004FBC06C0028F9D001220DF1070103F061
:10076000F3FD03B05DF804FBF0B51A4EB06CADF5C7
:10077000037D3746F8B14FF4007202A904F02CFF54
:10078000002821DD0DF107040DF2072514F8012FD3
:10079000114901A80FF00AFE01A80FF091FE0146D1
:1007A00001A80CF0DDFFAC42F0D10C480DF060FA6E
:1007B000B06C0028DFD1F86C30B14FF4007202A9A0
:1007C00002F0A0FE0028DDDC024802F001FD0DF57C
:1007D000037DF0BD382DFF1FF83901004012FF1FC7
:1007E00070B5044608460D460FF06AFE23680246BF
:1007F000294620465B68BDE87040184738B5044676
:1008000008460D460FF05CFE2368024629465B68E9
:1008100020469847054620460DF02AFA284438BD60
:1008200038B5074C074D0021204604F5447409F003
:1008300087FC0FCC0FC594E80F0085E80F0038BD8A
:10084000DC1CFF1F382CFF1F70B5204B2049214AAC
:10085000D3F8785400248EB006460C701470E5B1BD
:1008600002462946012368468DF800408DF8014074
:100870008DF8024004F0A2FEF8B1174B196821B1BF
:1008800032460123154802F0B7FC012105200BF088
:10089000B3FEFFF7F9FE0EB070BDD3F87C1461B162
:1008A0000246012368468DF831508DF832508DF89C
:1008B000335003F011FA0028DFD11B2108480CF057
:1008C0004FFF08480DF0D4F90EB070BD5422FF1F41
:1008D000272DFF1F6B07FF1F5032FF1F382DFF1FF3
:1008E000003A01004012FF1F2DE9F04F414B4249F1
:1008F000D3F87874414DA3B000264FF47A720E9568
:1009000081460E708DF83C608DF8446020962196EB
:100910001092002F53D03946684601234A466C4650
:100920008DF800608DF801608DF8026004F046FEDD
:10093000002855D0324B19680DF1380821B14A46CC
:100940004046012302F058FC20986FF0004A4FF017
:10095000000BD8B103781A0706D440460E9502F072
:1009600037FC23B0BDE8F08FC26943699A42F4D0E6
:100970000122214604F030FE01280CBF9DF8000042
:10098000FF200CF071FF20980028E3D12198002867
:10099000E3D090F831301B07DFD5D0E90423D0E94C
:1009A0000067921B63EB07039B4508BF924501D389
:1009B000002AD2D00122214602F0A4FDDCE7D3F8C0
:1009C0007C1469B1684601234A466C468DF8317043
:1009D0008DF832708DF8337003F07EF90028A9D1BC
:1009E0001B2108480CF0BCFE07480DF041F90DF141
:1009F0003808B2E75422FF1F272DFF1FDC39010002
:100A00005032FF1F003A01004012FF1F10B504468C
:100A100014F8013B184633B12E2BF9D00EF0D6FE58
:100A20000028F5D110BD012010BD00BF84B030B545
:100A300093B016AC84E80F009DF870509DF86740A5
:100A40000BF0F4FD9DF866301699009003F0010359
:100A50002A46029301911D9B1549039405A80FF0A6
:100A6000A5FC05A80FF02CFD014605A80CF078FEAA
:100A7000ACB1651EEDB2103516AB1D440DF1670427
:100A800014F8012F0B4904A80FF090FC04A80FF0F4
:100A900017FD014604A80CF063FEAC42F0D10648F5
:100AA0000DF0E6F813B0BDE8304004B0704700BF69
:100AB0001C3A0100383A01004012FF1F70B5134C78
:100AC00004F59165264601210E200BF095FD32209C
:100AD0000BF0D0FD00210E200BF08EFD32200BF02C
:100AE000C9FD4FF000010A4806F0D6FF0848C4F8D7
:100AF000845406F0F7FB0028E5D1D6F884140348A7
:100B000002F0BEFB0028DED070BD00BF5422FF1FE4
:100B1000DC26FF1F08B54FF40072154915480BF08D
:100B200009F9154B986C70B14FF40072114904F03B
:100B30007DFFB0F5007F10D11049114B012000223C
:100B400008701A6008BDD86C38B14FF400720949BA
:100B500003F0FAFBB0F5007FEED00C2109480CF051
:100B6000FFFD09480DF084F8BDE80840FFF7A6BF77
:100B7000242AFF1FD827FF1F382DFF1F262DFF1FF8
:100B8000782CFF1F403A01004012FF1F204B99783C
:100B90004A1CD2B23A2A9A701BD05B2A26D02F392F
:100BA0002A2984BF30229A705A783A2A16D05B2AB2
:100BB00023D0303A2A2A84BF30229A701A783A2AEF
:100BC00011D05B2A20D0303A2A2A84BF30229A7072
:100BD000704741229A705A783A2AE8D141225A70D5
:100BE0001A783A2AEDD141221A7070475A780132A8
:100BF000D2B230215A709970D7E71A780132D2B246
:100C000030211A705970DAE730221A70704700BF2D
:100C10007427FF1F2DE9F047864D874E82B0681C70
:100C200040F23A2200210FF065F905F10108002396
:100C3000C8F1110905F23A272C46338009EB04006C
:100C40000BF0EEFA04F8010FA742F7D17B4CC4F584
:100C50001277023704F12A0938190BF0E1FA04F887
:100C6000010FA145764BF7D1764CDFF818A220682A
:100C7000C8F8120193E80700A488AAF804400AF112
:100C800006071C4603C754F80A0F3A806168A26839
:100C9000E3686D4FDFF8F0E10FC720696169A26971
:100CA000E3690FC7BEE80300A7F121049EF8002006
:100CB000C8F8220107F1FF398AF81820CAF8141081
:100CC00027460AF1190A17F8012F604901A80FF009
:100CD0006DFBBDF804302AF8023BB945F3D1702012
:100CE0000DF0ECFA5A4F824608F07EFE5948C7F8DC
:100CF00000A00FF0E5FB57490246504608F05EFFA2
:100D00003868514908F07CFF3868534F70210DF066
:100D1000D7FA524B03CB1B78C8F86B01093707F899
:100D2000013C47F8051C14F8012F484901A80FF0B1
:100D30003DFBBDF8043027F8023BA145F3D1002369
:100D400047484149474F1A4600F29E2409F0B0FC3B
:100D5000454B93E80300C8F8B40188F8B81104F1D2
:100D6000400814F8012F394901A80FF01FFBBDF806
:100D7000043027F8023BA045F3D13C480CF078FF43
:100D80003B4B196821B343233A4A3B4802F034FAFB
:100D9000F0B1394F002402E004F048FE01342D4840
:100DA0000FF08EFBA0424FF0010201A93DD9BB6CB0
:100DB00015F8010F8DF804001846002BECD1FB6CE0
:100DC000012201A91846002BE8D003F0BDFAE5E79F
:100DD00035212A480CF0C4FC24480CF049FF254872
:100DE0000FF06EFB014623480CF0BAFC1F480CF0D4
:100DF0003FFF172122480CF0B3FC1C480CF038FFD1
:100E000014480FF05DFB014612480CF0A9FC17488E
:100E10000CF02EFF40F23A2200210E480FF06AF843
:100E20000023338002B0BDE8F087134802F0D0F908
:100E3000DFE700BFA32DFF1F282DFF1F7727FF1F10
:100E40007827FF1F503A0100BC1CFF1F643A0100C5
:100E50000C27FF1FA42DFF1F0F2FFF1F6C3A01004F
:100E6000DC1CFF1F5D2FFF1FC83A01004012FF1F4F
:100E70005032FF1FE831FF1F0032FF1F903A010080
:100E8000783A0100B62EFF1F583A010030B5754B75
:100E90001B7895B0002B52D0734C744A2368019391
:100EA000019B11685B1A312B00F2C080704B1B78DC
:100EB000002B2ED023686F4A0793079B11686A485E
:100EC0005B1A312B00F2C0806B4B1B785BB123683F
:100ED0006A4A0D930D9B116863485B1A312B00F22F
:100EE000968015B030BD664B1B78002B6AD0236806
:100EF000644A0F930F9B11685B485B1AB3F5FA7F46
:100F0000EFD3614C01682378109183F001031099AD
:100F100084E05E4B1B78002B40D023685C4A099329
:100F2000099B116850485B1AB3F5FA7FCCD3594D31
:100F300001682B780A9183F001030A998BE0564BE4
:100F4000494C1B78B3B12368544A0393039B11683F
:100F50005B1AB3F5FA7FA9D351482168037804914D
:100F600083F00103049D03701946062015600BF001
:100F700043FB9BE723684B4A0593059B11685B1A6B
:100F8000C82B93D923680693069B454D1360012314
:100F9000194606202B700BF02FFB87E72268424989
:100FA0000B920B9A0868304D121AC82A8CD92A68FD
:100FB0000C920C98374A08601946052013700BF004
:100FC0001BFB81E7226839491192119A096826486A
:100FD000521AB2F5967F84D3026835491292129A5A
:100FE0000968521AB2F5967FFFF47BAF0268314967
:100FF0001392139A0968521AB2F5967FFFF471AFF3
:10100000214A19460E2013700BF0F6FA69E71E4CC0
:10101000016823780E910E9983F0010311600E2070
:10102000194623700BF0E8FA15B030BD1C48216852
:101030000378029183F00103029D03701946062094
:1010400015600BF0D9FA31E7124D01682B78089141
:10105000089983F001031160052019462B700BF0ED
:10106000CBFA31E7FC31FF1FF498FF1F0C2DFF1F57
:101070009A2DFF1FDC29FF1F3422FF1F302CFF1F7A
:101080003522FF1FE02FFF1FE029FF1F082DFF1F44
:10109000102DFF1F882DFF1F902DFF1F4022FF1FC7
:1010A000EC29FF1FD829FF1F2C2CFF1F1820FF1F22
:1010B0002022FF1F1C22FF1F2DE9F043C64EC74B05
:1010C000717B306995B000254FF0120E0124132773
:1010D00004932A460594039500952B46CDF808E025
:1010E000019709F0D1FD32466021BD4808F09EFF0E
:1010F000002800F00E822E21BA48BB4FBB4E0CF0E8
:101100002FFBBB480CF0B4FD2946B54809F032F975
:101110002A462946B24809F067F81421B5480CF070
:101120001FFBB3480CF0A4FDB34BB4481D704FF443
:1011300080710CF075FF21462A200BF071FA2146D0
:1011400029200BF06DFA214628200BF069FA294678
:101150002A200BF051FA294629200BF04DFA294696
:1011600028200BF049FA214606200BF059FA2146B7
:1011700005200BF055FA21460E200BF051FA2146BE
:1011800027200BF04DFA9E4B3C70214606201C7028
:1011900034700BF031FA397805200BF02DFA3178E4
:1011A0000E200BF029FA02211C200BF039FA954988
:1011B000954808F071F99549934808F06FF99449FA
:1011C000914808F06DF993498F4808F06BF99249FE
:1011D0008D4808F069F932218B4808F057F94FF42F
:1011E000FA61894808F056F94FF4FA71864808F018
:1011F0004FF9FFF715FB2146884807F0F1FA214621
:10120000874807F0EDFA2B46864A84480095294620
:1012100007F0E4FC2B46834A81480095294607F0F5
:10122000DDFC21467D4807F073FB21467C4807F032
:101230006FFB2146794807F0E7FA2146784807F026
:10124000E3FA794B79489A7B082122439A73D97340
:1012500008F066FB08F05CFB022800F062811B21AD
:1012600073480CF07DFA62480CF002FD012008F092
:1012700065FB08F03BFB044608F028FB054608F038
:1012800015FB814608F0E2FA064608F0EFFA074639
:1012900008F0FCFA80460BF0C9F9664BCDF80090D7
:1012A0001968CDF80C80401A2B46224662490490FA
:1012B000029701966148624C0FF078F85F480FF092
:1012C000FFF801465D480CF04BFA49480CF0D0FCA1
:1012D00004F591655B4B5C4A1A6028464FF00001AB
:1012E00006F0DAFB2846C4F8845405F0FBFF00281A
:1012F00000F0708155493E48FFF780FAFFF7DEFBAA
:10130000182153480CF02CFAD4F878344C4A002BAE
:1013100000F05881D969013900230A2234480CF0C1
:10132000CDFC33480CF0A4FC17214A480CF018FA05
:10133000D4F87804424B002800F03C8105F0F2FA22
:10134000014600230A222A480CF0B8FC28480CF079
:101350008FFCD4F878043A4B002800F0248105F083
:10136000E1FA41F28733984240F206813A4B3B481A
:101370001C6017210CF0F4F9394E042528460AF0B8
:101380004FFF01350A2D06F8010BF7D1344D2846E1
:10139000FFF73CFB20B9334B93E803002860A9809A
:1013A000314E0C25374628460AF03AFF0135102DFC
:1013B00007F8010BF7D12C4D2846FFF727FB08B99A
:1013C0002A4B2B6005212A480CF0CAF908480CF07A
:1013D0004FFC234B274A4FE0C098FF1FA086010017
:1013E000DC1CFF1FD03A0100882DFF1FE029FF1FE2
:1013F0004012FF1F003B0100262DFF1F2422FF1F6C
:10140000EC29FF1FFD2400001027FF1F1D1C0000FA
:101410007D0400008504000099040000A032FF1F35
:101420008865FF1F7098FF1F7C2CFF1FD9040000E8
:10143000383B01008C2DFF1F703B0100DC2CFF1F8F
:101440005422FF1F9C32FF1FF1040000943B010057
:10145000C43B0100E03B01005032FF1F2C3C010067
:101460003822FF1FA03C01007427FF1F30303000DE
:10147000443C0100D427FF1F5B495C480EF096FFF7
:1014800017215B480CF06CF958480FF019F8014629
:1014900056480CF065F957480CF0EAFB564B574A92
:1014A0005749009657480EF081FF534B0096534A18
:1014B000554956480EF07AFFD4F87854544B002D15
:1014C00048D006AE29463046002501234D4A8DF806
:1014D00018508DF819508DF81A5004F06FF8054621
:1014E00025B343200AF0D2FD07EE900AFAEEEF7A18
:1014F000484C49493F48FDEEE77A17EE902AC4ED83
:10150000007A0CF0CDFB454B01221A7015B0BDE8F6
:10151000F0831F2142480CF023F936480CF0A8FB59
:10152000FEE740493348FFF769F99FE6D4F878149D
:10153000374B41B330460123344A8DF818508DF8AB
:1015400019508DF81A5004F039F80028C9D0FFF767
:1015500061FBC6E7D3F87C140029C2D006AE304642
:101560000123284A8DF849508DF84A508DF84B5088
:1015700002F0B2FB0546B3E72B491E48FFF73EF9E0
:10158000FFF79CFAF2E6D3F87C140029A9D0304684
:1015900001231E4A8DF849508DF84A508DF84B5062
:1015A00002F09AFBD1E7D3F87C040028E4D003F0E2
:1015B000B9FDD6E6D3F87C0400283FF4C1AE03F0B1
:1015C000B1FDBDE6D2F87C1400293FF4A5AED1F8F8
:1015D0002814A1E6D4F88414204601F051FE002816
:1015E0003FF488AE8CE600BF4C3C0100942DFF1FF9
:1015F000543C01004012FF1F3822FF1FD427FF1F59
:101600006C3C0100E831FF1F783C0100002AFF1FFD
:101610005422FF1F982CFF1F843C01006B07FF1F03
:10162000183B0100543B0100F83B01002DE9F04F4D
:10163000092185B08248834C834E844D0CF090F88C
:101640007F4B228803CB1F78B050B31802F1090EEC
:10165000A4F800E005F1200959601F72AA461AF8A3
:10166000012F7B49DFF8DC81774F03A80EF09EFE47
:1016700003A80EF025FF014603A80CF071F823889B
:10168000BDF80C20F252CA4503F102032380E6D1D3
:1016900070200CF013FEDFF8F4A1834608F0A4F9E3
:1016A0003846CAF800B00EF00BFF394602465846DD
:1016B00008F084FADAF80000664908F0A1FADAF8CE
:1016C000000070210CF0FCFD092163480CF048F883
:1016D000614AB8F8003003CA07EB030EF8501278DD
:1016E0008EF808200933CEF80410A8F8003015F859
:1016F000012F5749DFF84C81534F03A80EF056FED7
:1017000003A80EF0DDFE014603A80CF029F823889B
:10171000BDF80C20F2524D4503F102032380E6D1BF
:101720000023DFF86C914B494C484D4D1A4608F0A8
:10173000BFFF484605210CF013F8B8F80030D9F87F
:101740000000F8501F4499F804203A710533A8F8B6
:10175000003005F1400715F8012F3D4903A80EF0B0
:1017600025FE03A80EF0ACFE014603A80BF0F8FF1F
:101770002388BDF80C20F252AF4203F1020323800C
:10178000E9D138480CF074FA374B00933749384B9D
:10179000384A39480EF00AFE384B196829B34323FA
:1017A000354A374801F028FDF8B1364E344F002550
:1017B00002E004F03BF9013523480EF081FEA84217
:1017C0004FF0010203A936D9BB6C16F8010F8DF852
:1017D0000C001846002BECD1FB6C012203A9184623
:1017E000002BE8D002F0B0FDE5E70E2126480BF013
:1017F000B7FF1C480CF03CFA1F480EF061FE014692
:101800001D480BF0ADFF17480CF032FA0E480EF0F1
:1018100057FE01460C480BF0A3FF12480CF028FAC3
:1018200040F23A22002108480EF064FB0023238096
:1018300005B0BDE8F08F124801F0CAFCE6E700BF32
:10184000583A0100282DFF1FA42DFF1FBB1CFF1FAE
:10185000643A0100BC1CFF1F6C3A0100DC1CFF1F36
:101860007A1FFF1F4012FF1F7427FF1F6C3C0100EF
:101870003822FF1FD427FF1FE831FF1F5032FF1F00
:101880000032FF1FA32DFF1FA83C01000C27FF1FE4
:10189000C83A01002DE9F043664F87B00AF0C6FE52
:1018A000654A3B781060002B00F0A980634B1B68F1
:1018B000072B40F2A780624D624C63484FF4FE72E2
:1018C000214608F07DF8C4F8FC01FFF723F95F4AD0
:1018D000936C002B00F0A780DE695C48DFF8AC81D8
:1018E000DFF8AC9101F074FC03AC04220C215848E1
:1018F0000AF0DEFC3246204656490EF057FD94E8C9
:101900000700434603C328681A8053494FF4007206
:1019100008F054F92868514908F072F928684F4DC9
:1019200070210CF0CDFC0FCDC8F80A00C8F80E10DD
:10193000C8F81220C8F816300FCD08F10A06C8F80A
:101940001A00C8F81E10C8F822204046F361DFF8DC
:101950004481434D434E2A2240F24A210AF0A8FC1A
:10196000062148460BF0FCFEB8F80030B9F8041028
:10197000D9F80000E850EA18204606339180A8F80C
:1019800000300EF09DFD014620460BF0E9FE03CC31
:10199000B8F800302288E8501D440A332A81696073
:1019A000A8F80030304DFFF741FEDFF8ECE02F489B
:1019B0002F4A002400942346CEF8004021460470AC
:1019C00034602C482C6007F009F921462346284A48
:1019D0000094294807F002F943203C700AF056FBB6
:1019E00007EE900AFAEEEF7A244C25492548FDEEE1
:1019F000E77A17EE902AC4ED007A0CF051F907B09F
:101A0000BDE8F0839C0114490D4D1F48C4F50074D6
:101A1000224601EB83110AF08DF9224628681A4903
:101A200008F0CCF848E7D66C002E3FF456AF366984
:101A300053E700BF262DFF1FE42FFF1F782CFF1F49
:101A40000C27FF1F242AFF1F942CFF1F382DFF1F78
:101A50007427FF1FB83C0100D827FF1FBC1CFF1FC5
:101A6000A42DFF1F4822FF1F342DFF1F282CFF1F0E
:101A70007098FF1FA032FF1F8865FF1F982CFF1F63
:101A8000843C01004012FF1F1C20FF1F7827FF1F0E
:101A9000503A0100282DFF1F4422FF1F10B5214B93
:101AA0009A6C8EB0002A36D01F4BD3F87844CCB154
:101AB0002146012300241D4A8DF8004068468DF818
:101AC00001408DF8024003F079FDD8B1184B196838
:101AD00021B10123154A134801F08EFBFEF744FEA5
:101AE0000EB010BDD3F87C1461B101230F4A8DF8FC
:101AF000314068468DF832408DF8334002F0ECF802
:101B00000028E3D11B210B480BF02AFE0A480CF0F9
:101B1000AFF80EB010BDDB6C002BC5D1FFF7BAFEDD
:101B2000C2E700BF382DFF1F5422FF1F002AFF1FEE
:101B30005032FF1F003A01004012FF1FF0B5334B37
:101B40009A6C8FB00746002A59D0314DD5F87844A9
:101B5000BCB121466846002401233A466E468DF802
:101B600000408DF801408DF8024003F027FDD0B908
:101B70001B2128480BF0F4FD27480CF079F80FB032
:101B8000F0BDD5F87C140029F2D0684601233A460E
:101B90006E468DF831408DF832408DF8334002F0BA
:101BA0009BF80028E4D0D5F87844194B94B121462D
:101BB0003A460024022330468DF800408DF801405B
:101BC0008DF8024003F0FAFC0028D8D0304604F02B
:101BD000E9F9D4E7D3F87C140029D0D03A4602239F
:101BE00030468DF831408DF832408DF8334002F0A8
:101BF00073F80028C3D0304602F07AF9BFE7DB6CF7
:101C0000002BA2D1FFF746FE9FE700BF382DFF1F34
:101C10005422FF1F003A01004012FF1F08B5FFF7D2
:101C200039FEBDE80840FFF747BA00BF2DE9F04391
:101C30008BB007F05BFE044607F048FE054607F050
:101C400035FE804607F002FE064607F00FFE074607
:101C500007F01CFE854A864BCDF8008043F2E42154
:101C6000039050585958049122462B4681490297B7
:101C7000019605908048814C814E0EF097FB7E487E
:101C80000EF01EFC01467C480BF06AFDB4F800C063
:101C9000DFF8E4E106EB0C070EF1200875460FCDE6
:101CA000454538607960BA60FB60AE4607F11007C1
:101CB000F4D1286838600CF1240C7248A4F800C0F4
:101CC0000EF0FEFB6F4FDFF8DC816F4D01466D4873
:101CD0000BF046FD07CF2388F718F0500C337960DE
:101CE0004046BA60042123800BF03AFD2388D8F8DF
:101CF0000000F0500433238005F1090915F8012F85
:101D000062495E4FDFF8788109A80EF04FFB09A801
:101D10000EF0D6FB014609A80BF022FD2388BDF882
:101D20002420F252A94503F102032380E6D1DFF813
:101D30007891574D484604210BF012FD3B88D9F8A5
:101D4000000048F8030004333B8005F11008514FB0
:101D500014E02A780EF02AFB09A80EF0B1FB014628
:101D600009A80BF0FDFC2388BDF82420F2520135B0
:101D7000023345452380414A414B0AD03B784349D1
:101D80001A4609A8002BE4D1404909A80EF00EFB21
:101D9000E2E7DFF8188107934046052106920BF031
:101DA000DFFC069A079B1188D8F8000058503A4D7E
:101DB00098F804E00B44053183F804E0118005F144
:101DC000100814E02A780EF0F1FA09A80EF078FB5A
:101DD000014609A80BF0C4FC2388BDF82420F25268
:101DE0000135023345452380244A254B0AD03B78F0
:101DF00026491A4609A8002BE4D1244909A80EF067
:101E0000D5FAE2E7254F07933846052106920BF0F5
:101E1000A7FC069A079B118838685850204D3F79D7
:101E20000B4405311F71118005F1400715F8012F92
:101E3000164909A80EF0BAFA09A80EF041FB0146AE
:101E400009A80BF08DFC2388BDF82420F252BD4276
:101E500003F102032380E9D140F23A22102108481D
:101E60000AF026FA0BB0BDE8F08300BF8865FF1FBB
:101E7000A032FF1FC03C0100DC2CFF1F282DFF1FDC
:101E8000A42DFF1F002AFF1F2E1FFF1F643A010011
:101E9000F029FF1F6A07FF1F142AFF1F003D0100E2
:101EA0003A1FFF1FE83C0100F03C0100F83C010034
:101EB00010B52E492E4B002282B0012470200C60F8
:101EC0001A700CF0FBF9044607F08EFD294B1C60DC
:101ED000FEF75CFE284B2949294A2A480EF066FA8B
:101EE000294B196829B14323264A284801F084F96F
:101EF00030BB0E2126480BF033FC26480BF0B8FE11
:101F000020480EF0DDFA01461E480BF029FC21485E
:101F10000BF0AEFE1D4B204A9C6C04211180B4B125
:101F20000021204603F05CFC68B91C4B1C4A1B686E
:101F3000019301991B4B116001221A7002B010BD70
:101F4000FFF774FEE6E7204603F034FDEDE7DC6CB6
:101F5000002CEAD000220023204601F0C1FB00281B
:101F6000E3D0204602F07EF9DFE700BFE429FF1F3F
:101F7000262DFF1F0C27FF1F7427FF1F083D0100A0
:101F80003822FF1F002AFF1F5032FF1F382DFF1F6E
:101F9000A83C01004012FF1F242DFF1FF498FF1FD3
:101FA000102AFF1F282CFF1FF0B5424B1B7883B06F
:101FB000002B69D00AF03AFB3F4ADFF83CE13F4B87
:101FC0003F4C404F404E054692E803001860DEF853
:101FD0000000C4F8DF0138683C4AC4F8E301306807
:101FE0001971C4F8E7010423394E3A48138026607A
:101FF00006F0DEFF84F8EB013748384E06F0D8FFD4
:10200000002784F8EC01334884F8ED7106F0D6FF20
:1020100084F8EE01304806F0D1FF314B84F8EF012F
:1020200003CB4FF4FE72C4F8F101C4F8F5112D484A
:1020300084F8F071214607F0C3FCC4F8FC01FEF7F8
:1020400069FD33680133B3F5E11F33601FD24FF4EC
:102050000072FF211A48244E0DF04CFF0AF0E6FAF8
:1020600002AA401B0190337832F8040D1F49927880
:10207000A4F8F90183F001038A7005201946337032
:102080000AF0BAFA03B0F0BDFFF712FF92E7112190
:1020900017480BF065FB3B460A22316815480BF0E8
:1020A0000DFE14480BF0E4FD3760FFF7F3FBFFF77C
:1020B00003F8CCE7282CFF1F283D01002C2DFF1F23
:1020C000242AFF1F4822FF1F342DFF1F242DFF1F2E
:1020D00043414E32A032FF1F8865FF1FE429FF1FD6
:1020E000002AFF1F942CFF1F882DFF1F1D2CFF1F90
:1020F000143D01004012FF1F4422FF1FF0B5474B63
:10210000474D1B7885B0002B5BD1464A4649137872
:102110000968039145490398086083F00103194653
:10212000062013700AF068FA414A424E2B88127852
:10213000F25401332B8007F039FB04AA2B8842F8B4
:102140000C0D3D4C1068F050191D89B203F10802C6
:102150006068705092B22068E77BB0500C332B80DF
:102160000AF064FA354A2B881268D4F800E0801A25
:1021700004A920F07F403F06074341F8087D1A1D5F
:102180000868F050103403CC92B20C33B4189BB2F0
:102190001EF0005F2B80B050214D616006D1B3F579
:1021A000ED7F01D9FFF700FF05B0F0BD244A137899
:1021B00083F0010319460E2013700AF01DFA2B88D4
:1021C000EDE70AF033FA2B881E4A1F4C191F82FBD9
:1021D0000123CA17C2EB2312322303FB1213206020
:1021E000002B92D1194C216807298ED8184A194B17
:1021F00002EB8112013A03F1400012F8011F03F8CB
:10220000011F8342F9D1144B14491868402207F08A
:10221000D5FC23680133236077E700BF262DFF1F1D
:10222000242DFF1FEC29FF1FF498FF1F102AFF1F0A
:10223000742CFF1F242AFF1F582CFF1F8C2DFF1FFB
:10224000E029FF1F1F85EB51E42FFF1F782CFF1F94
:10225000D827FF1F9B2CFF1F0C27FF1F9C2CFF1F45
:1022600030B5364B1B7887B00546002B56D1344B22
:10227000344C1B78002B42D12368324913F00054B0
:1022800012D0314B1B78002B32D1304A1368013306
:1022900013602F4A137883F0010319460E20137040
:1022A0000AF0AAF907B030BD2A4A10461A40824205
:1022B000F8D10B7C03F0F003102BF3D1224B26480E
:1022C0001B7826494474032530228474C573016049
:1022D000027433B3012BE5D1214B224A1B680593CD
:1022E000059B12689B1A012BDCD9FEF77BF9D9E715
:1022F000012BCED11C4A136801331360C9E7039543
:1023000004F1100393E803000F4A137802938DE859
:10231000030094E80F00FEF789FBADE7FFF7EEFE40
:10232000A5E70F4B114A1B680493049B12689B1A84
:10233000012BB7D9FEF73AF9B4E700BF6B07FF1FCF
:10234000272DFF1F582CFF1F742CFF1F002DFF1F70
:10235000E029FF1F00F9DA007C2CFF1FF900DA18D2
:10236000F498FF1F2022FF1F042DFF1F1820FF1FBE
:10237000454BD3F878042DE9704300286FD0C46929
:10238000057904F0CFFA013C064618213F480BF0CE
:10239000E7F900230A2221463D480BF08FFC3C4818
:1023A0000BF066FC17213B480BF0DAF900230A22F8
:1023B000314637480BF082FC35480BF059FC1521AB
:1023C00035480BF0CDF900230A22294630480BF09E
:1023D00075FC2F480BF04CFC112130480BF0C0F974
:1023E00028460CF0BFFC8046894630460CF0BAFC0B
:1023F00042464B460CF02CFD00224FF081430CF07E
:1024000027FD1FA3D3E900230CF04CFE41EC100B79
:1024100002211F480BF09CFC1D480BF029FC1221E7
:102420001F480BF09DF920460CF09CFC42464B46A1
:102430000CF00EFD00224FF081430CF009FD10A3BB
:10244000D3E900230CF02EFE41EC100B02211048C2
:102450000BF07EFC0E48BDE870430BF009BCD3F8CE
:102460007C0448B190F83D34D0F8284401259D40C3
:1024700002F058FE064688E705460446064684E70D
:102480000000000080842E415422FF1FC43B010045
:102490004012FF1FE03B0100303D0100483D0100BC
:1024A0005C3D010000B50E4B0E4A1B680E4883B020
:1024B000019301990D4B1160012200211A7006F061
:1024C00027FA00210A4806F023FA102109480BF0E8
:1024D00047F909480BF0CCFB03B05DF804FB00BFE3
:1024E000F498FF1F4C22FF1FA032FF1F0D2AFF1F71
:1024F0008865FF1F703D01004012FF1FFFF7D2BF2C
:1025000010B50B4A0B4C0C480023012123701370AB
:1025100006F0FEF90121094806F0FAF911210848F0
:102520000BF01EF90748BDE810400BF0A1BB00BF3F
:102530003E22FF1F0D2AFF1FA032FF1F8865FF1FCD
:10254000843D01004012FF1F38B517210F48104C81
:102550000BF006F943F2E4250E4B0A2259592046A6
:1025600000230BF0ABFB20460BF082FB17210A483F
:102570000BF0F6F8094B204659590A2200230BF0BC
:102580009DFB2046BDE838400BF072BBB83D010012
:102590004012FF1FA032FF1FD03D01008865FF1FC2
:1025A00010B514210E480F4C0BF0DAF80E4B0A222E
:1025B0001968204600230BF081FB20460BF058FBE6
:1025C00014210A480BF0CCF8094B204619680A225E
:1025D00000230BF073FB2046BDE810400BF048BB16
:1025E000E83D01004012FF1F002DFF1F003E0100CB
:1025F000042DFF1F70B586B0FFF74CF9184B194C2E
:10260000194E00256420C3F87854C3F87C540AF0AE
:1026100031F82946204605F03FFA2046346004F0A0
:1026200061FE40B1112111480BF09AF810480BF0EF
:102630001FFB06B070BD0E4B0E4A316801A802F0B8
:1026400061F804210C480BF08BF809480BF010FBE3
:1026500064200AF00FF8FEF731FA06B070BD00BF33
:102660005422FF1FA427FF1F242CFF1F183E010028
:102670004012FF1FE82FFF1F2C3E01002DE9F04103
:10268000432090B009F002FDAA4BAB4A1B681060D2
:102690009842C0F2A281A94C09F0C8FF2368C01A71
:1026A000B0F57A7F00F29581A549A64806F0FEFBB9
:1026B000002840F08381A249A34806F0F7FB0028D8
:1026C00040F02D81A14CA24D23680193019B2A6803
:1026D0009B1AB3F57A7F04D39E4B1B78002B40F0F6
:1026E0000C81FEF7D3FB9C4A1378002B00F09C80F2
:1026F0009A4F3B78022B236800F20681984A039395
:10270000039B106891491B1AFA2B54D90B68954DFD
:1027100005930598DFF88CE209682B88924E0491A6
:10272000DEF800C036F81330049910608F48DFF8E7
:1027300084E20374CCEB01021B0A03214374012AD7
:102740004FF00003C173C0F800E0837401D9FDF7B6
:102750002DFF874B1B6853B12368864A0693069B5F
:1027600012689B1A012B02D98048FDF73BFF824A71
:10277000137883F0010319460E20137009F03CFF13
:102780002B88784A01339BB21A2B40F233813B7875
:102790007A4D013300243B70148020461B210BF03E
:1027A0002DFC013436F8102035F8023F2A801B2C0E
:1027B00026F81030F1D10AF0A9FF01282EDD704C67
:1027C000704978230A220CA80BF0BEFB0CA9204606
:1027D0000BF090FC0CA80BF01BFC6B490CA80BF049
:1027E00057FC0CA920460BF0D5FC05460CA80BF0B5
:1027F0000FFC002D7ED165490CA80BF049FC0CA9FB
:1028000020460BF0C7FC06460CA80BF001FC002E7E
:1028100000F0F2805E4B1D700AF086FF5D4806F006
:10282000CDFE10B0BDE8F0815B4A11780029C2D01E
:102830005A4F3978022900F2DA802368584A0893FF
:10284000089B116841485B1AFA2BB4D90368454DBF
:102850000A930A9E534900682B88DFF85C8109902F
:10286000D1F800E0414838F81330099916604374F4
:10287000CEEB01021B0A4C4E837408210223012A6D
:10288000C1730660037401D9FDF790FE384B1B68D5
:1028900053B12368374A0B930B9B12689B1A012B89
:1028A00002D93248FDF79EFE334A137883F00103C4
:1028B00019460E20137009F09FFE2B88294A013318
:1028C0009BB2082B40F296803B78384D264E013360
:1028D00000243B701480204609210BF08FFB01344B
:1028E00035F8023F36F810202A80092C28F81030DD
:1028F000F1D160E7FFF7D2F88EE7FEF7CBFF236850
:102900000293029B2B60ECE60793254B0798224924
:1029100018600023012008703B7013704BE7144AC5
:102920002349136801330124184613600C70FFF724
:1029300097FCC7E6982CFF1F702CFF1FF831FF1F74
:10294000582CFF1FA032FF1F8865FF1FF498FF1F40
:10295000102AFF1F282CFF1F0D2AFF1F5022FF1FC8
:102960004C22FF1FDE2FFF1F3407FF1F7C2CFF1F91
:102970004822FF1F2022FF1FE029FF1F3207FF1FF1
:102980002422FF1F4012FF1F583E01005C3E010041
:102990006B07FF1F1027FF1F3E22FF1F5122FF1F43
:1029A000E829FF1F1820FF1FF9FFDA186A07FF1F29
:1029B000742CFF1FF9FFEA186C07FF1FA64AA749EE
:1029C000136801330024184613600C70FFF748FCAD
:1029D00071E609F02BFE206066E6FEF75BFF212121
:1029E0009F480AF0BDFE9F480BF042F953E63B704A
:1029F0001370E0E61380DEE69B490CA80BF048FB61
:102A00000CA920460BF0C6FB05460CA80BF000FBFA
:102A10007DB996490CA80BF03BFB0CA920460BF0A6
:102A2000B9FB05460CA80BF0F3FA65B1FEF732FFCF
:102A3000F2E6FEF741FB0C218D480AF091FE894831
:102A40000BF016F9E8E68B490CA80BF021FB0CA95A
:102A500020460BF09FFB05460CA80BF0D9FA15B1E8
:102A6000FFF786FCD8E684490CA80BF011FB0CA9F3
:102A700020460BF08FFB06460CA80BF0C9FABEB13E
:102A80007E4CD4F8780430B100F23C402B462A4604
:102A9000744903F063FDD4F87C0400283FF4BCAE15
:102AA000002300F588601A466E4901F05FF9B3E62D
:102AB00073490CA80BF0ECFA0CA920460BF06AFB4A
:102AC00005460CA80BF0A4FABDB16C4CD4F8780400
:102AD00030B1334600F23C400E22624903F03EFD25
:102AE000D4F87C0400283FF497AE00F588600023FA
:102AF0000E225C4901F03AF98EE662490CA80BF00F
:102B0000C7FA0CA920460BF045FB05460CA80BF0B4
:102B10007FFA15B1FFF76EFD7EE65B490CA80BF05E
:102B2000B7FA0CA920460BF035FB05460CA80BF0B4
:102B30006FFA15B1FFF708FD6EE6544D54490CA825
:102B40000BF0A6FA28460CA90BF024FB06460CA8AD
:102B50000BF05EFA16B1FFF723FD5DE64D490CA8B8
:102B60000BF096FA0CA928460BF014FB06460CA8AD
:102B70000BF04EFA3EB1484B48493A4801221A70D0
:102B8000FDF73CFE48E646490CA80BF081FA0CA97B
:102B900028460BF0FFFA07460CA80BF039FA17B1DC
:102BA0003D4B1E7038E63F490CA80BF071FA0CA99A
:102BB00028460BF0EFFA06460CA80BF029FA16B1DE
:102BC000FFF770FC28E638490CA80BF061FA0CA955
:102BD00028460BF0DFFA07460CA80BF019FA17B1DC
:102BE000FFF78EFC18E631490CA80BF051FA0CA93E
:102BF00028460BF00BFB06460CA80BF009FA76B141
:102C00003946042228460BF025FB28463B460D2278
:102C10000CA90BF005FB0CA8FDF716FEFCE52449FA
:102C20000CA80BF035FA0CA928460BF0EFFA074672
:102C30000CA80BF0EDF9002F3CD0314604222846B9
:102C40000BF008FB284633460D220CA90BF0E8FADE
:102C50000CA8FEF773FFDFE54422FF1F742CFF1F53
:102C6000343E01004012FF1F643E01006C3E010033
:102C7000983D0100703E0100743E01005422FF1F88
:102C8000783E0100803E0100883E01002422FF1FA3
:102C9000903E0100983E0100272DFF1FA83D010036
:102CA000A43E0100B03E0100BC3E0100C83E010050
:102CB000D03E01007C490CA80BF0EAF90CA928468B
:102CC0000BF068FA06460CA80BF0A2F91EB1774883
:102CD000FDF70AFEA0E576490CA80BF0D9F90CA97E
:102CE00028460BF093FA07460CA80BF091F967B150
:102CF0003146032228460BF0ADFAAB68052B42D0D3
:102D00006C496D48FDF77AFD86E56C490CA80BF01F
:102D1000BFF928460CA90BF079FA05460CA80BF070
:102D200077F9002D5CD00622002165480BF092FA5D
:102D300063480BF0ABFA0CA90023042260480BF0A7
:102D40006FFAA2685F4B60490020032A186019805F
:102D500099703BD0022A32D0012A04BF9DF830205E
:102D60009A705848FDF752FE20B304220C215548B2
:102D700009F09EFA55495048FDF732FD51494E4839
:102D8000FDF73CFD48E54E480BF080FA0023062293
:102D90004F494B480BF044FA062204214C4809F0F5
:102DA00087FA4C494448FDF71BFD49494248FDF765
:102DB00025FD31E548494048FDF720FD2CE59DF80B
:102DC00030109DF8312059709A70CAE79DF8300094
:102DD0009DF831109DF83220187059709A70C0E734
:102DE0003E490CA80BF054F90CA935480BF0D2F968
:102DF00004460CA80BF00CF9002C50D038492E4892
:102E0000FDF7FCFC37492C48FDF7F8FC36492A4809
:102E1000FDF7F4FC35492848FDF7F0FC3449264815
:102E2000FDF7ECFC33492448FDF7E8FC3249224821
:102E3000FDF7E4FC31492048FDF7E0FC30491E482D
:102E4000FDF7DCFC2F491C48FDF7D8FC2E491A4839
:102E5000FDF7D4FC2D491848FDF7D0FC2C49164845
:102E6000FDF7CCFC2B491448FDF7C8FC2A49124851
:102E7000FDF7C4FC29491048FDF7C0FC28490E485D
:102E8000FDF7BCFC27490C48FDF7B8FC26490A4869
:102E9000FDF7B4FC25490848FDF7B0FCBCE4244923
:102EA0000548FDF7ABFCB7E4D83E0100E831FF1F51
:102EB000E43E0100FC3E01004012FF1F303F0100D4
:102EC0002422FF1F7427FF1F30303000383F0100DD
:102ED0003822FF1FE83E0100503F0100683F01001B
:102EE000703F01008C3F0100D03F010020400100F5
:102EF0005C40010080400100A0400100C44001008E
:102F0000E840010010410100484101006C4101000E
:102F1000A4410100D8410100F8410100184201001C
:102F200060420100A8420100DC4201002043010090
:102F3000904301002DE9F04F93B009F025F97F4B44
:102F40007F48804D804E814FDFF85CA2DFF85C92B5
:102F5000DFF85C82002483F80F4383F8304383F862
:102F6000314306F0F9FC7A4B7A49C3F898644FF084
:102F7000260B794EC3F878442A46C3F87C4483F87C
:102F8000944483F8AB44C3F8AC44C3F8887483F822
:102F9000A8B4C3F8B06418460CF0DEFB6F49704E5D
:102FA0000C714FF47A738B6001936E4B0C732A464D
:102FB0008C64CC640B60084651460CF0CDFBDFF806
:102FC000F4E1019BCEF808308EF804408EF80C40F6
:102FD0007046644BCEF800302A465146CEF8484041
:102FE000CEF84C400CF0B8FB214648460BF050F8A8
:102FF0002A46414648460CF0AFFBDFF8BC915A48E0
:1030000001231A461C2106F00FFA214648460BF010
:103010003FF82A46414648460CF09EFB09F006FB65
:10302000524B186009F002FB514B186009F0FEFA90
:10303000504B514A19680391DDF80C9019680491BE
:10304000DDF8108019680591DDF814C01968069143
:1030500010604A48DDF818E019680791C0F8009040
:103060004748DDF81CA019680891C0F80080454861
:1030700008991A680992C0F800C0DFF840814248F8
:10308000099AD3F80090CDF82890C8F800E0C0F86D
:1030900000A0DFF82C81DFF82CC13C48DDF828E0E7
:1030A000C8F80010CCF80020C0F800E01A680B92B5
:1030B000DDF82CA01A680C92DDF830901A680D9299
:1030C0000D991A680E920E981A680F92DDF83C80DE
:1030D0001A681092DFF8F0E0DDF840C01B68119329
:1030E000194BCEF810302A4BCEF800702A46294DE5
:1030F000C3F80090284B8EF820B0C5F800A0DDF88A
:103100004490DFF8C8B0254F254DC3F80090124B0E
:103110008EF80C40CBF800103860C5F800C021498B
:10312000C6F8008070468EF82340CEF82830CEF8DE
:1031300024400CF011FB13B0BDE8F08FDC1CFF1F26
:10314000942CFF1F3007FF1F204601007846010026
:103150005422FF1F8104000003200038382DFF1F78
:103160002C2CFF1FDC3901001027FF1F8C2DFF1FA7
:10317000E42FFF1FF498FF1FF831FF1F4022FF1FAD
:10318000E02FFF1F102DFF1F302CFF1F2022FF1FDD
:103190004C22FF1F1C22FF1F342CFF1F102AFF1F71
:1031A000D829FF1F79040000AD040000142DFF1F73
:1031B00011E000000032FF1F2422FF1F0C2DFF1F13
:1031C000DC29FF1F1820FF1FA427FF1FE829FF1F6E
:1031D00010B50446806C28B102F062F910B10023EA
:1031E000A36410BDE06C28B100F0BCF810B100235E
:1031F000E36410BD002010BD00293BD02DE9F04153
:103200000C46054698461746FFF7E2FFD4F8786467
:10321000B6B105F11001242005F03EF9002101703E
:1032200041708170D4F87814A86443463A4602F09D
:10323000C5F910B10120BDE8F081A864BDE8F081B6
:10324000D4F87C34C3B105F11001382005F024F91D
:1032500080F8316080F8326080F83360D4F87C14F4
:10326000E86443463A4600F037FD0028E2D1E864BE
:10327000BDE8F081002070470020BDE8F08100BF6C
:1032800070B500260546C0F88014C0F87864014681
:103290004FF48F6005F000F90446466001F0F6FC3B
:1032A000C4F8106204F5037001F0F0FC84F83C648B
:1032B00084F8716484F8726484F87364D5F8806467
:1032C000C5F87C4431462046012201F0A7FD68B1D3
:1032D00004F58866304600F045F82146304600F097
:1032E000ADF850B11E4B01201D6070BD0246314645
:1032F000204601F093FD0028EAD10026C5F87C6441
:1033000029464FF48C6005F0C7F8C67180F83C641C
:1033100080F83D6480F83E64D5F88064C5F8780490
:1033200001223146044603F055FB80B104F23C46CD
:10333000304602F0B5F82146304602F047F9002841
:10334000D0D1074B00201860C5F8780470BD024644
:103350003146204603F03EFB0028E7D1F1E700BFED
:103360005032FF1F10B5044600F0D6FE002384F84B
:10337000313084F8333010BDF0B50878202803D1FF
:1033800011F8010F2028FBD051600878002851D097
:103390002F282BD05C2820D0A0F12204E4B21D2CD1
:1033A0001DD9DFF894E04E1C00247C28A0F12005F4
:1033B000374612D05E2D10D816F8010BA0F1220569
:1033C000EDB2013478B32F2811D05C282EFA05F71E
:1033D00003D01D2DE9D8FD07E7D50020F0BD164D1F
:1033E00025FA04F4E607DCD50020F0BD00240F190F
:1033F0003E4625462F2002E016F8010F0135202811
:10340000FAD02F28F8D02944196044B1394611F870
:10341000013D2E2B01D0202B08D1013CF7D12046B5
:1034200010600120F0BD1F600F19EFE7FF2CF6DDE3
:103430000020F0BD1960F3E70101003590F831205C
:103440000AB10020704738B504460D4611463822AF
:103450000CF050FD4023012084F8313084F8330013
:10346000256238BD2DE9F04700F1240307468A465E
:1034700093E8070084B097F831300DF1040888E82C
:103480000700002B3AD097F83030012B36D94FF097
:1034900001090024B9F1010F14BF20224022414646
:1034A000386A01F0B7FD012828D100224146386A68
:1034B00001F096FD10B30378C12B1FD1054604F12E
:1034C0000F0635F8021FA9B1DAF800307E2994BF43
:1034D000C9B23F211B68013450469847A642F0D13B
:1034E00009F1010997F830305FFA89F94B45D1D8D5
:1034F000304600E0204604B0BDE8F087002004B06C
:10350000BDE8F0872DE9F04790F833300446D8073E
:1035100082B040F1B2800D465906164640F1B8809F
:10352000D4E90001D4E9042310EB060841F10009B5
:103530004B4508BF4245C0F0B180002E00F0B0807E
:10354000A146F9E80623B04655E0134371D194F83B
:1035500031305B064CBFD0F82C14E169A16190F8C2
:103560003DE4D0F8243402397F0A01FA0EF2F9184A
:103570001144BAF1000F48D1B8F5007F45D3D0F817
:103580001432994241D0B8F5806F59D394F8332062
:1035900052064FEA582A07D4012202FA0EFEC7EB60
:1035A0000E07BA4528BFBA4699424FEA4A270CD3BC
:1035B0000AEB01029A4208D900F50370019101F06B
:1035C000CBFB002859D0206A0199D0F83804026852
:1035D0005346D2F80CA02A46D04700284DD0384692
:1035E0000021D4E9002312184B41B8EB07083D44F1
:1035F000C4E9002354D0206AD0F830741740C7F3D0
:10360000080A002FA1D0A169A9E700F503700022E4
:1036100001F042FB88B3CAF50077474528BF47460B
:1036200000EB0A013A46284608F084FB38460021A0
:10363000D7E794F8333059060FD5A16901318DE7EA
:10364000D0F8380403682A469B689847A8B14FF41D
:10365000007000214FF40077C3E74A46A16901F0EA
:1036600005FD40B2002808DB02D0206AA16976E798
:1036700094F8313013F0500F14D194F832304FF0E9
:10368000FF3043F0020384F8323002B0BDE8F08727
:1036900094F831301A073FF543AF4EE7161A4CE75E
:1036A0004FF00008C8EB060002B0BDE8F08700BF8D
:1036B000F0B583B001220DF107010446D0E900679F
:1036C0008569FFF71FFF012808BF9DF80700A56166
:1036D00018BF4FF0FF30C4E9006703B0F0BD00BF72
:1036E0002DE9F04F90F831E0856983B00446BEF1D2
:1036F000000F1BD0D0E90001994208BF9042164646
:103700001F463BD056EA070307D10023A3610120DF
:10371000C4E9006703B0BDE8F08F1EF0080F0AD0BF
:10372000D4E90423BB4208BFB24204D2A561002001
:1037300003B0BDE8F08F236A019393F83DC494F879
:1037400033A00CF1090C5FFA8CFC16F1FF3247F143
:10375000FF33CCF1200803FA08FB22FA0CF242EA0C
:103760000B02ACF1200B23FA0BF31AF0400F42EAE4
:10377000030205D0E3691A44A261C8E70120D7E734
:1037800010F1FF3941F1FF3A29FA0CFC0AFA08F866
:103790004CEA080C2AFA0BFB4CEA0B0C6245534628
:1037A00017D21EF0400F16BF019BE369D3F82C34EB
:1037B000A361904604F118094A46B8F1000FA6D05B
:1037C000A169206A01F052FC08F1FF380028F3D10A
:1037D000ACE750EA0103E4D0CCEB0202E9E700BF1A
:1037E0002DE9F04F93B090F8314000920D469DF8CE
:1037F0007010029106462CB99A4695F8313013F0B4
:10380000500F07D1002086F8310086F8330013B03E
:10381000BDE8F08F009B002B00F01181224651463D
:10382000009801F01DFD95F831300490002B40F018
:10383000FB80B84A0AF10E0382FB03121A44DB171D
:10384000C3EBE203029ADBB202F0070205930233F4
:103850004FF000095FFA83FB42F0400301924C46AF
:103860004F46039320220AA92846FFF74BFE002863
:103870003DD02028C6D19DF828301A0663D4002CEC
:103880005ED12A68A9690791203A08920134E4B20E
:103890006BB3C02B00F09E80C12B5FD0852BE1D194
:1038A0003822002130460CF025FB9DF82C309DF885
:1038B000292086F8302003F03702DB0658BF42F09B
:1038C000080286F831202B68296AAA697262203BB7
:1038D0003162B36295F83330C3F3801386F82C302D
:1038E00020220AA92846FFF70DFE0028C1D1029B1D
:1038F00003F04203422B85D1009B002B82D05C4514
:103900000DD39EE020287FF47DAF24B92A68A969F1
:103910000791203A0892DCB2A34540F2928020221F
:103920000AA92846FFF7EEFD631C0028EAD12846C5
:10393000AF6900F021FC00283FF464AFAF61EBE712
:103940005C45A5D2A2E7B9F1000FA2D15C4538BF12
:103950000024852B86D14FF00109A1E7C7EB0A08A7
:103960005FFA88F8B8F10F0F28BF4FF00F084346F1
:103970003A4600990AA801F091FC00284BD0474430
:10398000FFB2BA457FF46EAF029B18063FF53AAF1F
:10399000029B13F0320F05D096F8313013F0110F5F
:1039A0007FF430AF029AD106134640F1B5809A07F2
:1039B0007FF528AF002200233046FFF791FE002854
:1039C0003FF420AF304600F04DFC00283FF41AAF22
:1039D00001201CE79DF829309DF8042086F833204B
:1039E0009F0744BF9DF80C3086F83330DDE90C2387
:1039F000DDE91001C6E904230F9BF361009BC6E9D2
:103A00000201002BC0D09DF82B30534505D04FF05C
:103A100000094F4626E7814624E7BDF82C30049A7A
:103A20009342F4D100271DE7D5E9002313433FF467
:103A300000AF00220023C5E90023AC61F9E604933E
:103A4000F7E695F833303822C3F38013002130466F
:103A500007AC8DF824300CF04DFA2B6A029D3362CE
:103A600094E8070005F00707082567F07D0986F848
:103A700031500AF11E0706F1240585E80700FFB260
:103A8000009DCDF800904FF0000818460122214615
:103A900001F0A6FA814600283FF4B4AE90F9002068
:103AA000002AFFF6AFAE202200210CF023FAB8F175
:103AB000000F53D0B8F1010F3FD0C8EB08120F2F01
:103AC000A2F11E024FF0C101384628BF0F20D2B22A
:103AD00089F8001058B109F1020300B203EB40006D
:103AE0002A4412F8011B23F8021B9842F9D108F16D
:103AF00001085FFA88F8C3451BD920222146306AA5
:103B000001F088FA01287FF47DAE0F3FFFB2306AE2
:103B1000BCE700BF89888888029B9B067FF558AF69
:103B2000D6E904233046FFF7DBFD00287FF450AFD1
:103B300068E6304600F0F0FA69E69DF80030C021F2
:103B4000032289F8001089F8012086F83330BDF887
:103B5000103089F803A0A9F80430C8E7059B5A1C67
:103B6000D2B285210B4B89F8001086F8302089F8F5
:103B700001201A68002ABAD00DF11A0106A8904750
:103B8000BDF81A10BDF81820A9F80810A9F80A20E5
:103B9000ADE700BF9C32FF1F90F8313053B930B50C
:103BA00091F8314014F0500483B00D4604D1204602
:103BB00003B030BD00207047D5E90045002504F072
:103BC0001F042C4302D0184603B030BD00921A46A1
:103BD000FFF706FE03B030BD2DE9F043064695B071
:103BE00096F83140039200208DF849008DF84A0084
:103BF0008DF84B0034B9994691F8313013F0500FDD
:103C00000D4603D1002015B0BDE8F08313782F2BAB
:103C1000144633D04FF00108214603AB04AA3046C6
:103C2000FFF7AAFB0028EDD0039B1B78002B3AD0AE
:103C30009DF81030059ACDF8008029463046FFF7F0
:103C4000CFFD0028DED0344606AF06F1300E2068E6
:103C50006168A268E3683D460FC5103474452F467D
:103C6000F5D120682860304600F056FA002386F827
:103C7000313086F83330039C06ADCDE70134039430
:103C800021782F29FAD0D1B1382206A800212F6A35
:103C90000CF030F94022012306AD0E978DF8492033
:103CA0008DF84B30B6E79DF81030059ACDF80090AE
:103CB00029463046FFF794FD15B0BDE8F083382261
:103CC00030462C6A0CF016F940230120346286F845
:103CD000313086F8330096E721B1DBB201F5886117
:103CE000FFF77ABF0846704770B586B006AD002270
:103CF0000469436905F8042D0E4619460A2200237B
:103D000020460BF09DFB303400EB8003A4EB430412
:103D100050EA010205F8014D0B460446EDD102AB15
:103D20009D4206D92946202201F8012D9942FBD156
:103D300002AD28460CF0C4FB3368024629465B6896
:103D40003046984706B070BD034610B5006A0C4671
:103D5000002203F1240101F043F928B1C168204693
:103D6000BDE8104004F094BB10BD00BF2DE9F04346
:103D70008FB000241746804600221E4600230D46C1
:103D80008DF831408DF832408DF8334007F002094C
:103D9000FFF7A6FC0122414668465FFA89F9FFF762
:103DA000FBFE002840D09DF83130980701D5F90777
:103DB00030D5002446B12B68013420211B682846E9
:103DC000E4B29847A642F6D1B9F1000F3FD17A0785
:103DD00033D429466846FFF745FB9DF8313013F090
:103DE000500F24D12B680D211B68284698472B685B
:103DF0000A211B68284698473B070BD59DF83130B0
:103E000013F0500F06D0B31CDBB23A462946684681
:103E1000FFF7ACFF6846FFF7A5FA01224146684666
:103E2000FFF7BAFE0028BED10FB0BDE8F0832B68C3
:103E30002F211B6828469847D4E729466846FFF794
:103E400053FF2B6820211B6828469847C1E7294665
:103E50006846FFF779FF2B6820211B6828469847A2
:103E6000B5E700BF8169F8B50446006A01B10131C8
:103E7000012200F079FF012806462FD901230146CF
:103E80001A46206A01F03AF8074638B3A06994F858
:103E9000333030B35A0613D5421C964225D023F056
:103EA000400284F83320E36905E0206A01F0E8F875
:103EB000A0B1A0692B465D1C834219462A46F4D363
:103EC0004FF0FF323146206A01F0DAF830B1A169D3
:103ED00059B13246206A01F0D3F830B9002738468C
:103EE000F8BD43F0400384F83330A6613846F8BD8E
:103EF0002DE9F04300F12403054693E8070085B05F
:103F000095F8333001AE86E807009A071BD5E969BA
:103F1000E9B9002401223146286A01F061F8013430
:103F2000E4B280B1037803F07F03037095F830307A
:103F3000A34231D3002CEDD020223146286A01F073
:103F400069F80128E6D0002005B0BDE8F0835B06E3
:103F5000286A1CD5D5E9022390F83D440934E4B21F
:103F600012F1FF3843F1FF39C4F1200709FA07F7CE
:103F700028FA04F2A4F1200329FA03F33A431A437E
:103F80000132002300F0BAFF0028C2D1DBE701F0C4
:103F900089F80028BDD1D6E72C6A0023204685F891
:103FA000313085F8333000F0D7FE0028CBD004F54F
:103FB000037000F0D1FE0028C5D0D4F8380403689F
:103FC0005B699847C0E700BF2DE9F04F00F1240A74
:103FD00006469AE8070087B00DF10C0888E807004C
:103FE0000027DFF830B1B9463C4600224146306A2E
:103FF00000F0F6FFFBB2054630B10078C0284DD086
:10400000C1282BD0852809D096F8323043F001031F
:1040100086F83230002007B0BDE8F08F96F83110F6
:10402000DBF8002095F8019001F03701A980AAB1D2
:10403000306A019390F80C1241F0010180F80C12E3
:104040000DF10A0102A89047BDF80A10BDF808203A
:104050002878019BA9812982EA816A82002115F8CA
:1040600001E0E20342EA54041EFA84F40129A4B2F6
:1040700001F101010DD01F29F1D999452CD0202241
:104080004146306A00F0C6FF012807F10107ACD0B5
:10409000BAE785280CBF04210221E0E796F8332017
:1040A00012F0400F6A7814BF42F0020222F00202BE
:1040B0006A70D6E90401C5E90201D6E90201F26994
:1040C0006A61C5E90601316A91F80C2242F00102E9
:1040D00081F80C222878C1E751460122306A00F0AD
:1040E0007FFF002890D0356A4480284600F034FED7
:1040F000002889D005F5037000F02EFE002883D03B
:10410000D5F8380403685B69984700283FF47CAF12
:1041100081E700BF9C32FF1F90F8312092B138B583
:1041200090F8332011060FD4056A0446284600F0A3
:1041300013FE88B994F8323043F0010384F832302A
:10414000002038BD0120704702F07F0280F8332044
:10415000BDE83840FFF738BF05F5037000F0FCFDFF
:104160000028E7D0D5F8380403685B699847002831
:10417000E0D0012038BD00BF2DE9F04190F831308A
:104180005906044663D48068236AD3F8343418444B
:10419000B0F1806F02D30020BDE8F0812046FFF728
:1041A00061FE0028F7D0266A96F80C32DA0706F589
:1041B000037550D4284606F5067600F067FD4FF4E7
:1041C0000072002130460BF095FE226AA36992F836
:1041D0003D04D2F82414A3F10208012708FA00F8DC
:1041E00017FA00F3884418BF002511D0D2F838041C
:1041F000036808EB05019B693246984701350028A2
:10420000C9D0226A92F83D3407FA03F3AB42EDD8E5
:1042100094F831305B0615D494F8333063F07F03A3
:1042200084F83330D2F83464D4E90223D4E90401A9
:1042300092194FF000077B4180197941C4E90223AC
:10424000C4E904012046BDE8F041FFF765BF006AFC
:1042500000F0A2FF98E7284600F07EFD0028A9D1D3
:1042600099E700BF90F833309A0718D5F0B5C569C3
:1042700083B08DB103F04003044603F0FF0083B91F
:10428000A169002941D10195E1612946206A00F028
:1042900009FF30BB002000E0012003B0F0BD00208A
:1042A0007047206AA16990F83D34D4E90267093368
:1042B000DBB216F1FF36C3F1200E47F1FF3726FAC5
:1042C00003F207FA0EFE203B42EA0E0227FA03F33E
:1042D0001A430132B1B1013D6D1A01312A440191F5
:1042E0000ABBD4E9000194F8333063F07F03C4E9DA
:1042F0000201C4E9040184F833302046FFF70CFFC3
:1043000003B0F0BD0195E161EAE702AA42F8040DAD
:10431000206A00F0ABFE40B20028BBDB0AD1019D51
:10432000002DDED0B1E70023019900F0E7FD002861
:10433000D7D1AFE74FF0FF32A169206A00F0A0FEAD
:104340000028ECD1A6E700BF2DE9F04F90F83330FC
:1043500085B09C07064601920AD496F8323043F0A5
:10436000010386F832304FF0FF3005B0BDE8F08F22
:104370005A078A4600F11281019B002B00F022812E
:104380003146F1E80623DDF8048003919346306A54
:10439000B569D0F830445B461C40C4F308094CBBF7
:1043A000002D00F0BE8096F833305B0640F1DD80D2
:1043B000D6E9022390F83D740937FFB212F1FF32BB
:1043C00043F1FF33C7F1200E03FA0EFE22FA07F184
:1043D000203F23FA07F741EA0E01F36939430B4402
:1043E0009D42C0F0B5803046FFF73CFD0028B4D0B8
:1043F000306AB569D0F8247490F83DE4640A023D4F
:10440000E11905FA0EF52944B9F1000F40F0828058
:10441000B8F5007F57D2D6E90423D6E90045B8F5B0
:10442000007F474628BF4FF400779D4208BF944263
:1044300034BF0122032200F5037000F02DFC002898
:104440008BD048443A465146B94407F073FCB9F55D
:10445000007F00F0928038460021D6E90023D6E99B
:10446000044512EB000B43EB010C65455A466346CD
:1044700008BF5C45BA44C7EB0808C6E9002309D267
:1044800096F8331064465B46C6E9043461F07F0158
:1044900086F83310B8F1000F7FF479AF5A466346BF
:1044A000D6E90201994208BF90427FD3474B1B686F
:1044B000002B00F0858096F83330019863F07F037D
:1044C00086F8333051E7B8F5806F2ED3012303FA15
:1044D0000EFEC4EB0E0ED0F814324FEA5824744589
:1044E00028BF744699424FEA442709D362189A427A
:1044F00006D900F50370029100F0C8FB306A0299FA
:10450000D0F83804056823465246EC69A0470028D5
:10451000A1D122E7C9F50077474528BF47460122C8
:1045200089E7F569BDB1B56164E7D0F81432994205
:104530002CD0D0F83804036852469B69984700286D
:104540003FF40BAF4FF4007000214FF4007784E785
:104550000135B5614EE73046FFF784FC00283FF493
:10456000FCAEB569F561306A44E72946039A00F06C
:104570007DFD00287FF43CAF35E7306A00F503701D
:1045800000F0EAFB00287FF466AFE6E600F5037072
:10459000029100F07BFB306A0299CAE7D0E904235C
:1045A000FFF79EF800283FF4D8AEE5E696F8331002
:1045B000019861F07F01C6E9022386F83310D4E642
:1045C0000198D2E6D6E900236AE700BF9C32FF1FBC
:1045D0008368C3F308038BB100210269D15401330E
:1045E000B3F5007FF9D1C3680269016810B41C6893
:1045F000A469184623465DF8044B1847012070470C
:1046000082680346C2F30802006930B481545D68D1
:10461000986840F2FF1401EB75010130A242596025
:10462000986002D0012030BC7047D86819680468CF
:104630001A69A4694D1C1D60234630BC184700BF91
:1046400038B50C46C9B20546FFF7DAFF00B938BDE8
:10465000210A2846BDE83840FFF7D2BF2DE9F843CC
:1046600000268046016086604660B0B200F0A0FD82
:10467000B042814605460DD001464046FFF7E0FFB7
:10468000A0B30136B6F5803FEFD34046BDE8F8430E
:10469000FFF79EBF741CB4F5803F14D1C6F5803778
:1046A000B7F5007F4FF480341AD2A9B24046FFF725
:1046B000C7FF0135D0B1A542F7D32E46E2E701345A
:1046C000B4F5803FEAD0A0B200F072FDA042F6D06F
:1046D000A71BB7F5007F03D2A642E6D34E46C4E738
:1046E0004FF6FF714046FFF7ABFF10B90020BDE861
:1046F000F883B9B24046FFF7A3FF0028F6D026465C
:10470000C0E700BF2DE9F04F16460A68C160066198
:104710008DB08146126908460F4698469047B0F51D
:10472000801F15D2B8F1000F0DD0D8F80030AB497A
:104730005B68152240469847D8F80030A8495B6866
:1047400040460F229847002420460DB0BDE8F08F68
:104750000222012301E090424CD90133DBB2202B2D
:104760004FEA4202F7D1A3F10B0252100121D4B259
:10477000914005940391013301245B1004FA03F383
:10478000049303FA04FA9B000193019BC01A20FAD8
:1047900002F303FA02F400214FF400723046029350
:1047A0004FF0010B0BF0A6FB0025FF230721FE2293
:1047B00086F8C21186F8C32186F8BFB186F8C0B169
:1047C00086F8C15186F8C43186F8C5313B68C6F811
:1047D000C6A14AF6552254449B69C6F8CA41A6F8B8
:1047E000FE212946324638469847B0B9B8F1000F45
:1047F000A2D1A8E71C2BB6D808221A2B059200F2EA
:10480000B0814FF4004301934FF4807303934FF44E
:1048100000534FF4804A0493B7E729464FF40072DF
:1048200030460BF067FBEB23337076209021452256
:104830006C4B7070B170F2701B68B464049C0B9385
:1048400034657465029CDDF82CE0F46558209DF811
:1048500014407564462141225423F564A6F86A5039
:1048600086F86D4086F870502024C6F864E03071F8
:104870004FF0040C4FF480754FF0090E80207171D9
:10488000B271F371C6F840A0C6F858A086F86EB0B1
:1048900034727472B472C6F860C0A6F8685006F13B
:1048A000770386F86CE006F2FD1186F86F00F422BB
:1048B00003F8012F9942FBD14AF655220023A6F8AE
:1048C000FE211C46012501E001330135A3F16A02F6
:1048D000012A04D9702BF7D0F25C02EB7404B5F511
:1048E000007FF1D13B6832469B6951463846984774
:1048F00000283FF47BAF3B6832469B690AF10C010C
:104900003846984700283FF471AF2A4600213046C8
:104910000BF0F0FA4AF65523A6F8FE310AF1090326
:104920000593731ECDF824900AF1010B069306F24D
:10493000FF15CDF820A09946CA464B4613F8012F23
:104940009D4202EB7404F9D13B6832469B6959469B
:104950003846984700283FF449AF3B6832469B6988
:104960000BF10C013846984700283FF43FAF059BF8
:104970000BF1010B5B45DFD1DDF82490CDF81CA0D5
:104980004FF40072DDF820A0002130460BF0B2FA9F
:10499000CDF82090DDF814900AF10B0B069B13F86C
:1049A000012F9D4202EB7404F9D13B6832469B69AA
:1049B00049463846984700283FF418AF3B683246CE
:1049C0009B6909F10C013846984700283FF40EAF67
:1049D00009F101035B4507D09946DFE7A0430100D9
:1049E00000440100F498FF1FCDF81490DDF82090EA
:1049F000331F06F5FE7243F8044F9342FBD13B6828
:104A000059469B6932463846984700283FF4EEAE37
:104A10003B6805999B690D31324638469847002816
:104A20003FF4E4AEB8F1000F06D0D8F80030894961
:104A30005B680C2240469847029B4FF400720021AD
:104A400030469D000BF056FA3346F82203F8132B3C
:104A5000049A0799524405F2072514466A0A10463B
:104A6000FF2201F8012F8B42FBD14FF0000B2346B0
:104A7000CDF810905C46AD0B81469B4604E0002CBF
:104A800068D00134A1451CD0B4FBF5F305FB1343FA
:104A90004BB9012270494046B8F1000F03D0D8F855
:104AA00000305B6898473B6832469B6904EB0B011A
:104AB000384698470028E2D1B8F1000F7FF43CAEA9
:104AC00041E6DDF81090B8F1000F30D0D8F8003092
:104AD00062495B68022240469847029C039B073468
:104AE000E40804F2FF156D0A9D423FF625AE4FF42F
:104AF0000072002130460BF0FDF9072333704FF0B0
:104B0000000B06E0BBF1000F7ED00BF1010B5D4501
:104B10002BD03B6801999B693246594438469847E7
:104B20000028EFD1B8F1000F7FF406AE0BE6029C2F
:104B3000039B0734E40804F2FF156D0A9D423FF61B
:104B400002AE4FF40072414630460BF0D3F9072312
:104B50003370D4E74FF40072214630460BF0CAF9A7
:104B60008FE74FF48071039105E6B8F1000F5ED036
:104B70003B494046FBF734FE039B4FEA4A0A0AEBE7
:104B800003014846FFF76AFD00283FF4D5ADD9F888
:104B90000830039AB3EB422F3FF6CEAD3149404681
:104BA000FBF71EFE4FF40072002130460BF0A2F915
:104BB0000323822281200221337086F82000716352
:104BC00086F84020D9F8042072647365039AD9F8F6
:104BD0000830B3650025B4630AEB420AF56504E0CA
:104BE000F5B1039B01359D4211D03B6832469B696C
:104BF0000AEB05013846984704460028F0D1B8F181
:104C0000000F7FF499AD9EE586F800B07DE7B8F11E
:104C1000000F3FF499AD40461349FBF7E1FD93E5E2
:104C20004FF40072294630460BF064F9D9E7039B34
:104C30004FEA4A0A0AEB03014846FFF70FFD002836
:104C40003FF481ADD9F80830039AB3EB422F3FF619
:104C50007AADA7E7B8430100283E0100DC4301001C
:104C6000C8430100E0430100F043010010B500F12A
:104C70000C0204464068A16803689B69984718B114
:104C8000237823F00103237010BD00BF00224FF0F2
:104C9000FF33027083607047F8B54568FDB18368E3
:104CA0008B42044617460E460ED00378DA0712D41C
:104CB000BB0716D504F10C0507F0010200231343CE
:104CC00023702846A660F8BD10F90C3B07F00102DE
:104CD00013432370F8BDFFF7C9FF0028E8D1002077
:104CE000F8BD6068036804F10C059B682A463146EC
:104CF00098470028E0D1F2E738B50C46D0F81C14EC
:104D0000154601EBD41100F503700022FFF7C4FF34
:104D100040B1A400C4F3080403595A1C04D02B600A
:104D2000012038BDFF2038BD002038BD38B50C4605
:104D3000D0F81C14154601EBD41100F503700122C4
:104D4000FFF7AAFF034628B1A400C4F3080401201A
:104D50001D5138BD38BD00BF0378DB0701D40120E9
:104D60007047FFF783BF00BF2DE9F84F804691469B
:104D70008B46002944D08F1ED8F828349F423BD25E
:104D800007F00705012303FA05F5EDB2C7F3C80ADA
:104D90003E463C46D8F82414002201EB143140462C
:104DA000FFF77AFFC0B110F80A100AE04A452AD08E
:104DB000A74210D0D8F82824944217D213F0FF0548
:104DC0000CD001340D424FEA4503A4EB0602EDD0AE
:104DD000A7422646EED10120BDE8F88F0AF1010A6C
:104DE000BAF5007F4FF00105DDD101E00026344621
:104DF0004FF0000A0125CDE70027BA460125C7E795
:104E0000D0F81874B8E7BBF1000F04D1B9F1010F65
:104E100008BFC8F81864B01CBDE8F88FF8B50446A0
:104E200000234FF0FF3600F50377C0F838144160D7
:104E3000C0F810121546384684F83C34237084F8C4
:104E40000C32A660C4F814621A461946FFF724FF14
:104E5000042D0CD8064650B15DB905222649F01C38
:104E60000BF09CFB18B996F86C30092B19D0002078
:104E7000F8BD6B1E00EB031393F8BE2112F07F0206
:104E8000F5D193F8C231002BF1D000EB051538466F
:104E9000D5F8B6512946FFF7FFFE06460028DCD1BB
:104EA000E5E7336D2B44C4F81C34736DC4F820342B
:104EB000B36D1D44C4F82454F36DC4F82834336E24
:104EC000C4F82C3496F86D3084F83D34012509334C
:104ED00005FA03F35A1EC4F818040146C4F8343422
:104EE000C4F8302420462A46FFF73EFF402384F8CA
:104EF0003C342846F8BD00BF104401002DE9F047BE
:104F000002398046D0F8280415468A18824238D8DB
:104F10009A46D8F81834BAF1000F35D1994238BF03
:104F2000C8F8181401F007040122D8F8243402FA52
:104F300004F4E4B203EB1139C1F3C8060122494677
:104F400040469144FFF7A8FED8B1871900F50070DC
:104F500017F8012B224214BF01260026564582EA8B
:104F600004024FEA44040CD0013D07F8012C15D08F
:104F700014F0FF04EED1B84226464FF00104E7D109
:104F8000DCE70020BDE8F0879942CBD89A42C9D926
:104F9000824228BF0022C8F81824C3E70120BDE8D8
:104FA000F08700BF70B582B002AE054646F8041D1A
:104FB0000024D5F8283401990133994202D9002000
:104FC00002B070BD32462846FFF796FE40B2002878
:104FD000F5DB04F10104ECD1204602B070BD00BF46
:104FE000F8B50E4696E82800D0F83014D0F82444DE
:104FF00090F83D742940023B04EB5121BB40194419
:1050000000F50370FFF748FE18B17368C3F3080397
:105010001844F8BD70B54C680D46A318D0F830148C
:105020006B6090F83D340C4009332244DBB222FA25
:1050300003F406463CB12B7A3BB12B6801332B605D
:10504000013C002CF7D1012070BDD6F82834296826
:105050000133994202D94FF0FF3070BD2A463046E5
:10506000FFF74AFE40B20128EAD070BDD0F82834DC
:1050700001338B4201D2FF207047FFF73DBE00BFD6
:1050800001290DD9D0F828340133994210B403D93D
:1050900000205DF8044B70475DF8044BFFF746BEF7
:1050A00000207047F0B50C4683B005460E46D5F893
:1050B000283401339C4202D9002003B0F0BD01AA7C
:1050C00021462846FFF718FE47B2002FF4DB012CDB
:1050D000F2D9D5F8283401339C42EDD8002221467C
:1050E0002846FFF723FE0028E6D0019B01349C42AE
:1050F0000BD1002FDBD13B46A21B31462846FFF7E0
:10510000FDFE0028D8D003B0F0BDA21B314600231D
:105110002846FFF7F3FE0028CED0019C002FCCD00C
:105120002646C4E72DE9F8430024D0F824648046DD
:1051300000F5037725463146002238460136FFF751
:10514000ABFD30B300F1FF3ED8F828C41EF8010FC4
:10515000FF2805F5805913D048B1082201231842D1
:105160004FEA430118BF0134013ACBB2F7D10835F9
:10517000AC450AD94D45DED01EF8010FFF28EBD112
:105180000835AC4504F10804F4D8C4EB0C00BDE8C4
:10519000F883BDE8F88300BF10B50446D0F82C149E
:1051A000FFF700FF94F83D340933DBB2984010BD9F
:1051B0007E2808D8A0F16103192B8CBF002320237F
:1051C000C01A80B2704730B40023234D352405E067
:1051D00035F8221081428CBF14461346E11A01298A
:1051E00003EB5102F4D89BB21B4935F823209042BF
:1051F00019D24B240023194D05E035F822108142C5
:105200008CBF14461346E11A012903EB5102F4D86E
:105210009BB2124A35F82310814204BF02EB83038C
:10522000588830BC704701EB8303821AD9788A42D0
:10523000DFDA93F90230012B08D023B19BB2184476
:1052400080B230BC70474EF2A033F8E702F00102A2
:10525000801A80B2E5E700BF444501001844010010
:10526000C9B110B40144D30343EA520310F8012B2F
:10527000A2F16104192C9CBF203AD2B212FA83F237
:1052800092B2D30343EA5202814292B2EBD110466A
:105290005DF8044B70471046704700BF43B370B4CD
:1052A00044887E2C1ED81344CD180A44023012F8CC
:1052B000013BE4B2A3F161011929A4F1610194BF9A
:1052C00020260026192994BF202100219B1B641A47
:1052D000DBB2E4B29C4205D1AA4206D030F8024FBC
:1052E0007E2CE4D9002070BC7047012070BC704750
:1052F0000120704738B504460D46242200210AF0EB
:10530000F9FDA560EB79102B08D0202B04D14023A8
:1053100001202370A07038BD002038BD202301205B
:105320002370A07038BD00BF024638B552F8105F38
:1053300004462946806801F09DFA50B155B12369B1
:105340000135AB42A37818BF03F0BF0363F07F03BE
:10535000A37038BDA37843F04003F7E72DE9F0418F
:10536000037803F020032BB903F0FF0441691F4BBE
:10537000994203D900263046BDE8F0810546FFF783
:10538000D3FF06460028F5D02969A86801F010FA75
:105390000746A86839462430052201F0D1F9804635
:1053A0000028E7D04FF4007221460AF0A3FDAB6855
:1053B0001A79012A10D9012403E0AB681A79A242B4
:1053C0000AD918680368E1199B6942469847013475
:1053D000E4B20028F1D1CDE79B7969694FF40072FE
:1053E00002FA03F311FA83F36B61C4E7FFFD1F00B8
:1053F00010B5044680680A462430A16901F0A0F97E
:1054000020B1A38803F00F0300EB431010BD00BFD1
:1054100030B590F90230002B83B0044619DBA56843
:1054200005F1240001F0BCF930B9637843F00103C1
:105430006370002003B030BD05F50C7001F0B0F9C9
:105440000028F2D0286803685B6998470028ECD0F0
:10545000F0E70121FFF7CCFF05460028E5D00378EF
:10546000E52BE2D023780D4A1B0744BFE369C361F3
:10547000236A126843831B0C838252B10DF106012B
:1054800001A89047BDF80430BDF806202B836B823D
:10549000EA82A37803F07F03A370C0E79C32FF1F6A
:1054A00010B50378044623B900232370A3700120AC
:1054B00010BDFFF7ADFF00232370A37010BD00BF28
:1054C00038B5037805460C46B3B928460021FFF7E6
:1054D0008FFFA8B1016842688368C568E5602160F4
:1054E0006260A360016942698369C569E561216100
:1054F0006261A361012038BDFFF78AFF0028E4D173
:10550000002038BDF0B5064693B0357801920020F2
:105510008DF824008DF825008DF826002DB91F4642
:105520000B7813F0700F0C4602D1002013B0F0BDC1
:1055300013782F2B104617D10130019003782F2BB1
:10554000FAD0002B35D0A16809A8FFF7D3FE0028B8
:10555000EBD0019809AC07E03046FFF759FF002374
:1055600001983370B37009AC01AA03A900F092FB53
:1055700003AA214601230028D7D0019D2D7830466B
:105580007DB100F0FFFD354609AC0028CDD00FCD30
:105590000FC40FCD0FC433782A682260002BDED0F1
:1055A000DAE73B4603AA2146304600F0EBFD13B094
:1055B000F0BDA1683046FFF79DFEB7E719B101F2D3
:1055C0003C41FFF79FBF0846704700BF03780BB10F
:1055D00000207047FFF78EBE2DE9F04F8378DF077C
:1055E00083B0054640F190800F4601780E07914642
:1055F00000F193808C0608D5826843691289C3EB59
:1056000042139BB2994528BF9946B9F1000F00F0AB
:10561000AA806B69AA6888064E464FF0000805F11B
:10562000100AC3F3080B3FD5116A01EB5321BBF1FC
:10563000000F53D1B6F5007F50D3D36A99424DD0B5
:10564000B6F5806F72D328788006C6F3472B06D450
:105650001079C8EB0000C0B2834528BF8346994249
:105660004FEA4B240BD35B44994208D202F1240049
:10567000019101F095F8002846D0AA6801991068B8
:1056800002685B46D2F80CB03A46D84700283BD0B7
:105690006B69361B234427446B6164D02978AA6860
:1056A0008806C3F3080BBFD492F8058008EA532894
:1056B000BBF1000F38D1B8F1000F35D1002B3FD12D
:1056C00049064CBF116A296A2961104601F070F839
:1056D000AA6808EB0001BBF1000FABD002F1240077
:1056E000002201F02DF878B1CBF50074B44228BF48
:1056F000344600EB0B012246384606F01BFBC7E799
:105700002B7813F0700F2FD16B784FF0FF3043F0F0
:1057100002036B7003B0BDE8F08FC36942699B1A46
:10572000994528BF994670E72969CEE71068036854
:105730003A469B6898470028E6D04FF40074A7E7E4
:105740000B0705D5AB785C0602D529690131BBE7AB
:1057500010462969524601F031F80028D4DBCFD039
:10576000AA682969B1E70026C6EB090003B0BDE8C5
:10577000F08F00BF70B582B001220DF10701044621
:1057800046690569FFF728FF012808BF9DF8070053
:10579000666118BF4FF0FF30256102B070BD00BFD9
:1057A00030B54369C3F3431583B0044605B189B9E5
:1057B00001220DF107012046FFF70EFF40B201283C
:1057C0000BD163691F336361A068303000EB451073
:1057D00003B030BD20334361F6E7002003B030BD95
:1057E0002DE9F041037807690446B3B142698A4262
:1057F0000E463AD041B92161A378666123F02003B7
:10580000A3700120BDE8F08118070AD499060BD5D2
:10581000A3681B89B6EB431FEED927610020BDE8C2
:10582000F081E1698E42F8D8D4F808E09EF806507D
:105830000935E9B2501E751EC840CD40A84200D8B7
:10584000B2B95B064CBFDEF82030236A236104F155
:1058500010084246002DCFD02169A06800F0AEFFAD
:10586000002805F1FF35F4DCD7E70120BDE8F08121
:105870002D1AECE72DE9F0410D4690460021242237
:1058800004461F469DF818600AF034FBA8682B6A8E
:10589000E36000F1300208F00F0302EB4312A06056
:1058A000A4F80480D17A0B0711D401F017012170FC
:1058B000D37AE67013F0180F04BF41F0080121708D
:1058C00017F0320F08D0237813F0110F04D0002006
:1058D0002070A070BDE8F08107F00705A570918ADF
:1058E000538BC66AA661FE0643EA014106D5BA0794
:1058F000EDD591B965F07F05A57002E02162D3690D
:10590000E361BB0602D40120BDE8F081E1692046D5
:10591000FFF766FF0028F6D1D9E700F0E7FF00287F
:10592000D5D0A578E6E700BF03781BB90B7813F054
:10593000700F01D1002070472DE9F0474E6916F035
:105940001F0782B021D191460D468046BA4601E03C
:1059500000276E6900212846FFF722FFA8B10378CF
:105960009BB12E2BF4D0E52BF2D0C27A110710D5C3
:105970000F2AEDD15A06ECD503F01F0790F80DA0C1
:10598000E7E700F05DF9824505D0002002B0BDE8F0
:10599000F087002FF5D100974B46C6F34F122946EA
:1059A0004046FFF767FFF1E703780BB1FFF730BD23
:1059B0000120704783789B071AD5036AB3B110B5ED
:1059C000016982B00446F1B9019301621946A068E9
:1059D00000F08CFFA8B1A37822786169E16163F0DF
:1059E0007F03A370EAB9012002B010BD0120704707
:1059F000002070476FF070422169A06800F00EFF30
:105A000058B90020F0E702AA002342F8043D80685C
:105A100000F0D4FE0028F4DBECD1019B002BDAD09F
:105A2000D4E72046FFF7F4FCDEE700BF2DE9F0479E
:105A300083789D07044607D4637843F001036370BD
:105A40004FF0FF30BDE8F08788465907914600F1D6
:105A5000C2806369DA439145EED8B9F1000F00F0D6
:105A6000C1804E464FF0000A30E000297BD0A2787A
:105A700052067FD5E2699A427CD90131216100F05A
:105A800097FEB6F5007F01463DD26269E369A068E2
:105A9000B6F5007F354628BF4FF400759A427AD399
:105AA0000522243000F04CFE0028C5D038442A4698
:105AB00041462F4406F03EF9B7F5007F79D063697F
:105AC000761B2B44A844636100F08C80A068216998
:105AD000427912EA5325C3F308070CD1002FC4D032
